{
  "_format": "hh-sol-artifact-1",
  "contractName": "PixelBattle",
  "sourceName": "contracts/PixelBattle.sol",
  "abi": [
    {
      "inputs": [
        {
          "internalType": "address",
          "name": "_developerWallet",
          "type": "address"
        }
      ],
      "stateMutability": "nonpayable",
      "type": "constructor"
    },
    {
      "anonymous": false,
      "inputs": [
        {
          "indexed": false,
          "internalType": "uint256",
          "name": "timestamp",
          "type": "uint256"
        },
        {
          "indexed": false,
          "internalType": "address[]",
          "name": "winners",
          "type": "address[]"
        },
        {
          "indexed": false,
          "internalType": "uint256",
          "name": "prizeAmount",
          "type": "uint256"
        }
      ],
      "name": "GameEnded",
      "type": "event"
    },
    {
      "anonymous": false,
      "inputs": [
        {
          "indexed": false,
          "internalType": "uint256",
          "name": "timestamp",
          "type": "uint256"
        }
      ],
      "name": "GameStarted",
      "type": "event"
    },
    {
      "anonymous": false,
      "inputs": [
        {
          "indexed": true,
          "internalType": "address",
          "name": "previousOwner",
          "type": "address"
        },
        {
          "indexed": true,
          "internalType": "address",
          "name": "newOwner",
          "type": "address"
        }
      ],
      "name": "OwnershipTransferred",
      "type": "event"
    },
    {
      "anonymous": false,
      "inputs": [
        {
          "indexed": true,
          "internalType": "address",
          "name": "buyer",
          "type": "address"
        },
        {
          "indexed": false,
          "internalType": "uint8",
          "name": "x",
          "type": "uint8"
        },
        {
          "indexed": false,
          "internalType": "uint8",
          "name": "y",
          "type": "uint8"
        },
        {
          "indexed": false,
          "internalType": "string",
          "name": "color",
          "type": "string"
        },
        {
          "indexed": false,
          "internalType": "uint256",
          "name": "price",
          "type": "uint256"
        },
        {
          "indexed": false,
          "internalType": "uint256",
          "name": "timestamp",
          "type": "uint256"
        }
      ],
      "name": "PixelPurchased",
      "type": "event"
    },
    {
      "anonymous": false,
      "inputs": [
        {
          "indexed": true,
          "internalType": "address",
          "name": "recipient",
          "type": "address"
        },
        {
          "indexed": false,
          "internalType": "uint256",
          "name": "amount",
          "type": "uint256"
        }
      ],
      "name": "PrizeDistributed",
      "type": "event"
    },
    {
      "inputs": [],
      "name": "CANVAS_HEIGHT",
      "outputs": [
        {
          "internalType": "uint8",
          "name": "",
          "type": "uint8"
        }
      ],
      "stateMutability": "view",
      "type": "function"
    },
    {
      "inputs": [],
      "name": "CANVAS_WIDTH",
      "outputs": [
        {
          "internalType": "uint8",
          "name": "",
          "type": "uint8"
        }
      ],
      "stateMutability": "view",
      "type": "function"
    },
    {
      "inputs": [],
      "name": "DEVELOPER_PERCENTAGE",
      "outputs": [
        {
          "internalType": "uint8",
          "name": "",
          "type": "uint8"
        }
      ],
      "stateMutability": "view",
      "type": "function"
    },
    {
      "inputs": [],
      "name": "INITIAL_PRICE",
      "outputs": [
        {
          "internalType": "uint256",
          "name": "",
          "type": "uint256"
        }
      ],
      "stateMutability": "view",
      "type": "function"
    },
    {
      "inputs": [],
      "name": "PREVIOUS_OWNER_PERCENTAGE",
      "outputs": [
        {
          "internalType": "uint8",
          "name": "",
          "type": "uint8"
        }
      ],
      "stateMutability": "view",
      "type": "function"
    },
    {
      "inputs": [],
      "name": "PRICE_INCREASE_DIVISOR",
      "outputs": [
        {
          "internalType": "uint256",
          "name": "",
          "type": "uint256"
        }
      ],
      "stateMutability": "view",
      "type": "function"
    },
    {
      "inputs": [],
      "name": "PRICE_INCREASE_FACTOR",
      "outputs": [
        {
          "internalType": "uint256",
          "name": "",
          "type": "uint256"
        }
      ],
      "stateMutability": "view",
      "type": "function"
    },
    {
      "inputs": [],
      "name": "PRIZE_BANK_PERCENTAGE",
      "outputs": [
        {
          "internalType": "uint8",
          "name": "",
          "type": "uint8"
        }
      ],
      "stateMutability": "view",
      "type": "function"
    },
    {
      "inputs": [],
      "name": "checkAndEndGame",
      "outputs": [
        {
          "internalType": "bool",
          "name": "ended",
          "type": "bool"
        }
      ],
      "stateMutability": "nonpayable",
      "type": "function"
    },
    {
      "inputs": [],
      "name": "developerWallet",
      "outputs": [
        {
          "internalType": "address",
          "name": "",
          "type": "address"
        }
      ],
      "stateMutability": "view",
      "type": "function"
    },
    {
      "inputs": [],
      "name": "endGame",
      "outputs": [],
      "stateMutability": "nonpayable",
      "type": "function"
    },
    {
      "inputs": [],
      "name": "gameActive",
      "outputs": [
        {
          "internalType": "bool",
          "name": "",
          "type": "bool"
        }
      ],
      "stateMutability": "view",
      "type": "function"
    },
    {
      "inputs": [],
      "name": "gameStartTime",
      "outputs": [
        {
          "internalType": "uint256",
          "name": "",
          "type": "uint256"
        }
      ],
      "stateMutability": "view",
      "type": "function"
    },
    {
      "inputs": [],
      "name": "getCanvasData",
      "outputs": [
        {
          "internalType": "address[]",
          "name": "owners",
          "type": "address[]"
        },
        {
          "internalType": "string[]",
          "name": "colors",
          "type": "string[]"
        }
      ],
      "stateMutability": "view",
      "type": "function"
    },
    {
      "inputs": [],
      "name": "getGameState",
      "outputs": [
        {
          "internalType": "bool",
          "name": "active",
          "type": "bool"
        },
        {
          "internalType": "uint256",
          "name": "startTime",
          "type": "uint256"
        },
        {
          "internalType": "uint256",
          "name": "activity",
          "type": "uint256"
        },
        {
          "internalType": "uint256",
          "name": "inactivity",
          "type": "uint256"
        },
        {
          "internalType": "uint256",
          "name": "prizeBank",
          "type": "uint256"
        }
      ],
      "stateMutability": "view",
      "type": "function"
    },
    {
      "inputs": [
        {
          "internalType": "uint8",
          "name": "x",
          "type": "uint8"
        },
        {
          "internalType": "uint8",
          "name": "y",
          "type": "uint8"
        }
      ],
      "name": "getPixel",
      "outputs": [
        {
          "internalType": "address",
          "name": "owner",
          "type": "address"
        },
        {
          "internalType": "uint256",
          "name": "price",
          "type": "uint256"
        },
        {
          "internalType": "string",
          "name": "color",
          "type": "string"
        },
        {
          "internalType": "uint256",
          "name": "lastUpdateTime",
          "type": "uint256"
        }
      ],
      "stateMutability": "view",
      "type": "function"
    },
    {
      "inputs": [
        {
          "internalType": "address",
          "name": "owner",
          "type": "address"
        }
      ],
      "name": "getPixelsByOwner",
      "outputs": [
        {
          "internalType": "uint8[]",
          "name": "",
          "type": "uint8[]"
        }
      ],
      "stateMutability": "view",
      "type": "function"
    },
    {
      "inputs": [],
      "name": "getTimeRemainingBeforeEnd",
      "outputs": [
        {
          "internalType": "uint256",
          "name": "timeRemaining",
          "type": "uint256"
        }
      ],
      "stateMutability": "view",
      "type": "function"
    },
    {
      "inputs": [],
      "name": "inactivityPeriod",
      "outputs": [
        {
          "internalType": "uint256",
          "name": "",
          "type": "uint256"
        }
      ],
      "stateMutability": "view",
      "type": "function"
    },
    {
      "inputs": [],
      "name": "lastActivityTime",
      "outputs": [
        {
          "internalType": "uint256",
          "name": "",
          "type": "uint256"
        }
      ],
      "stateMutability": "view",
      "type": "function"
    },
    {
      "inputs": [],
      "name": "owner",
      "outputs": [
        {
          "internalType": "address",
          "name": "",
          "type": "address"
        }
      ],
      "stateMutability": "view",
      "type": "function"
    },
    {
      "inputs": [
        {
          "internalType": "address",
          "name": "",
          "type": "address"
        }
      ],
      "name": "pixelCounts",
      "outputs": [
        {
          "internalType": "uint256",
          "name": "",
          "type": "uint256"
        }
      ],
      "stateMutability": "view",
      "type": "function"
    },
    {
      "inputs": [
        {
          "internalType": "uint8",
          "name": "",
          "type": "uint8"
        },
        {
          "internalType": "uint8",
          "name": "",
          "type": "uint8"
        }
      ],
      "name": "pixels",
      "outputs": [
        {
          "internalType": "address",
          "name": "owner",
          "type": "address"
        },
        {
          "internalType": "uint256",
          "name": "price",
          "type": "uint256"
        },
        {
          "internalType": "string",
          "name": "color",
          "type": "string"
        },
        {
          "internalType": "uint256",
          "name": "lastUpdateTime",
          "type": "uint256"
        }
      ],
      "stateMutability": "view",
      "type": "function"
    },
    {
      "inputs": [],
      "name": "prizeBankBalance",
      "outputs": [
        {
          "internalType": "uint256",
          "name": "",
          "type": "uint256"
        }
      ],
      "stateMutability": "view",
      "type": "function"
    },
    {
      "inputs": [
        {
          "internalType": "uint8",
          "name": "x",
          "type": "uint8"
        },
        {
          "internalType": "uint8",
          "name": "y",
          "type": "uint8"
        },
        {
          "internalType": "string",
          "name": "color",
          "type": "string"
        }
      ],
      "name": "purchasePixel",
      "outputs": [],
      "stateMutability": "payable",
      "type": "function"
    },
    {
      "inputs": [],
      "name": "renounceOwnership",
      "outputs": [],
      "stateMutability": "nonpayable",
      "type": "function"
    },
    {
      "inputs": [
        {
          "internalType": "address",
          "name": "_developerWallet",
          "type": "address"
        }
      ],
      "name": "setDeveloperWallet",
      "outputs": [],
      "stateMutability": "nonpayable",
      "type": "function"
    },
    {
      "inputs": [
        {
          "internalType": "uint256",
          "name": "_inactivityPeriod",
          "type": "uint256"
        }
      ],
      "name": "setInactivityPeriod",
      "outputs": [],
      "stateMutability": "nonpayable",
      "type": "function"
    },
    {
      "inputs": [],
      "name": "shouldEndGame",
      "outputs": [
        {
          "internalType": "bool",
          "name": "",
          "type": "bool"
        }
      ],
      "stateMutability": "view",
      "type": "function"
    },
    {
      "inputs": [],
      "name": "startGame",
      "outputs": [],
      "stateMutability": "nonpayable",
      "type": "function"
    },
    {
      "inputs": [
        {
          "internalType": "address",
          "name": "newOwner",
          "type": "address"
        }
      ],
      "name": "transferOwnership",
      "outputs": [],
      "stateMutability": "nonpayable",
      "type": "function"
    }
  ],
  "bytecode": "0x6080604052620151806004556006805460ff191690553480156200002257600080fd5b50604051620025173803806200251783398101604081905262000045916200013b565b6200005033620000eb565b600180556001600160a01b038116620000bf5760405162461bcd60e51b815260206004820152602760248201527f446576656c6f7065722077616c6c65742063616e6e6f74206265207a65726f206044820152666164647265737360c81b606482015260840160405180910390fd5b600680546001600160a01b0390921661010002610100600160a81b03199092169190911790556200016d565b600080546001600160a01b038381166001600160a01b0319831681178455604051919092169283917f8be0079c531659141344cd1fd0a4f28419497f9722a3daafe3b4186f6b6457e09190a35050565b6000602082840312156200014e57600080fd5b81516001600160a01b03811681146200016657600080fd5b9392505050565b61239a806200017d6000396000f3fe6080604052600436106101d85760003560e01c8063906de78b11610102578063ce98f53d11610095578063d9747fa311610064578063d9747fa314610531578063ed4127df14610339578063f020044f14610547578063f2fde38b1461056157600080fd5b8063ce98f53d146104d1578063d362bd2b146104f1578063d422d2d014610507578063d65ab5f21461051c57600080fd5b8063b4cea64a116100d1578063b4cea64a14610430578063b7d0628b14610445578063c034fe331461048f578063c1339217146104bc57600080fd5b8063906de78b146103ab578063939da325146103d8578063af434a6d146103ed578063b1d5603b1461040d57600080fd5b80636cbc2ded1161017a57806371bf439e1161014957806371bf439e146103395780637c5e27951461034e5780638b235f19146103685780638da5cb5b1461038d57600080fd5b80636cbc2ded146102d95780636cd56878146102ee57806371289ae21461030e578063715018a61461032457600080fd5b806321e960dc116101b657806321e960dc1461026a5780633c98c38e1461027f5780634d4ef3c2146102af5780635b0f1139146102c457600080fd5b80630252b995146101dd57806305887b5214610206578063185870f91461022d575b600080fd5b3480156101e957600080fd5b506101f360025481565b6040519081526020015b60405180910390f35b34801561021257600080fd5b5061021b600181565b60405160ff90911681526020016101fd565b34801561023957600080fd5b506006546102529061010090046001600160a01b031681565b6040516001600160a01b0390911681526020016101fd565b34801561027657600080fd5b506101f3610581565b34801561028b57600080fd5b5061029f61029a366004611d66565b6105cb565b6040516101fd9493929190611ddf565b3480156102bb57600080fd5b506101f3606e81565b6102d76102d2366004611e17565b610727565b005b3480156102e557600080fd5b506102d7610a89565b3480156102fa57600080fd5b506102d7610309366004611ea5565b610b90565b34801561031a57600080fd5b506101f360055481565b34801561033057600080fd5b506102d7610c26565b34801561034557600080fd5b5061021b602081565b34801561035a57600080fd5b506101f3655af3107a400081565b34801561037457600080fd5b5061037d610c3a565b60405190151581526020016101fd565b34801561039957600080fd5b506000546001600160a01b0316610252565b3480156103b757600080fd5b506101f36103c6366004611ea5565b60086020526000908152604090205481565b3480156103e457600080fd5b5061021b605481565b3480156103f957600080fd5b506102d7610408366004611ed5565b610cc0565b34801561041957600080fd5b50610422610ccd565b6040516101fd929190611f32565b34801561043c57600080fd5b5061021b600f81565b34801561045157600080fd5b506006546002546003546004546005546040805160ff909616151586526020860194909452928401919091526060830152608082015260a0016101fd565b34801561049b57600080fd5b506104af6104aa366004611ea5565b610ed9565b6040516101fd9190611fa4565b3480156104c857600080fd5b5061037d61105a565b3480156104dd57600080fd5b5061029f6104ec366004611d66565b611082565b3480156104fd57600080fd5b506101f360045481565b34801561051357600080fd5b506101f3606481565b34801561052857600080fd5b506102d7611148565b34801561053d57600080fd5b506101f360035481565b34801561055357600080fd5b5060065461037d9060ff1681565b34801561056d57600080fd5b506102d761057c366004611ea5565b6111f0565b60065460009060ff166105945750600090565b6000600354426105a49190612001565b905060045481106105b757600091505090565b806004546105c59190612001565b91505090565b600080606081602060ff87161080156105e75750602060ff8616105b6106385760405162461bcd60e51b815260206004820152601960248201527f436f6f7264696e61746573206f7574206f6620626f756e64730000000000000060448201526064015b60405180910390fd5b60ff8087166000908152600760209081526040808320938916835292905220805460018201546001600160a01b039091169061067a57655af3107a4000610680565b81600101545b8260020183600301548180546106959061201a565b80601f01602080910402602001604051908101604052809291908181526020018280546106c19061201a565b801561070e5780601f106106e35761010080835404028352916020019161070e565b820191906000526020600020905b8154815290600101906020018083116106f157829003601f168201915b5050505050915094509450945094505092959194509250565b61072f611266565b60065460ff166107765760405162461bcd60e51b815260206004820152601260248201527147616d65206973206e6f742061637469766560701b604482015260640161062f565b602060ff8516106107c95760405162461bcd60e51b815260206004820152601a60248201527f582d636f6f7264696e617465206f7574206f6620626f756e6473000000000000604482015260640161062f565b602060ff84161061081c5760405162461bcd60e51b815260206004820152601a60248201527f592d636f6f7264696e617465206f7574206f6620626f756e6473000000000000604482015260640161062f565b806108615760405162461bcd60e51b8152602060048201526015602482015274436f6c6f722063616e6e6f7420626520656d70747960581b604482015260640161062f565b60ff8085166000908152600760209081526040808320938716835292905220600254600382015410156108df5780546001600160a01b0319168155655af3107a4000600182015560408051808201909152600781526611a3232323232360c91b602082015260028201906108d590826120b5565b5060025460038201555b806001015434101561092a5760405162461bcd60e51b8152602060048201526014602482015273125b9cdd59999a58da595b9d081c185e5b595b9d60621b604482015260640161062f565b80546001600160a01b03163381036109845760405162461bcd60e51b815260206004820152601a60248201527f596f7520616c7265616479206f776e207468697320706978656c000000000000604482015260640161062f565b6001600160a01b038116156109bd576001600160a01b03811660009081526008602052604081208054916109b783612175565b91905055505b3360009081526008602052604081208054916109d88361218c565b909155505081546001600160a01b03191633178255600282016109fc8486836121a5565b504260038301556001820154606490610a1790606e90612266565b610a21919061227d565b6001830155610a3081346112bf565b42600381905560405133917f9e4743e110d149899a1c11fb0edea07ae65f4cca8f5cf909f3b4ab80a2d4243491610a70918a918a918a918a91349161229f565b60405180910390a25050610a8360018055565b50505050565b60065460ff16610ad05760405162461bcd60e51b815260206004820152601260248201527147616d65206973206e6f742061637469766560701b604482015260640161062f565b610ad861105a565b610b245760405162461bcd60e51b815260206004820152601860248201527f47616d652063616e6e6f7420626520656e646564207965740000000000000000604482015260640161062f565b6006805460ff191690556000610b38611503565b9050610b438161185b565b7fe785b815d6374b945ba141337a5ca73fabb4f42f6c2012a028c404f3ad1410464282600554604051610b78939291906122f3565b60405180910390a16000600555610b8d61119c565b50565b610b98611ca6565b6001600160a01b038116610bfe5760405162461bcd60e51b815260206004820152602760248201527f446576656c6f7065722077616c6c65742063616e6e6f74206265207a65726f206044820152666164647265737360c81b606482015260840161062f565b600680546001600160a01b0390921661010002610100600160a81b0319909216919091179055565b610c2e611ca6565b610c386000611d00565b565b6000610c4461105a565b15610cba576006805460ff191690556000610c5d611503565b9050610c688161185b565b7fe785b815d6374b945ba141337a5ca73fabb4f42f6c2012a028c404f3ad1410464282600554604051610c9d939291906122f3565b60405180910390a16000600555610cb261119c565b600191505090565b50600090565b610cc8611ca6565b600455565b6060806000610cdd602080612266565b90508067ffffffffffffffff811115610cf857610cf8612054565b604051908082528060200260200182016040528015610d21578160200160208202803683370190505b5092508067ffffffffffffffff811115610d3d57610d3d612054565b604051908082528060200260200182016040528015610d7057816020015b6060815260200190600190039081610d5b5790505b5091506000805b602060ff82161015610ed25760005b602060ff82161015610ebf5760ff8082166000908152600760209081526040808320938616835292905220805487516001600160a01b0390911690889086908110610dd357610dd361231c565b60200260200101906001600160a01b031690816001600160a01b031681525050806002018054610e029061201a565b80601f0160208091040260200160405190810160405280929190818152602001828054610e2e9061201a565b8015610e7b5780601f10610e5057610100808354040283529160200191610e7b565b820191906000526020600020905b815481529060010190602001808311610e5e57829003601f168201915b5050505050868581518110610e9257610e9261231c565b60200260200101819052508380610ea89061218c565b945050508080610eb790612332565b915050610d86565b5080610eca81612332565b915050610d77565b5050509091565b6001600160a01b038116600090815260086020526040812054606091610f00826002612266565b67ffffffffffffffff811115610f1857610f18612054565b604051908082528060200260200182016040528015610f41578160200160208202803683370190505b50905081600003610f53579392505050565b6000805b602060ff821610156110505760005b602060ff821610156110355760ff8083166000908152600760209081526040808320938516835292905220546001600160a01b03808916911603611023578184610fb1856002612266565b81518110610fc157610fc161231c565b60ff909216602092830291909101909101528084610fe0856002612266565b610feb906001612351565b81518110610ffb57610ffb61231c565b60ff90921660209283029190910190910152826110178161218c565b93505084831015611035575b8061102d81612332565b915050610f66565b5083821015611050578061104881612332565b915050610f57565b5090949350505050565b60065460009060ff16801561107d575060045460035461107a9042612001565b10155b905090565b60076020908152600092835260408084209091529082529020805460018201546002830180546001600160a01b039093169391926110bf9061201a565b80601f01602080910402602001604051908101604052809291908181526020018280546110eb9061201a565b80156111385780601f1061110d57610100808354040283529160200191611138565b820191906000526020600020905b81548152906001019060200180831161111b57829003601f168201915b5050505050908060030154905084565b611150611ca6565b60065460ff161561119c5760405162461bcd60e51b815260206004820152601660248201527547616d6520697320616c72656164792061637469766560501b604482015260640161062f565b6006805460ff1916600117905542600281905560038190556040517f50ad08f58a27f2851d7e3a1b3a6a46b290f2ce677e99642d30ff639721e77790916111e69190815260200190565b60405180910390a1565b6111f8611ca6565b6001600160a01b03811661125d5760405162461bcd60e51b815260206004820152602660248201527f4f776e61626c653a206e6577206f776e657220697320746865207a65726f206160448201526564647265737360d01b606482015260840161062f565b610b8d81611d00565b6002600154036112b85760405162461bcd60e51b815260206004820152601f60248201527f5265656e7472616e637947756172643a207265656e7472616e742063616c6c00604482015260640161062f565b6002600155565b60008060646112cf600f85612266565b6112d9919061227d565b9050600060646112ea600186612266565b6112f4919061227d565b90506001600160a01b038516156113ce576064611312605486612266565b61131c919061227d565b925082156113c9576000856001600160a01b03168460405160006040518083038185875af1925050503d8060008114611371576040519150601f19603f3d011682016040523d82523d6000602084013e611376565b606091505b50509050806113c75760405162461bcd60e51b815260206004820181905260248201527f5061796d656e7420746f2070726576696f7573206f776e6572206661696c6564604482015260640161062f565b505b6113f2565b60646113db605486612266565b6113e5919061227d565b6113ef9083612351565b91505b81600560008282546114049190612351565b909155505080156114b95760065460405160009161010090046001600160a01b03169083908381818185875af1925050503d8060008114611461576040519150601f19603f3d011682016040523d82523d6000602084013e611466565b606091505b50509050806114b75760405162461bcd60e51b815260206004820152601b60248201527f5061796d656e7420746f20646576656c6f706572206661696c65640000000000604482015260640161062f565b505b6000816114c68486612351565b6114d09190612351565b9050808511156114fb576114e48186612001565b600560008282546114f59190612351565b90915550505b505050505050565b60606000806000805b602060ff821610156115885760005b602060ff821610156115755760ff8083166000908152600760209081526040808320938516835292905220546001600160a01b031615611563578261155f8161218c565b9350505b8061156d81612332565b91505061151b565b508061158081612332565b91505061150c565b5060008167ffffffffffffffff8111156115a4576115a4612054565b6040519080825280602002602001820160405280156115cd578160200160208202803683370190505b5090506000805b602060ff821610156117515760005b602060ff8216101561173e5760ff8083166000908152600760209081526040808320938516835292905220546001600160a01b0316801561172b576000805b8581101561167757826001600160a01b03168782815181106116465761164661231c565b60200260200101516001600160a01b0316036116655760019150611677565b8061166f8161218c565b915050611622565b508061172957818686815181106116905761169061231c565b6001600160a01b0390921660209283029190910190910152846116b28161218c565b6001600160a01b0384166000908152600860205260409020549096508a101590506116fb576001600160a01b038216600090815260086020526040902054985060019750611729565b6001600160a01b03821660009081526008602052604090205489900361172957876117258161218c565b9850505b505b508061173681612332565b9150506115e3565b508061174981612332565b9150506115d4565b5060008467ffffffffffffffff81111561176d5761176d612054565b604051908082528060200260200182016040528015611796578160200160208202803683370190505b5090506000805b8381101561184e5787600860008784815181106117bc576117bc61231c565b60200260200101516001600160a01b03166001600160a01b03168152602001908152602001600020540361183c578481815181106117fc576117fc61231c565b60200260200101518383815181106118165761181661231c565b6001600160a01b0390921660209283029190910190910152816118388161218c565b9250505b806118468161218c565b91505061179d565b5090979650505050505050565b805115806118695750600554155b156118715750565b6000805b602060ff821610156118f15760005b602060ff821610156118de5760ff8083166000908152600760209081526040808320938516835292905220546001600160a01b0316156118cc57826118c88161218c565b9350505b806118d681612332565b915050611884565b50806118e981612332565b915050611875565b50806000036118fe575050565b60008167ffffffffffffffff81111561191957611919612054565b604051908082528060200260200182016040528015611942578160200160208202803683370190505b50905060008267ffffffffffffffff81111561196057611960612054565b604051908082528060200260200182016040528015611989578160200160208202803683370190505b50905060008060005b602060ff82161015611b2a5760005b602060ff82161015611b175760ff8083166000908152600760209081526040808320938516835292905220546001600160a01b03168015611b045760008860055460016119ee9190612266565b6119f8919061227d565b90508015611b025760008060005b88811015611a5e57846001600160a01b03168b8281518110611a2a57611a2a61231c565b60200260200101516001600160a01b031603611a4c5760019250809150611a5e565b80611a568161218c565b915050611a06565b508115611a945782898281518110611a7857611a7861231c565b60200260200101818151611a8c9190612351565b905250611af3565b838a8981518110611aa757611aa761231c565b60200260200101906001600160a01b031690816001600160a01b03168152505082898981518110611ada57611ada61231c565b602090810291909101015287611aef8161218c565b9850505b611afd8388612351565b965050505b505b5080611b0f81612332565b9150506119a1565b5080611b2281612332565b915050611992565b5060005b82811015611c78576000858281518110611b4a57611b4a61231c565b602002602001015190506000858381518110611b6857611b6861231c565b602002602001015190506000811115611c63576000826001600160a01b03168260405160006040518083038185875af1925050503d8060008114611bc8576040519150601f19603f3d011682016040523d82523d6000602084013e611bcd565b606091505b5050905080611c1e5760405162461bcd60e51b815260206004820152601960248201527f5072697a6520646973747269627574696f6e206661696c656400000000000000604482015260640161062f565b826001600160a01b03167fb8e091d87f82e56d22276c9a0088ea5d6068e355383dc08b2721b7b6cb10e84583604051611c5991815260200190565b60405180910390a2505b50508080611c709061218c565b915050611b2e565b50806005541115611c995780600554611c919190612001565b6005556114fb565b6000600555505050505050565b6000546001600160a01b03163314610c385760405162461bcd60e51b815260206004820181905260248201527f4f776e61626c653a2063616c6c6572206973206e6f7420746865206f776e6572604482015260640161062f565b600080546001600160a01b038381166001600160a01b0319831681178455604051919092169283917f8be0079c531659141344cd1fd0a4f28419497f9722a3daafe3b4186f6b6457e09190a35050565b803560ff81168114611d6157600080fd5b919050565b60008060408385031215611d7957600080fd5b611d8283611d50565b9150611d9060208401611d50565b90509250929050565b6000815180845260005b81811015611dbf57602081850181015186830182015201611da3565b506000602082860101526020601f19601f83011685010191505092915050565b60018060a01b0385168152836020820152608060408201526000611e066080830185611d99565b905082606083015295945050505050565b60008060008060608587031215611e2d57600080fd5b611e3685611d50565b9350611e4460208601611d50565b9250604085013567ffffffffffffffff80821115611e6157600080fd5b818701915087601f830112611e7557600080fd5b813581811115611e8457600080fd5b886020828501011115611e9657600080fd5b95989497505060200194505050565b600060208284031215611eb757600080fd5b81356001600160a01b0381168114611ece57600080fd5b9392505050565b600060208284031215611ee757600080fd5b5035919050565b600081518084526020808501945080840160005b83811015611f275781516001600160a01b031687529582019590820190600101611f02565b509495945050505050565b604081526000611f456040830185611eee565b6020838203818501528185518084528284019150828160051b85010183880160005b83811015611f9557601f19878403018552611f83838351611d99565b94860194925090850190600101611f67565b50909998505050505050505050565b6020808252825182820181905260009190848201906040850190845b81811015611fdf57835160ff1683529284019291840191600101611fc0565b50909695505050505050565b634e487b7160e01b600052601160045260246000fd5b8181038181111561201457612014611feb565b92915050565b600181811c9082168061202e57607f821691505b60208210810361204e57634e487b7160e01b600052602260045260246000fd5b50919050565b634e487b7160e01b600052604160045260246000fd5b601f8211156120b057600081815260208120601f850160051c810160208610156120915750805b601f850160051c820191505b818110156114fb5782815560010161209d565b505050565b815167ffffffffffffffff8111156120cf576120cf612054565b6120e3816120dd845461201a565b8461206a565b602080601f83116001811461211857600084156121005750858301515b600019600386901b1c1916600185901b1785556114fb565b600085815260208120601f198616915b8281101561214757888601518255948401946001909101908401612128565b50858210156121655787850151600019600388901b60f8161c191681555b5050505050600190811b01905550565b60008161218457612184611feb565b506000190190565b60006001820161219e5761219e611feb565b5060010190565b67ffffffffffffffff8311156121bd576121bd612054565b6121d1836121cb835461201a565b8361206a565b6000601f84116001811461220557600085156121ed5750838201355b600019600387901b1c1916600186901b17835561225f565b600083815260209020601f19861690835b828110156122365786850135825560209485019460019092019101612216565b50868210156122535760001960f88860031b161c19848701351681555b505060018560011b0183555b5050505050565b808202811582820484141761201457612014611feb565b60008261229a57634e487b7160e01b600052601260045260246000fd5b500490565b60ff8716815260ff8616602082015260a060408201528360a0820152838560c0830137600060c08583010152600060c0601f19601f8701168301019050836060830152826080830152979650505050505050565b83815260606020820152600061230c6060830185611eee565b9050826040830152949350505050565b634e487b7160e01b600052603260045260246000fd5b600060ff821660ff810361234857612348611feb565b60010192915050565b8082018082111561201457612014611feb56fea2646970667358221220c2eacaadb5aab369709b3cffc224dac18988387cc3e4a4d3e13f14d0e45a3ebb64736f6c63430008140033",
  "linkReferences": {},
  "deployedLinkReferences": {}
}