{"contracts/PixelBattle.sol":{"PixelBattle":{"abi":[{"inputs":[{"internalType":"address","name":"_developerWallet","type":"address"}],"stateMutability":"nonpayable","type":"constructor"},{"anonymous":false,"inputs":[{"indexed":false,"internalType":"uint256","name":"timestamp","type":"uint256"},{"indexed":false,"internalType":"address[]","name":"winners","type":"address[]"},{"indexed":false,"internalType":"uint256","name":"prizeAmount","type":"uint256"}],"name":"GameEnded","type":"event"},{"anonymous":false,"inputs":[{"indexed":false,"internalType":"uint256","name":"timestamp","type":"uint256"}],"name":"GameStarted","type":"event"},{"anonymous":false,"inputs":[{"indexed":true,"internalType":"address","name":"previousOwner","type":"address"},{"indexed":true,"internalType":"address","name":"newOwner","type":"address"}],"name":"OwnershipTransferred","type":"event"},{"anonymous":false,"inputs":[{"indexed":true,"internalType":"address","name":"buyer","type":"address"},{"indexed":false,"internalType":"uint8","name":"x","type":"uint8"},{"indexed":false,"internalType":"uint8","name":"y","type":"uint8"},{"indexed":false,"internalType":"string","name":"color","type":"string"},{"indexed":false,"internalType":"uint256","name":"price","type":"uint256"},{"indexed":false,"internalType":"uint256","name":"timestamp","type":"uint256"}],"name":"PixelPurchased","type":"event"},{"anonymous":false,"inputs":[{"indexed":true,"internalType":"address","name":"recipient","type":"address"},{"indexed":false,"internalType":"uint256","name":"amount","type":"uint256"}],"name":"PrizeDistributed","type":"event"},{"inputs":[],"name":"CANVAS_HEIGHT","outputs":[{"internalType":"uint8","name":"","type":"uint8"}],"stateMutability":"view","type":"function"},{"inputs":[],"name":"CANVAS_WIDTH","outputs":[{"internalType":"uint8","name":"","type":"uint8"}],"stateMutability":"view","type":"function"},{"inputs":[],"name":"DEVELOPER_PERCENTAGE","outputs":[{"internalType":"uint8","name":"","type":"uint8"}],"stateMutability":"view","type":"function"},{"inputs":[],"name":"INITIAL_PRICE","outputs":[{"internalType":"uint256","name":"","type":"uint256"}],"stateMutability":"view","type":"function"},{"inputs":[],"name":"PREVIOUS_OWNER_PERCENTAGE","outputs":[{"internalType":"uint8","name":"","type":"uint8"}],"stateMutability":"view","type":"function"},{"inputs":[],"name":"PRICE_INCREASE_DIVISOR","outputs":[{"internalType":"uint256","name":"","type":"uint256"}],"stateMutability":"view","type":"function"},{"inputs":[],"name":"PRICE_INCREASE_FACTOR","outputs":[{"internalType":"uint256","name":"","type":"uint256"}],"stateMutability":"view","type":"function"},{"inputs":[],"name":"PRIZE_BANK_PERCENTAGE","outputs":[{"internalType":"uint8","name":"","type":"uint8"}],"stateMutability":"view","type":"function"},{"inputs":[],"name":"checkAndEndGame","outputs":[{"internalType":"bool","name":"ended","type":"bool"}],"stateMutability":"nonpayable","type":"function"},{"inputs":[],"name":"developerWallet","outputs":[{"internalType":"address","name":"","type":"address"}],"stateMutability":"view","type":"function"},{"inputs":[],"name":"endGame","outputs":[],"stateMutability":"nonpayable","type":"function"},{"inputs":[],"name":"gameActive","outputs":[{"internalType":"bool","name":"","type":"bool"}],"stateMutability":"view","type":"function"},{"inputs":[],"name":"gameStartTime","outputs":[{"internalType":"uint256","name":"","type":"uint256"}],"stateMutability":"view","type":"function"},{"inputs":[],"name":"getCanvasData","outputs":[{"internalType":"address[]","name":"owners","type":"address[]"},{"internalType":"string[]","name":"colors","type":"string[]"}],"stateMutability":"view","type":"function"},{"inputs":[],"name":"getGameState","outputs":[{"internalType":"bool","name":"active","type":"bool"},{"internalType":"uint256","name":"startTime","type":"uint256"},{"internalType":"uint256","name":"activity","type":"uint256"},{"internalType":"uint256","name":"inactivity","type":"uint256"},{"internalType":"uint256","name":"prizeBank","type":"uint256"}],"stateMutability":"view","type":"function"},{"inputs":[{"internalType":"uint8","name":"x","type":"uint8"},{"internalType":"uint8","name":"y","type":"uint8"}],"name":"getPixel","outputs":[{"internalType":"address","name":"owner","type":"address"},{"internalType":"uint256","name":"price","type":"uint256"},{"internalType":"string","name":"color","type":"string"},{"internalType":"uint256","name":"lastUpdateTime","type":"uint256"}],"stateMutability":"view","type":"function"},{"inputs":[{"internalType":"address","name":"owner","type":"address"}],"name":"getPixelsByOwner","outputs":[{"internalType":"uint8[]","name":"","type":"uint8[]"}],"stateMutability":"view","type":"function"},{"inputs":[],"name":"getTimeRemainingBeforeEnd","outputs":[{"internalType":"uint256","name":"timeRemaining","type":"uint256"}],"stateMutability":"view","type":"function"},{"inputs":[],"name":"inactivityPeriod","outputs":[{"internalType":"uint256","name":"","type":"uint256"}],"stateMutability":"view","type":"function"},{"inputs":[],"name":"lastActivityTime","outputs":[{"internalType":"uint256","name":"","type":"uint256"}],"stateMutability":"view","type":"function"},{"inputs":[],"name":"owner","outputs":[{"internalType":"address","name":"","type":"address"}],"stateMutability":"view","type":"function"},{"inputs":[{"internalType":"address","name":"","type":"address"}],"name":"pixelCounts","outputs":[{"internalType":"uint256","name":"","type":"uint256"}],"stateMutability":"view","type":"function"},{"inputs":[{"internalType":"uint8","name":"","type":"uint8"},{"internalType":"uint8","name":"","type":"uint8"}],"name":"pixels","outputs":[{"internalType":"address","name":"owner","type":"address"},{"internalType":"uint256","name":"price","type":"uint256"},{"internalType":"string","name":"color","type":"string"},{"internalType":"uint256","name":"lastUpdateTime","type":"uint256"}],"stateMutability":"view","type":"function"},{"inputs":[],"name":"prizeBankBalance","outputs":[{"internalType":"uint256","name":"","type":"uint256"}],"stateMutability":"view","type":"function"},{"inputs":[{"internalType":"uint8","name":"x","type":"uint8"},{"internalType":"uint8","name":"y","type":"uint8"},{"internalType":"string","name":"color","type":"string"}],"name":"purchasePixel","outputs":[],"stateMutability":"payable","type":"function"},{"inputs":[],"name":"renounceOwnership","outputs":[],"stateMutability":"nonpayable","type":"function"},{"inputs":[{"internalType":"address","name":"_developerWallet","type":"address"}],"name":"setDeveloperWallet","outputs":[],"stateMutability":"nonpayable","type":"function"},{"inputs":[{"internalType":"uint256","name":"_inactivityPeriod","type":"uint256"}],"name":"setInactivityPeriod","outputs":[],"stateMutability":"nonpayable","type":"function"},{"inputs":[],"name":"shouldEndGame","outputs":[{"internalType":"bool","name":"","type":"bool"}],"stateMutability":"view","type":"function"},{"inputs":[],"name":"startGame","outputs":[],"stateMutability":"nonpayable","type":"function"},{"inputs":[{"internalType":"address","name":"newOwner","type":"address"}],"name":"transferOwnership","outputs":[],"stateMutability":"nonpayable","type":"function"}],"evm":{"bytecode":{"linkReferences":{},"object":"6080604052620151806004556006805460ff191690553480156200002257600080fd5b50604051620025173803806200251783398101604081905262000045916200013b565b6200005033620000eb565b600180556001600160a01b038116620000bf5760405162461bcd60e51b815260206004820152602760248201527f446576656c6f7065722077616c6c65742063616e6e6f74206265207a65726f206044820152666164647265737360c81b606482015260840160405180910390fd5b600680546001600160a01b0390921661010002610100600160a81b03199092169190911790556200016d565b600080546001600160a01b038381166001600160a01b0319831681178455604051919092169283917f8be0079c531659141344cd1fd0a4f28419497f9722a3daafe3b4186f6b6457e09190a35050565b6000602082840312156200014e57600080fd5b81516001600160a01b03811681146200016657600080fd5b9392505050565b61239a806200017d6000396000f3fe6080604052600436106101d85760003560e01c8063906de78b11610102578063ce98f53d11610095578063d9747fa311610064578063d9747fa314610531578063ed4127df14610339578063f020044f14610547578063f2fde38b1461056157600080fd5b8063ce98f53d146104d1578063d362bd2b146104f1578063d422d2d014610507578063d65ab5f21461051c57600080fd5b8063b4cea64a116100d1578063b4cea64a14610430578063b7d0628b14610445578063c034fe331461048f578063c1339217146104bc57600080fd5b8063906de78b146103ab578063939da325146103d8578063af434a6d146103ed578063b1d5603b1461040d57600080fd5b80636cbc2ded1161017a57806371bf439e1161014957806371bf439e146103395780637c5e27951461034e5780638b235f19146103685780638da5cb5b1461038d57600080fd5b80636cbc2ded146102d95780636cd56878146102ee57806371289ae21461030e578063715018a61461032457600080fd5b806321e960dc116101b657806321e960dc1461026a5780633c98c38e1461027f5780634d4ef3c2146102af5780635b0f1139146102c457600080fd5b80630252b995146101dd57806305887b5214610206578063185870f91461022d575b600080fd5b3480156101e957600080fd5b506101f360025481565b6040519081526020015b60405180910390f35b34801561021257600080fd5b5061021b600181565b60405160ff90911681526020016101fd565b34801561023957600080fd5b506006546102529061010090046001600160a01b031681565b6040516001600160a01b0390911681526020016101fd565b34801561027657600080fd5b506101f3610581565b34801561028b57600080fd5b5061029f61029a366004611d66565b6105cb565b6040516101fd9493929190611ddf565b3480156102bb57600080fd5b506101f3606e81565b6102d76102d2366004611e17565b610727565b005b3480156102e557600080fd5b506102d7610a89565b3480156102fa57600080fd5b506102d7610309366004611ea5565b610b90565b34801561031a57600080fd5b506101f360055481565b34801561033057600080fd5b506102d7610c26565b34801561034557600080fd5b5061021b602081565b34801561035a57600080fd5b506101f3655af3107a400081565b34801561037457600080fd5b5061037d610c3a565b60405190151581526020016101fd565b34801561039957600080fd5b506000546001600160a01b0316610252565b3480156103b757600080fd5b506101f36103c6366004611ea5565b60086020526000908152604090205481565b3480156103e457600080fd5b5061021b605481565b3480156103f957600080fd5b506102d7610408366004611ed5565b610cc0565b34801561041957600080fd5b50610422610ccd565b6040516101fd929190611f32565b34801561043c57600080fd5b5061021b600f81565b34801561045157600080fd5b506006546002546003546004546005546040805160ff909616151586526020860194909452928401919091526060830152608082015260a0016101fd565b34801561049b57600080fd5b506104af6104aa366004611ea5565b610ed9565b6040516101fd9190611fa4565b3480156104c857600080fd5b5061037d61105a565b3480156104dd57600080fd5b5061029f6104ec366004611d66565b611082565b3480156104fd57600080fd5b506101f360045481565b34801561051357600080fd5b506101f3606481565b34801561052857600080fd5b506102d7611148565b34801561053d57600080fd5b506101f360035481565b34801561055357600080fd5b5060065461037d9060ff1681565b34801561056d57600080fd5b506102d761057c366004611ea5565b6111f0565b60065460009060ff166105945750600090565b6000600354426105a49190612001565b905060045481106105b757600091505090565b806004546105c59190612001565b91505090565b600080606081602060ff87161080156105e75750602060ff8616105b6106385760405162461bcd60e51b815260206004820152601960248201527f436f6f7264696e61746573206f7574206f6620626f756e64730000000000000060448201526064015b60405180910390fd5b60ff8087166000908152600760209081526040808320938916835292905220805460018201546001600160a01b039091169061067a57655af3107a4000610680565b81600101545b8260020183600301548180546106959061201a565b80601f01602080910402602001604051908101604052809291908181526020018280546106c19061201a565b801561070e5780601f106106e35761010080835404028352916020019161070e565b820191906000526020600020905b8154815290600101906020018083116106f157829003601f168201915b5050505050915094509450945094505092959194509250565b61072f611266565b60065460ff166107765760405162461bcd60e51b815260206004820152601260248201527147616d65206973206e6f742061637469766560701b604482015260640161062f565b602060ff8516106107c95760405162461bcd60e51b815260206004820152601a60248201527f582d636f6f7264696e617465206f7574206f6620626f756e6473000000000000604482015260640161062f565b602060ff84161061081c5760405162461bcd60e51b815260206004820152601a60248201527f592d636f6f7264696e617465206f7574206f6620626f756e6473000000000000604482015260640161062f565b806108615760405162461bcd60e51b8152602060048201526015602482015274436f6c6f722063616e6e6f7420626520656d70747960581b604482015260640161062f565b60ff8085166000908152600760209081526040808320938716835292905220600254600382015410156108df5780546001600160a01b0319168155655af3107a4000600182015560408051808201909152600781526611a3232323232360c91b602082015260028201906108d590826120b5565b5060025460038201555b806001015434101561092a5760405162461bcd60e51b8152602060048201526014602482015273125b9cdd59999a58da595b9d081c185e5b595b9d60621b604482015260640161062f565b80546001600160a01b03163381036109845760405162461bcd60e51b815260206004820152601a60248201527f596f7520616c7265616479206f776e207468697320706978656c000000000000604482015260640161062f565b6001600160a01b038116156109bd576001600160a01b03811660009081526008602052604081208054916109b783612175565b91905055505b3360009081526008602052604081208054916109d88361218c565b909155505081546001600160a01b03191633178255600282016109fc8486836121a5565b504260038301556001820154606490610a1790606e90612266565b610a21919061227d565b6001830155610a3081346112bf565b42600381905560405133917f9e4743e110d149899a1c11fb0edea07ae65f4cca8f5cf909f3b4ab80a2d4243491610a70918a918a918a918a91349161229f565b60405180910390a25050610a8360018055565b50505050565b60065460ff16610ad05760405162461bcd60e51b815260206004820152601260248201527147616d65206973206e6f742061637469766560701b604482015260640161062f565b610ad861105a565b610b245760405162461bcd60e51b815260206004820152601860248201527f47616d652063616e6e6f7420626520656e646564207965740000000000000000604482015260640161062f565b6006805460ff191690556000610b38611503565b9050610b438161185b565b7fe785b815d6374b945ba141337a5ca73fabb4f42f6c2012a028c404f3ad1410464282600554604051610b78939291906122f3565b60405180910390a16000600555610b8d61119c565b50565b610b98611ca6565b6001600160a01b038116610bfe5760405162461bcd60e51b815260206004820152602760248201527f446576656c6f7065722077616c6c65742063616e6e6f74206265207a65726f206044820152666164647265737360c81b606482015260840161062f565b600680546001600160a01b0390921661010002610100600160a81b0319909216919091179055565b610c2e611ca6565b610c386000611d00565b565b6000610c4461105a565b15610cba576006805460ff191690556000610c5d611503565b9050610c688161185b565b7fe785b815d6374b945ba141337a5ca73fabb4f42f6c2012a028c404f3ad1410464282600554604051610c9d939291906122f3565b60405180910390a16000600555610cb261119c565b600191505090565b50600090565b610cc8611ca6565b600455565b6060806000610cdd602080612266565b90508067ffffffffffffffff811115610cf857610cf8612054565b604051908082528060200260200182016040528015610d21578160200160208202803683370190505b5092508067ffffffffffffffff811115610d3d57610d3d612054565b604051908082528060200260200182016040528015610d7057816020015b6060815260200190600190039081610d5b5790505b5091506000805b602060ff82161015610ed25760005b602060ff82161015610ebf5760ff8082166000908152600760209081526040808320938616835292905220805487516001600160a01b0390911690889086908110610dd357610dd361231c565b60200260200101906001600160a01b031690816001600160a01b031681525050806002018054610e029061201a565b80601f0160208091040260200160405190810160405280929190818152602001828054610e2e9061201a565b8015610e7b5780601f10610e5057610100808354040283529160200191610e7b565b820191906000526020600020905b815481529060010190602001808311610e5e57829003601f168201915b5050505050868581518110610e9257610e9261231c565b60200260200101819052508380610ea89061218c565b945050508080610eb790612332565b915050610d86565b5080610eca81612332565b915050610d77565b5050509091565b6001600160a01b038116600090815260086020526040812054606091610f00826002612266565b67ffffffffffffffff811115610f1857610f18612054565b604051908082528060200260200182016040528015610f41578160200160208202803683370190505b50905081600003610f53579392505050565b6000805b602060ff821610156110505760005b602060ff821610156110355760ff8083166000908152600760209081526040808320938516835292905220546001600160a01b03808916911603611023578184610fb1856002612266565b81518110610fc157610fc161231c565b60ff909216602092830291909101909101528084610fe0856002612266565b610feb906001612351565b81518110610ffb57610ffb61231c565b60ff90921660209283029190910190910152826110178161218c565b93505084831015611035575b8061102d81612332565b915050610f66565b5083821015611050578061104881612332565b915050610f57565b5090949350505050565b60065460009060ff16801561107d575060045460035461107a9042612001565b10155b905090565b60076020908152600092835260408084209091529082529020805460018201546002830180546001600160a01b039093169391926110bf9061201a565b80601f01602080910402602001604051908101604052809291908181526020018280546110eb9061201a565b80156111385780601f1061110d57610100808354040283529160200191611138565b820191906000526020600020905b81548152906001019060200180831161111b57829003601f168201915b5050505050908060030154905084565b611150611ca6565b60065460ff161561119c5760405162461bcd60e51b815260206004820152601660248201527547616d6520697320616c72656164792061637469766560501b604482015260640161062f565b6006805460ff1916600117905542600281905560038190556040517f50ad08f58a27f2851d7e3a1b3a6a46b290f2ce677e99642d30ff639721e77790916111e69190815260200190565b60405180910390a1565b6111f8611ca6565b6001600160a01b03811661125d5760405162461bcd60e51b815260206004820152602660248201527f4f776e61626c653a206e6577206f776e657220697320746865207a65726f206160448201526564647265737360d01b606482015260840161062f565b610b8d81611d00565b6002600154036112b85760405162461bcd60e51b815260206004820152601f60248201527f5265656e7472616e637947756172643a207265656e7472616e742063616c6c00604482015260640161062f565b6002600155565b60008060646112cf600f85612266565b6112d9919061227d565b9050600060646112ea600186612266565b6112f4919061227d565b90506001600160a01b038516156113ce576064611312605486612266565b61131c919061227d565b925082156113c9576000856001600160a01b03168460405160006040518083038185875af1925050503d8060008114611371576040519150601f19603f3d011682016040523d82523d6000602084013e611376565b606091505b50509050806113c75760405162461bcd60e51b815260206004820181905260248201527f5061796d656e7420746f2070726576696f7573206f776e6572206661696c6564604482015260640161062f565b505b6113f2565b60646113db605486612266565b6113e5919061227d565b6113ef9083612351565b91505b81600560008282546114049190612351565b909155505080156114b95760065460405160009161010090046001600160a01b03169083908381818185875af1925050503d8060008114611461576040519150601f19603f3d011682016040523d82523d6000602084013e611466565b606091505b50509050806114b75760405162461bcd60e51b815260206004820152601b60248201527f5061796d656e7420746f20646576656c6f706572206661696c65640000000000604482015260640161062f565b505b6000816114c68486612351565b6114d09190612351565b9050808511156114fb576114e48186612001565b600560008282546114f59190612351565b90915550505b505050505050565b60606000806000805b602060ff821610156115885760005b602060ff821610156115755760ff8083166000908152600760209081526040808320938516835292905220546001600160a01b031615611563578261155f8161218c565b9350505b8061156d81612332565b91505061151b565b508061158081612332565b91505061150c565b5060008167ffffffffffffffff8111156115a4576115a4612054565b6040519080825280602002602001820160405280156115cd578160200160208202803683370190505b5090506000805b602060ff821610156117515760005b602060ff8216101561173e5760ff8083166000908152600760209081526040808320938516835292905220546001600160a01b0316801561172b576000805b8581101561167757826001600160a01b03168782815181106116465761164661231c565b60200260200101516001600160a01b0316036116655760019150611677565b8061166f8161218c565b915050611622565b508061172957818686815181106116905761169061231c565b6001600160a01b0390921660209283029190910190910152846116b28161218c565b6001600160a01b0384166000908152600860205260409020549096508a101590506116fb576001600160a01b038216600090815260086020526040902054985060019750611729565b6001600160a01b03821660009081526008602052604090205489900361172957876117258161218c565b9850505b505b508061173681612332565b9150506115e3565b508061174981612332565b9150506115d4565b5060008467ffffffffffffffff81111561176d5761176d612054565b604051908082528060200260200182016040528015611796578160200160208202803683370190505b5090506000805b8381101561184e5787600860008784815181106117bc576117bc61231c565b60200260200101516001600160a01b03166001600160a01b03168152602001908152602001600020540361183c578481815181106117fc576117fc61231c565b60200260200101518383815181106118165761181661231c565b6001600160a01b0390921660209283029190910190910152816118388161218c565b9250505b806118468161218c565b91505061179d565b5090979650505050505050565b805115806118695750600554155b156118715750565b6000805b602060ff821610156118f15760005b602060ff821610156118de5760ff8083166000908152600760209081526040808320938516835292905220546001600160a01b0316156118cc57826118c88161218c565b9350505b806118d681612332565b915050611884565b50806118e981612332565b915050611875565b50806000036118fe575050565b60008167ffffffffffffffff81111561191957611919612054565b604051908082528060200260200182016040528015611942578160200160208202803683370190505b50905060008267ffffffffffffffff81111561196057611960612054565b604051908082528060200260200182016040528015611989578160200160208202803683370190505b50905060008060005b602060ff82161015611b2a5760005b602060ff82161015611b175760ff8083166000908152600760209081526040808320938516835292905220546001600160a01b03168015611b045760008860055460016119ee9190612266565b6119f8919061227d565b90508015611b025760008060005b88811015611a5e57846001600160a01b03168b8281518110611a2a57611a2a61231c565b60200260200101516001600160a01b031603611a4c5760019250809150611a5e565b80611a568161218c565b915050611a06565b508115611a945782898281518110611a7857611a7861231c565b60200260200101818151611a8c9190612351565b905250611af3565b838a8981518110611aa757611aa761231c565b60200260200101906001600160a01b031690816001600160a01b03168152505082898981518110611ada57611ada61231c565b602090810291909101015287611aef8161218c565b9850505b611afd8388612351565b965050505b505b5080611b0f81612332565b9150506119a1565b5080611b2281612332565b915050611992565b5060005b82811015611c78576000858281518110611b4a57611b4a61231c565b602002602001015190506000858381518110611b6857611b6861231c565b602002602001015190506000811115611c63576000826001600160a01b03168260405160006040518083038185875af1925050503d8060008114611bc8576040519150601f19603f3d011682016040523d82523d6000602084013e611bcd565b606091505b5050905080611c1e5760405162461bcd60e51b815260206004820152601960248201527f5072697a6520646973747269627574696f6e206661696c656400000000000000604482015260640161062f565b826001600160a01b03167fb8e091d87f82e56d22276c9a0088ea5d6068e355383dc08b2721b7b6cb10e84583604051611c5991815260200190565b60405180910390a2505b50508080611c709061218c565b915050611b2e565b50806005541115611c995780600554611c919190612001565b6005556114fb565b6000600555505050505050565b6000546001600160a01b03163314610c385760405162461bcd60e51b815260206004820181905260248201527f4f776e61626c653a2063616c6c6572206973206e6f7420746865206f776e6572604482015260640161062f565b600080546001600160a01b038381166001600160a01b0319831681178455604051919092169283917f8be0079c531659141344cd1fd0a4f28419497f9722a3daafe3b4186f6b6457e09190a35050565b803560ff81168114611d6157600080fd5b919050565b60008060408385031215611d7957600080fd5b611d8283611d50565b9150611d9060208401611d50565b90509250929050565b6000815180845260005b81811015611dbf57602081850181015186830182015201611da3565b506000602082860101526020601f19601f83011685010191505092915050565b60018060a01b0385168152836020820152608060408201526000611e066080830185611d99565b905082606083015295945050505050565b60008060008060608587031215611e2d57600080fd5b611e3685611d50565b9350611e4460208601611d50565b9250604085013567ffffffffffffffff80821115611e6157600080fd5b818701915087601f830112611e7557600080fd5b813581811115611e8457600080fd5b886020828501011115611e9657600080fd5b95989497505060200194505050565b600060208284031215611eb757600080fd5b81356001600160a01b0381168114611ece57600080fd5b9392505050565b600060208284031215611ee757600080fd5b5035919050565b600081518084526020808501945080840160005b83811015611f275781516001600160a01b031687529582019590820190600101611f02565b509495945050505050565b604081526000611f456040830185611eee565b6020838203818501528185518084528284019150828160051b85010183880160005b83811015611f9557601f19878403018552611f83838351611d99565b94860194925090850190600101611f67565b50909998505050505050505050565b6020808252825182820181905260009190848201906040850190845b81811015611fdf57835160ff1683529284019291840191600101611fc0565b50909695505050505050565b634e487b7160e01b600052601160045260246000fd5b8181038181111561201457612014611feb565b92915050565b600181811c9082168061202e57607f821691505b60208210810361204e57634e487b7160e01b600052602260045260246000fd5b50919050565b634e487b7160e01b600052604160045260246000fd5b601f8211156120b057600081815260208120601f850160051c810160208610156120915750805b601f850160051c820191505b818110156114fb5782815560010161209d565b505050565b815167ffffffffffffffff8111156120cf576120cf612054565b6120e3816120dd845461201a565b8461206a565b602080601f83116001811461211857600084156121005750858301515b600019600386901b1c1916600185901b1785556114fb565b600085815260208120601f198616915b8281101561214757888601518255948401946001909101908401612128565b50858210156121655787850151600019600388901b60f8161c191681555b5050505050600190811b01905550565b60008161218457612184611feb565b506000190190565b60006001820161219e5761219e611feb565b5060010190565b67ffffffffffffffff8311156121bd576121bd612054565b6121d1836121cb835461201a565b8361206a565b6000601f84116001811461220557600085156121ed5750838201355b600019600387901b1c1916600186901b17835561225f565b600083815260209020601f19861690835b828110156122365786850135825560209485019460019092019101612216565b50868210156122535760001960f88860031b161c19848701351681555b505060018560011b0183555b5050505050565b808202811582820484141761201457612014611feb565b60008261229a57634e487b7160e01b600052601260045260246000fd5b500490565b60ff8716815260ff8616602082015260a060408201528360a0820152838560c0830137600060c08583010152600060c0601f19601f8701168301019050836060830152826080830152979650505050505050565b83815260606020820152600061230c6060830185611eee565b9050826040830152949350505050565b634e487b7160e01b600052603260045260246000fd5b600060ff821660ff810361234857612348611feb565b60010192915050565b8082018082111561201457612014611feb56fea2646970667358221220c2eacaadb5aab369709b3cffc224dac18988387cc3e4a4d3e13f14d0e45a3ebb64736f6c63430008140033","opcodes":"PUSH1 0x80 PUSH1 0x40 MSTORE PUSH3 0x15180 PUSH1 0x4 SSTORE PUSH1 0x6 DUP1 SLOAD PUSH1 0xFF NOT AND SWAP1 SSTORE CALLVALUE DUP1 ISZERO PUSH3 0x22 JUMPI PUSH1 0x0 DUP1 REVERT JUMPDEST POP PUSH1 0x40 MLOAD PUSH3 0x2517 CODESIZE SUB DUP1 PUSH3 0x2517 DUP4 CODECOPY DUP2 ADD PUSH1 0x40 DUP2 SWAP1 MSTORE PUSH3 0x45 SWAP2 PUSH3 0x13B JUMP JUMPDEST PUSH3 0x50 CALLER PUSH3 0xEB JUMP JUMPDEST PUSH1 0x1 DUP1 SSTORE PUSH1 0x1 PUSH1 0x1 PUSH1 0xA0 SHL SUB DUP2 AND PUSH3 0xBF JUMPI PUSH1 0x40 MLOAD PUSH3 0x461BCD PUSH1 0xE5 SHL DUP2 MSTORE PUSH1 0x20 PUSH1 0x4 DUP3 ADD MSTORE PUSH1 0x27 PUSH1 0x24 DUP3 ADD MSTORE PUSH32 0x446576656C6F7065722077616C6C65742063616E6E6F74206265207A65726F20 PUSH1 0x44 DUP3 ADD MSTORE PUSH7 0x61646472657373 PUSH1 0xC8 SHL PUSH1 0x64 DUP3 ADD MSTORE PUSH1 0x84 ADD PUSH1 0x40 MLOAD DUP1 SWAP2 SUB SWAP1 REVERT JUMPDEST PUSH1 0x6 DUP1 SLOAD PUSH1 0x1 PUSH1 0x1 PUSH1 0xA0 SHL SUB SWAP1 SWAP3 AND PUSH2 0x100 MUL PUSH2 0x100 PUSH1 0x1 PUSH1 0xA8 SHL SUB NOT SWAP1 SWAP3 AND SWAP2 SWAP1 SWAP2 OR SWAP1 SSTORE PUSH3 0x16D JUMP JUMPDEST PUSH1 0x0 DUP1 SLOAD PUSH1 0x1 PUSH1 0x1 PUSH1 0xA0 SHL SUB DUP4 DUP2 AND PUSH1 0x1 PUSH1 0x1 PUSH1 0xA0 SHL SUB NOT DUP4 AND DUP2 OR DUP5 SSTORE PUSH1 0x40 MLOAD SWAP2 SWAP1 SWAP3 AND SWAP3 DUP4 SWAP2 PUSH32 0x8BE0079C531659141344CD1FD0A4F28419497F9722A3DAAFE3B4186F6B6457E0 SWAP2 SWAP1 LOG3 POP POP JUMP JUMPDEST PUSH1 0x0 PUSH1 0x20 DUP3 DUP5 SUB SLT ISZERO PUSH3 0x14E JUMPI PUSH1 0x0 DUP1 REVERT JUMPDEST DUP2 MLOAD PUSH1 0x1 PUSH1 0x1 PUSH1 0xA0 SHL SUB DUP2 AND DUP2 EQ PUSH3 0x166 JUMPI PUSH1 0x0 DUP1 REVERT JUMPDEST SWAP4 SWAP3 POP POP POP JUMP JUMPDEST PUSH2 0x239A DUP1 PUSH3 0x17D PUSH1 0x0 CODECOPY PUSH1 0x0 RETURN INVALID PUSH1 0x80 PUSH1 0x40 MSTORE PUSH1 0x4 CALLDATASIZE LT PUSH2 0x1D8 JUMPI PUSH1 0x0 CALLDATALOAD PUSH1 0xE0 SHR DUP1 PUSH4 0x906DE78B GT PUSH2 0x102 JUMPI DUP1 PUSH4 0xCE98F53D GT PUSH2 0x95 JUMPI DUP1 PUSH4 0xD9747FA3 GT PUSH2 0x64 JUMPI DUP1 PUSH4 0xD9747FA3 EQ PUSH2 0x531 JUMPI DUP1 PUSH4 0xED4127DF EQ PUSH2 0x339 JUMPI DUP1 PUSH4 0xF020044F EQ PUSH2 0x547 JUMPI DUP1 PUSH4 0xF2FDE38B EQ PUSH2 0x561 JUMPI PUSH1 0x0 DUP1 REVERT JUMPDEST DUP1 PUSH4 0xCE98F53D EQ PUSH2 0x4D1 JUMPI DUP1 PUSH4 0xD362BD2B EQ PUSH2 0x4F1 JUMPI DUP1 PUSH4 0xD422D2D0 EQ PUSH2 0x507 JUMPI DUP1 PUSH4 0xD65AB5F2 EQ PUSH2 0x51C JUMPI PUSH1 0x0 DUP1 REVERT JUMPDEST DUP1 PUSH4 0xB4CEA64A GT PUSH2 0xD1 JUMPI DUP1 PUSH4 0xB4CEA64A EQ PUSH2 0x430 JUMPI DUP1 PUSH4 0xB7D0628B EQ PUSH2 0x445 JUMPI DUP1 PUSH4 0xC034FE33 EQ PUSH2 0x48F JUMPI DUP1 PUSH4 0xC1339217 EQ PUSH2 0x4BC JUMPI PUSH1 0x0 DUP1 REVERT JUMPDEST DUP1 PUSH4 0x906DE78B EQ PUSH2 0x3AB JUMPI DUP1 PUSH4 0x939DA325 EQ PUSH2 0x3D8 JUMPI DUP1 PUSH4 0xAF434A6D EQ PUSH2 0x3ED JUMPI DUP1 PUSH4 0xB1D5603B EQ PUSH2 0x40D JUMPI PUSH1 0x0 DUP1 REVERT JUMPDEST DUP1 PUSH4 0x6CBC2DED GT PUSH2 0x17A JUMPI DUP1 PUSH4 0x71BF439E GT PUSH2 0x149 JUMPI DUP1 PUSH4 0x71BF439E EQ PUSH2 0x339 JUMPI DUP1 PUSH4 0x7C5E2795 EQ PUSH2 0x34E JUMPI DUP1 PUSH4 0x8B235F19 EQ PUSH2 0x368 JUMPI DUP1 PUSH4 0x8DA5CB5B EQ PUSH2 0x38D JUMPI PUSH1 0x0 DUP1 REVERT JUMPDEST DUP1 PUSH4 0x6CBC2DED EQ PUSH2 0x2D9 JUMPI DUP1 PUSH4 0x6CD56878 EQ PUSH2 0x2EE JUMPI DUP1 PUSH4 0x71289AE2 EQ PUSH2 0x30E JUMPI DUP1 PUSH4 0x715018A6 EQ PUSH2 0x324 JUMPI PUSH1 0x0 DUP1 REVERT JUMPDEST DUP1 PUSH4 0x21E960DC GT PUSH2 0x1B6 JUMPI DUP1 PUSH4 0x21E960DC EQ PUSH2 0x26A JUMPI DUP1 PUSH4 0x3C98C38E EQ PUSH2 0x27F JUMPI DUP1 PUSH4 0x4D4EF3C2 EQ PUSH2 0x2AF JUMPI DUP1 PUSH4 0x5B0F1139 EQ PUSH2 0x2C4 JUMPI PUSH1 0x0 DUP1 REVERT JUMPDEST DUP1 PUSH4 0x252B995 EQ PUSH2 0x1DD JUMPI DUP1 PUSH4 0x5887B52 EQ PUSH2 0x206 JUMPI DUP1 PUSH4 0x185870F9 EQ PUSH2 0x22D JUMPI JUMPDEST PUSH1 0x0 DUP1 REVERT JUMPDEST CALLVALUE DUP1 ISZERO PUSH2 0x1E9 JUMPI PUSH1 0x0 DUP1 REVERT JUMPDEST POP PUSH2 0x1F3 PUSH1 0x2 SLOAD DUP2 JUMP JUMPDEST PUSH1 0x40 MLOAD SWAP1 DUP2 MSTORE PUSH1 0x20 ADD JUMPDEST PUSH1 0x40 MLOAD DUP1 SWAP2 SUB SWAP1 RETURN JUMPDEST CALLVALUE DUP1 ISZERO PUSH2 0x212 JUMPI PUSH1 0x0 DUP1 REVERT JUMPDEST POP PUSH2 0x21B PUSH1 0x1 DUP2 JUMP JUMPDEST PUSH1 0x40 MLOAD PUSH1 0xFF SWAP1 SWAP2 AND DUP2 MSTORE PUSH1 0x20 ADD PUSH2 0x1FD JUMP JUMPDEST CALLVALUE DUP1 ISZERO PUSH2 0x239 JUMPI PUSH1 0x0 DUP1 REVERT JUMPDEST POP PUSH1 0x6 SLOAD PUSH2 0x252 SWAP1 PUSH2 0x100 SWAP1 DIV PUSH1 0x1 PUSH1 0x1 PUSH1 0xA0 SHL SUB AND DUP2 JUMP JUMPDEST PUSH1 0x40 MLOAD PUSH1 0x1 PUSH1 0x1 PUSH1 0xA0 SHL SUB SWAP1 SWAP2 AND DUP2 MSTORE PUSH1 0x20 ADD PUSH2 0x1FD JUMP JUMPDEST CALLVALUE DUP1 ISZERO PUSH2 0x276 JUMPI PUSH1 0x0 DUP1 REVERT JUMPDEST POP PUSH2 0x1F3 PUSH2 0x581 JUMP JUMPDEST CALLVALUE DUP1 ISZERO PUSH2 0x28B JUMPI PUSH1 0x0 DUP1 REVERT JUMPDEST POP PUSH2 0x29F PUSH2 0x29A CALLDATASIZE PUSH1 0x4 PUSH2 0x1D66 JUMP JUMPDEST PUSH2 0x5CB JUMP JUMPDEST PUSH1 0x40 MLOAD PUSH2 0x1FD SWAP5 SWAP4 SWAP3 SWAP2 SWAP1 PUSH2 0x1DDF JUMP JUMPDEST CALLVALUE DUP1 ISZERO PUSH2 0x2BB JUMPI PUSH1 0x0 DUP1 REVERT JUMPDEST POP PUSH2 0x1F3 PUSH1 0x6E DUP2 JUMP JUMPDEST PUSH2 0x2D7 PUSH2 0x2D2 CALLDATASIZE PUSH1 0x4 PUSH2 0x1E17 JUMP JUMPDEST PUSH2 0x727 JUMP JUMPDEST STOP JUMPDEST CALLVALUE DUP1 ISZERO PUSH2 0x2E5 JUMPI PUSH1 0x0 DUP1 REVERT JUMPDEST POP PUSH2 0x2D7 PUSH2 0xA89 JUMP JUMPDEST CALLVALUE DUP1 ISZERO PUSH2 0x2FA JUMPI PUSH1 0x0 DUP1 REVERT JUMPDEST POP PUSH2 0x2D7 PUSH2 0x309 CALLDATASIZE PUSH1 0x4 PUSH2 0x1EA5 JUMP JUMPDEST PUSH2 0xB90 JUMP JUMPDEST CALLVALUE DUP1 ISZERO PUSH2 0x31A JUMPI PUSH1 0x0 DUP1 REVERT JUMPDEST POP PUSH2 0x1F3 PUSH1 0x5 SLOAD DUP2 JUMP JUMPDEST CALLVALUE DUP1 ISZERO PUSH2 0x330 JUMPI PUSH1 0x0 DUP1 REVERT JUMPDEST POP PUSH2 0x2D7 PUSH2 0xC26 JUMP JUMPDEST CALLVALUE DUP1 ISZERO PUSH2 0x345 JUMPI PUSH1 0x0 DUP1 REVERT JUMPDEST POP PUSH2 0x21B PUSH1 0x20 DUP2 JUMP JUMPDEST CALLVALUE DUP1 ISZERO PUSH2 0x35A JUMPI PUSH1 0x0 DUP1 REVERT JUMPDEST POP PUSH2 0x1F3 PUSH6 0x5AF3107A4000 DUP2 JUMP JUMPDEST CALLVALUE DUP1 ISZERO PUSH2 0x374 JUMPI PUSH1 0x0 DUP1 REVERT JUMPDEST POP PUSH2 0x37D PUSH2 0xC3A JUMP JUMPDEST PUSH1 0x40 MLOAD SWAP1 ISZERO ISZERO DUP2 MSTORE PUSH1 0x20 ADD PUSH2 0x1FD JUMP JUMPDEST CALLVALUE DUP1 ISZERO PUSH2 0x399 JUMPI PUSH1 0x0 DUP1 REVERT JUMPDEST POP PUSH1 0x0 SLOAD PUSH1 0x1 PUSH1 0x1 PUSH1 0xA0 SHL SUB AND PUSH2 0x252 JUMP JUMPDEST CALLVALUE DUP1 ISZERO PUSH2 0x3B7 JUMPI PUSH1 0x0 DUP1 REVERT JUMPDEST POP PUSH2 0x1F3 PUSH2 0x3C6 CALLDATASIZE PUSH1 0x4 PUSH2 0x1EA5 JUMP JUMPDEST PUSH1 0x8 PUSH1 0x20 MSTORE PUSH1 0x0 SWAP1 DUP2 MSTORE PUSH1 0x40 SWAP1 KECCAK256 SLOAD DUP2 JUMP JUMPDEST CALLVALUE DUP1 ISZERO PUSH2 0x3E4 JUMPI PUSH1 0x0 DUP1 REVERT JUMPDEST POP PUSH2 0x21B PUSH1 0x54 DUP2 JUMP JUMPDEST CALLVALUE DUP1 ISZERO PUSH2 0x3F9 JUMPI PUSH1 0x0 DUP1 REVERT JUMPDEST POP PUSH2 0x2D7 PUSH2 0x408 CALLDATASIZE PUSH1 0x4 PUSH2 0x1ED5 JUMP JUMPDEST PUSH2 0xCC0 JUMP JUMPDEST CALLVALUE DUP1 ISZERO PUSH2 0x419 JUMPI PUSH1 0x0 DUP1 REVERT JUMPDEST POP PUSH2 0x422 PUSH2 0xCCD JUMP JUMPDEST PUSH1 0x40 MLOAD PUSH2 0x1FD SWAP3 SWAP2 SWAP1 PUSH2 0x1F32 JUMP JUMPDEST CALLVALUE DUP1 ISZERO PUSH2 0x43C JUMPI PUSH1 0x0 DUP1 REVERT JUMPDEST POP PUSH2 0x21B PUSH1 0xF DUP2 JUMP JUMPDEST CALLVALUE DUP1 ISZERO PUSH2 0x451 JUMPI PUSH1 0x0 DUP1 REVERT JUMPDEST POP PUSH1 0x6 SLOAD PUSH1 0x2 SLOAD PUSH1 0x3 SLOAD PUSH1 0x4 SLOAD PUSH1 0x5 SLOAD PUSH1 0x40 DUP1 MLOAD PUSH1 0xFF SWAP1 SWAP7 AND ISZERO ISZERO DUP7 MSTORE PUSH1 0x20 DUP7 ADD SWAP5 SWAP1 SWAP5 MSTORE SWAP3 DUP5 ADD SWAP2 SWAP1 SWAP2 MSTORE PUSH1 0x60 DUP4 ADD MSTORE PUSH1 0x80 DUP3 ADD MSTORE PUSH1 0xA0 ADD PUSH2 0x1FD JUMP JUMPDEST CALLVALUE DUP1 ISZERO PUSH2 0x49B JUMPI PUSH1 0x0 DUP1 REVERT JUMPDEST POP PUSH2 0x4AF PUSH2 0x4AA CALLDATASIZE PUSH1 0x4 PUSH2 0x1EA5 JUMP JUMPDEST PUSH2 0xED9 JUMP JUMPDEST PUSH1 0x40 MLOAD PUSH2 0x1FD SWAP2 SWAP1 PUSH2 0x1FA4 JUMP JUMPDEST CALLVALUE DUP1 ISZERO PUSH2 0x4C8 JUMPI PUSH1 0x0 DUP1 REVERT JUMPDEST POP PUSH2 0x37D PUSH2 0x105A JUMP JUMPDEST CALLVALUE DUP1 ISZERO PUSH2 0x4DD JUMPI PUSH1 0x0 DUP1 REVERT JUMPDEST POP PUSH2 0x29F PUSH2 0x4EC CALLDATASIZE PUSH1 0x4 PUSH2 0x1D66 JUMP JUMPDEST PUSH2 0x1082 JUMP JUMPDEST CALLVALUE DUP1 ISZERO PUSH2 0x4FD JUMPI PUSH1 0x0 DUP1 REVERT JUMPDEST POP PUSH2 0x1F3 PUSH1 0x4 SLOAD DUP2 JUMP JUMPDEST CALLVALUE DUP1 ISZERO PUSH2 0x513 JUMPI PUSH1 0x0 DUP1 REVERT JUMPDEST POP PUSH2 0x1F3 PUSH1 0x64 DUP2 JUMP JUMPDEST CALLVALUE DUP1 ISZERO PUSH2 0x528 JUMPI PUSH1 0x0 DUP1 REVERT JUMPDEST POP PUSH2 0x2D7 PUSH2 0x1148 JUMP JUMPDEST CALLVALUE DUP1 ISZERO PUSH2 0x53D JUMPI PUSH1 0x0 DUP1 REVERT JUMPDEST POP PUSH2 0x1F3 PUSH1 0x3 SLOAD DUP2 JUMP JUMPDEST CALLVALUE DUP1 ISZERO PUSH2 0x553 JUMPI PUSH1 0x0 DUP1 REVERT JUMPDEST POP PUSH1 0x6 SLOAD PUSH2 0x37D SWAP1 PUSH1 0xFF AND DUP2 JUMP JUMPDEST CALLVALUE DUP1 ISZERO PUSH2 0x56D JUMPI PUSH1 0x0 DUP1 REVERT JUMPDEST POP PUSH2 0x2D7 PUSH2 0x57C CALLDATASIZE PUSH1 0x4 PUSH2 0x1EA5 JUMP JUMPDEST PUSH2 0x11F0 JUMP JUMPDEST PUSH1 0x6 SLOAD PUSH1 0x0 SWAP1 PUSH1 0xFF AND PUSH2 0x594 JUMPI POP PUSH1 0x0 SWAP1 JUMP JUMPDEST PUSH1 0x0 PUSH1 0x3 SLOAD TIMESTAMP PUSH2 0x5A4 SWAP2 SWAP1 PUSH2 0x2001 JUMP JUMPDEST SWAP1 POP PUSH1 0x4 SLOAD DUP2 LT PUSH2 0x5B7 JUMPI PUSH1 0x0 SWAP2 POP POP SWAP1 JUMP JUMPDEST DUP1 PUSH1 0x4 SLOAD PUSH2 0x5C5 SWAP2 SWAP1 PUSH2 0x2001 JUMP JUMPDEST SWAP2 POP POP SWAP1 JUMP JUMPDEST PUSH1 0x0 DUP1 PUSH1 0x60 DUP2 PUSH1 0x20 PUSH1 0xFF DUP8 AND LT DUP1 ISZERO PUSH2 0x5E7 JUMPI POP PUSH1 0x20 PUSH1 0xFF DUP7 AND LT JUMPDEST PUSH2 0x638 JUMPI PUSH1 0x40 MLOAD PUSH3 0x461BCD PUSH1 0xE5 SHL DUP2 MSTORE PUSH1 0x20 PUSH1 0x4 DUP3 ADD MSTORE PUSH1 0x19 PUSH1 0x24 DUP3 ADD MSTORE PUSH32 0x436F6F7264696E61746573206F7574206F6620626F756E647300000000000000 PUSH1 0x44 DUP3 ADD MSTORE PUSH1 0x64 ADD JUMPDEST PUSH1 0x40 MLOAD DUP1 SWAP2 SUB SWAP1 REVERT JUMPDEST PUSH1 0xFF DUP1 DUP8 AND PUSH1 0x0 SWAP1 DUP2 MSTORE PUSH1 0x7 PUSH1 0x20 SWAP1 DUP2 MSTORE PUSH1 0x40 DUP1 DUP4 KECCAK256 SWAP4 DUP10 AND DUP4 MSTORE SWAP3 SWAP1 MSTORE KECCAK256 DUP1 SLOAD PUSH1 0x1 DUP3 ADD SLOAD PUSH1 0x1 PUSH1 0x1 PUSH1 0xA0 SHL SUB SWAP1 SWAP2 AND SWAP1 PUSH2 0x67A JUMPI PUSH6 0x5AF3107A4000 PUSH2 0x680 JUMP JUMPDEST DUP2 PUSH1 0x1 ADD SLOAD JUMPDEST DUP3 PUSH1 0x2 ADD DUP4 PUSH1 0x3 ADD SLOAD DUP2 DUP1 SLOAD PUSH2 0x695 SWAP1 PUSH2 0x201A JUMP JUMPDEST DUP1 PUSH1 0x1F ADD PUSH1 0x20 DUP1 SWAP2 DIV MUL PUSH1 0x20 ADD PUSH1 0x40 MLOAD SWAP1 DUP2 ADD PUSH1 0x40 MSTORE DUP1 SWAP3 SWAP2 SWAP1 DUP2 DUP2 MSTORE PUSH1 0x20 ADD DUP3 DUP1 SLOAD PUSH2 0x6C1 SWAP1 PUSH2 0x201A JUMP JUMPDEST DUP1 ISZERO PUSH2 0x70E JUMPI DUP1 PUSH1 0x1F LT PUSH2 0x6E3 JUMPI PUSH2 0x100 DUP1 DUP4 SLOAD DIV MUL DUP4 MSTORE SWAP2 PUSH1 0x20 ADD SWAP2 PUSH2 0x70E JUMP JUMPDEST DUP3 ADD SWAP2 SWAP1 PUSH1 0x0 MSTORE PUSH1 0x20 PUSH1 0x0 KECCAK256 SWAP1 JUMPDEST DUP2 SLOAD DUP2 MSTORE SWAP1 PUSH1 0x1 ADD SWAP1 PUSH1 0x20 ADD DUP1 DUP4 GT PUSH2 0x6F1 JUMPI DUP3 SWAP1 SUB PUSH1 0x1F AND DUP3 ADD SWAP2 JUMPDEST POP POP POP POP POP SWAP2 POP SWAP5 POP SWAP5 POP SWAP5 POP SWAP5 POP POP SWAP3 SWAP6 SWAP2 SWAP5 POP SWAP3 POP JUMP JUMPDEST PUSH2 0x72F PUSH2 0x1266 JUMP JUMPDEST PUSH1 0x6 SLOAD PUSH1 0xFF AND PUSH2 0x776 JUMPI PUSH1 0x40 MLOAD PUSH3 0x461BCD PUSH1 0xE5 SHL DUP2 MSTORE PUSH1 0x20 PUSH1 0x4 DUP3 ADD MSTORE PUSH1 0x12 PUSH1 0x24 DUP3 ADD MSTORE PUSH18 0x47616D65206973206E6F7420616374697665 PUSH1 0x70 SHL PUSH1 0x44 DUP3 ADD MSTORE PUSH1 0x64 ADD PUSH2 0x62F JUMP JUMPDEST PUSH1 0x20 PUSH1 0xFF DUP6 AND LT PUSH2 0x7C9 JUMPI PUSH1 0x40 MLOAD PUSH3 0x461BCD PUSH1 0xE5 SHL DUP2 MSTORE PUSH1 0x20 PUSH1 0x4 DUP3 ADD MSTORE PUSH1 0x1A PUSH1 0x24 DUP3 ADD MSTORE PUSH32 0x582D636F6F7264696E617465206F7574206F6620626F756E6473000000000000 PUSH1 0x44 DUP3 ADD MSTORE PUSH1 0x64 ADD PUSH2 0x62F JUMP JUMPDEST PUSH1 0x20 PUSH1 0xFF DUP5 AND LT PUSH2 0x81C JUMPI PUSH1 0x40 MLOAD PUSH3 0x461BCD PUSH1 0xE5 SHL DUP2 MSTORE PUSH1 0x20 PUSH1 0x4 DUP3 ADD MSTORE PUSH1 0x1A PUSH1 0x24 DUP3 ADD MSTORE PUSH32 0x592D636F6F7264696E617465206F7574206F6620626F756E6473000000000000 PUSH1 0x44 DUP3 ADD MSTORE PUSH1 0x64 ADD PUSH2 0x62F JUMP JUMPDEST DUP1 PUSH2 0x861 JUMPI PUSH1 0x40 MLOAD PUSH3 0x461BCD PUSH1 0xE5 SHL DUP2 MSTORE PUSH1 0x20 PUSH1 0x4 DUP3 ADD MSTORE PUSH1 0x15 PUSH1 0x24 DUP3 ADD MSTORE PUSH21 0x436F6C6F722063616E6E6F7420626520656D707479 PUSH1 0x58 SHL PUSH1 0x44 DUP3 ADD MSTORE PUSH1 0x64 ADD PUSH2 0x62F JUMP JUMPDEST PUSH1 0xFF DUP1 DUP6 AND PUSH1 0x0 SWAP1 DUP2 MSTORE PUSH1 0x7 PUSH1 0x20 SWAP1 DUP2 MSTORE PUSH1 0x40 DUP1 DUP4 KECCAK256 SWAP4 DUP8 AND DUP4 MSTORE SWAP3 SWAP1 MSTORE KECCAK256 PUSH1 0x2 SLOAD PUSH1 0x3 DUP3 ADD SLOAD LT ISZERO PUSH2 0x8DF JUMPI DUP1 SLOAD PUSH1 0x1 PUSH1 0x1 PUSH1 0xA0 SHL SUB NOT AND DUP2 SSTORE PUSH6 0x5AF3107A4000 PUSH1 0x1 DUP3 ADD SSTORE PUSH1 0x40 DUP1 MLOAD DUP1 DUP3 ADD SWAP1 SWAP2 MSTORE PUSH1 0x7 DUP2 MSTORE PUSH7 0x11A32323232323 PUSH1 0xC9 SHL PUSH1 0x20 DUP3 ADD MSTORE PUSH1 0x2 DUP3 ADD SWAP1 PUSH2 0x8D5 SWAP1 DUP3 PUSH2 0x20B5 JUMP JUMPDEST POP PUSH1 0x2 SLOAD PUSH1 0x3 DUP3 ADD SSTORE JUMPDEST DUP1 PUSH1 0x1 ADD SLOAD CALLVALUE LT ISZERO PUSH2 0x92A JUMPI PUSH1 0x40 MLOAD PUSH3 0x461BCD PUSH1 0xE5 SHL DUP2 MSTORE PUSH1 0x20 PUSH1 0x4 DUP3 ADD MSTORE PUSH1 0x14 PUSH1 0x24 DUP3 ADD MSTORE PUSH20 0x125B9CDD59999A58DA595B9D081C185E5B595B9D PUSH1 0x62 SHL PUSH1 0x44 DUP3 ADD MSTORE PUSH1 0x64 ADD PUSH2 0x62F JUMP JUMPDEST DUP1 SLOAD PUSH1 0x1 PUSH1 0x1 PUSH1 0xA0 SHL SUB AND CALLER DUP2 SUB PUSH2 0x984 JUMPI PUSH1 0x40 MLOAD PUSH3 0x461BCD PUSH1 0xE5 SHL DUP2 MSTORE PUSH1 0x20 PUSH1 0x4 DUP3 ADD MSTORE PUSH1 0x1A PUSH1 0x24 DUP3 ADD MSTORE PUSH32 0x596F7520616C7265616479206F776E207468697320706978656C000000000000 PUSH1 0x44 DUP3 ADD MSTORE PUSH1 0x64 ADD PUSH2 0x62F JUMP JUMPDEST PUSH1 0x1 PUSH1 0x1 PUSH1 0xA0 SHL SUB DUP2 AND ISZERO PUSH2 0x9BD JUMPI PUSH1 0x1 PUSH1 0x1 PUSH1 0xA0 SHL SUB DUP2 AND PUSH1 0x0 SWAP1 DUP2 MSTORE PUSH1 0x8 PUSH1 0x20 MSTORE PUSH1 0x40 DUP2 KECCAK256 DUP1 SLOAD SWAP2 PUSH2 0x9B7 DUP4 PUSH2 0x2175 JUMP JUMPDEST SWAP2 SWAP1 POP SSTORE POP JUMPDEST CALLER PUSH1 0x0 SWAP1 DUP2 MSTORE PUSH1 0x8 PUSH1 0x20 MSTORE PUSH1 0x40 DUP2 KECCAK256 DUP1 SLOAD SWAP2 PUSH2 0x9D8 DUP4 PUSH2 0x218C JUMP JUMPDEST SWAP1 SWAP2 SSTORE POP POP DUP2 SLOAD PUSH1 0x1 PUSH1 0x1 PUSH1 0xA0 SHL SUB NOT AND CALLER OR DUP3 SSTORE PUSH1 0x2 DUP3 ADD PUSH2 0x9FC DUP5 DUP7 DUP4 PUSH2 0x21A5 JUMP JUMPDEST POP TIMESTAMP PUSH1 0x3 DUP4 ADD SSTORE PUSH1 0x1 DUP3 ADD SLOAD PUSH1 0x64 SWAP1 PUSH2 0xA17 SWAP1 PUSH1 0x6E SWAP1 PUSH2 0x2266 JUMP JUMPDEST PUSH2 0xA21 SWAP2 SWAP1 PUSH2 0x227D JUMP JUMPDEST PUSH1 0x1 DUP4 ADD SSTORE PUSH2 0xA30 DUP2 CALLVALUE PUSH2 0x12BF JUMP JUMPDEST TIMESTAMP PUSH1 0x3 DUP2 SWAP1 SSTORE PUSH1 0x40 MLOAD CALLER SWAP2 PUSH32 0x9E4743E110D149899A1C11FB0EDEA07AE65F4CCA8F5CF909F3B4AB80A2D42434 SWAP2 PUSH2 0xA70 SWAP2 DUP11 SWAP2 DUP11 SWAP2 DUP11 SWAP2 DUP11 SWAP2 CALLVALUE SWAP2 PUSH2 0x229F JUMP JUMPDEST PUSH1 0x40 MLOAD DUP1 SWAP2 SUB SWAP1 LOG2 POP POP PUSH2 0xA83 PUSH1 0x1 DUP1 SSTORE JUMP JUMPDEST POP POP POP POP JUMP JUMPDEST PUSH1 0x6 SLOAD PUSH1 0xFF AND PUSH2 0xAD0 JUMPI PUSH1 0x40 MLOAD PUSH3 0x461BCD PUSH1 0xE5 SHL DUP2 MSTORE PUSH1 0x20 PUSH1 0x4 DUP3 ADD MSTORE PUSH1 0x12 PUSH1 0x24 DUP3 ADD MSTORE PUSH18 0x47616D65206973206E6F7420616374697665 PUSH1 0x70 SHL PUSH1 0x44 DUP3 ADD MSTORE PUSH1 0x64 ADD PUSH2 0x62F JUMP JUMPDEST PUSH2 0xAD8 PUSH2 0x105A JUMP JUMPDEST PUSH2 0xB24 JUMPI PUSH1 0x40 MLOAD PUSH3 0x461BCD PUSH1 0xE5 SHL DUP2 MSTORE PUSH1 0x20 PUSH1 0x4 DUP3 ADD MSTORE PUSH1 0x18 PUSH1 0x24 DUP3 ADD MSTORE PUSH32 0x47616D652063616E6E6F7420626520656E646564207965740000000000000000 PUSH1 0x44 DUP3 ADD MSTORE PUSH1 0x64 ADD PUSH2 0x62F JUMP JUMPDEST PUSH1 0x6 DUP1 SLOAD PUSH1 0xFF NOT AND SWAP1 SSTORE PUSH1 0x0 PUSH2 0xB38 PUSH2 0x1503 JUMP JUMPDEST SWAP1 POP PUSH2 0xB43 DUP2 PUSH2 0x185B JUMP JUMPDEST PUSH32 0xE785B815D6374B945BA141337A5CA73FABB4F42F6C2012A028C404F3AD141046 TIMESTAMP DUP3 PUSH1 0x5 SLOAD PUSH1 0x40 MLOAD PUSH2 0xB78 SWAP4 SWAP3 SWAP2 SWAP1 PUSH2 0x22F3 JUMP JUMPDEST PUSH1 0x40 MLOAD DUP1 SWAP2 SUB SWAP1 LOG1 PUSH1 0x0 PUSH1 0x5 SSTORE PUSH2 0xB8D PUSH2 0x119C JUMP JUMPDEST POP JUMP JUMPDEST PUSH2 0xB98 PUSH2 0x1CA6 JUMP JUMPDEST PUSH1 0x1 PUSH1 0x1 PUSH1 0xA0 SHL SUB DUP2 AND PUSH2 0xBFE JUMPI PUSH1 0x40 MLOAD PUSH3 0x461BCD PUSH1 0xE5 SHL DUP2 MSTORE PUSH1 0x20 PUSH1 0x4 DUP3 ADD MSTORE PUSH1 0x27 PUSH1 0x24 DUP3 ADD MSTORE PUSH32 0x446576656C6F7065722077616C6C65742063616E6E6F74206265207A65726F20 PUSH1 0x44 DUP3 ADD MSTORE PUSH7 0x61646472657373 PUSH1 0xC8 SHL PUSH1 0x64 DUP3 ADD MSTORE PUSH1 0x84 ADD PUSH2 0x62F JUMP JUMPDEST PUSH1 0x6 DUP1 SLOAD PUSH1 0x1 PUSH1 0x1 PUSH1 0xA0 SHL SUB SWAP1 SWAP3 AND PUSH2 0x100 MUL PUSH2 0x100 PUSH1 0x1 PUSH1 0xA8 SHL SUB NOT SWAP1 SWAP3 AND SWAP2 SWAP1 SWAP2 OR SWAP1 SSTORE JUMP JUMPDEST PUSH2 0xC2E PUSH2 0x1CA6 JUMP JUMPDEST PUSH2 0xC38 PUSH1 0x0 PUSH2 0x1D00 JUMP JUMPDEST JUMP JUMPDEST PUSH1 0x0 PUSH2 0xC44 PUSH2 0x105A JUMP JUMPDEST ISZERO PUSH2 0xCBA JUMPI PUSH1 0x6 DUP1 SLOAD PUSH1 0xFF NOT AND SWAP1 SSTORE PUSH1 0x0 PUSH2 0xC5D PUSH2 0x1503 JUMP JUMPDEST SWAP1 POP PUSH2 0xC68 DUP2 PUSH2 0x185B JUMP JUMPDEST PUSH32 0xE785B815D6374B945BA141337A5CA73FABB4F42F6C2012A028C404F3AD141046 TIMESTAMP DUP3 PUSH1 0x5 SLOAD PUSH1 0x40 MLOAD PUSH2 0xC9D SWAP4 SWAP3 SWAP2 SWAP1 PUSH2 0x22F3 JUMP JUMPDEST PUSH1 0x40 MLOAD DUP1 SWAP2 SUB SWAP1 LOG1 PUSH1 0x0 PUSH1 0x5 SSTORE PUSH2 0xCB2 PUSH2 0x119C JUMP JUMPDEST PUSH1 0x1 SWAP2 POP POP SWAP1 JUMP JUMPDEST POP PUSH1 0x0 SWAP1 JUMP JUMPDEST PUSH2 0xCC8 PUSH2 0x1CA6 JUMP JUMPDEST PUSH1 0x4 SSTORE JUMP JUMPDEST PUSH1 0x60 DUP1 PUSH1 0x0 PUSH2 0xCDD PUSH1 0x20 DUP1 PUSH2 0x2266 JUMP JUMPDEST SWAP1 POP DUP1 PUSH8 0xFFFFFFFFFFFFFFFF DUP2 GT ISZERO PUSH2 0xCF8 JUMPI PUSH2 0xCF8 PUSH2 0x2054 JUMP JUMPDEST PUSH1 0x40 MLOAD SWAP1 DUP1 DUP3 MSTORE DUP1 PUSH1 0x20 MUL PUSH1 0x20 ADD DUP3 ADD PUSH1 0x40 MSTORE DUP1 ISZERO PUSH2 0xD21 JUMPI DUP2 PUSH1 0x20 ADD PUSH1 0x20 DUP3 MUL DUP1 CALLDATASIZE DUP4 CALLDATACOPY ADD SWAP1 POP JUMPDEST POP SWAP3 POP DUP1 PUSH8 0xFFFFFFFFFFFFFFFF DUP2 GT ISZERO PUSH2 0xD3D JUMPI PUSH2 0xD3D PUSH2 0x2054 JUMP JUMPDEST PUSH1 0x40 MLOAD SWAP1 DUP1 DUP3 MSTORE DUP1 PUSH1 0x20 MUL PUSH1 0x20 ADD DUP3 ADD PUSH1 0x40 MSTORE DUP1 ISZERO PUSH2 0xD70 JUMPI DUP2 PUSH1 0x20 ADD JUMPDEST PUSH1 0x60 DUP2 MSTORE PUSH1 0x20 ADD SWAP1 PUSH1 0x1 SWAP1 SUB SWAP1 DUP2 PUSH2 0xD5B JUMPI SWAP1 POP JUMPDEST POP SWAP2 POP PUSH1 0x0 DUP1 JUMPDEST PUSH1 0x20 PUSH1 0xFF DUP3 AND LT ISZERO PUSH2 0xED2 JUMPI PUSH1 0x0 JUMPDEST PUSH1 0x20 PUSH1 0xFF DUP3 AND LT ISZERO PUSH2 0xEBF JUMPI PUSH1 0xFF DUP1 DUP3 AND PUSH1 0x0 SWAP1 DUP2 MSTORE PUSH1 0x7 PUSH1 0x20 SWAP1 DUP2 MSTORE PUSH1 0x40 DUP1 DUP4 KECCAK256 SWAP4 DUP7 AND DUP4 MSTORE SWAP3 SWAP1 MSTORE KECCAK256 DUP1 SLOAD DUP8 MLOAD PUSH1 0x1 PUSH1 0x1 PUSH1 0xA0 SHL SUB SWAP1 SWAP2 AND SWAP1 DUP9 SWAP1 DUP7 SWAP1 DUP2 LT PUSH2 0xDD3 JUMPI PUSH2 0xDD3 PUSH2 0x231C JUMP JUMPDEST PUSH1 0x20 MUL PUSH1 0x20 ADD ADD SWAP1 PUSH1 0x1 PUSH1 0x1 PUSH1 0xA0 SHL SUB AND SWAP1 DUP2 PUSH1 0x1 PUSH1 0x1 PUSH1 0xA0 SHL SUB AND DUP2 MSTORE POP POP DUP1 PUSH1 0x2 ADD DUP1 SLOAD PUSH2 0xE02 SWAP1 PUSH2 0x201A JUMP JUMPDEST DUP1 PUSH1 0x1F ADD PUSH1 0x20 DUP1 SWAP2 DIV MUL PUSH1 0x20 ADD PUSH1 0x40 MLOAD SWAP1 DUP2 ADD PUSH1 0x40 MSTORE DUP1 SWAP3 SWAP2 SWAP1 DUP2 DUP2 MSTORE PUSH1 0x20 ADD DUP3 DUP1 SLOAD PUSH2 0xE2E SWAP1 PUSH2 0x201A JUMP JUMPDEST DUP1 ISZERO PUSH2 0xE7B JUMPI DUP1 PUSH1 0x1F LT PUSH2 0xE50 JUMPI PUSH2 0x100 DUP1 DUP4 SLOAD DIV MUL DUP4 MSTORE SWAP2 PUSH1 0x20 ADD SWAP2 PUSH2 0xE7B JUMP JUMPDEST DUP3 ADD SWAP2 SWAP1 PUSH1 0x0 MSTORE PUSH1 0x20 PUSH1 0x0 KECCAK256 SWAP1 JUMPDEST DUP2 SLOAD DUP2 MSTORE SWAP1 PUSH1 0x1 ADD SWAP1 PUSH1 0x20 ADD DUP1 DUP4 GT PUSH2 0xE5E JUMPI DUP3 SWAP1 SUB PUSH1 0x1F AND DUP3 ADD SWAP2 JUMPDEST POP POP POP POP POP DUP7 DUP6 DUP2 MLOAD DUP2 LT PUSH2 0xE92 JUMPI PUSH2 0xE92 PUSH2 0x231C JUMP JUMPDEST PUSH1 0x20 MUL PUSH1 0x20 ADD ADD DUP2 SWAP1 MSTORE POP DUP4 DUP1 PUSH2 0xEA8 SWAP1 PUSH2 0x218C JUMP JUMPDEST SWAP5 POP POP POP DUP1 DUP1 PUSH2 0xEB7 SWAP1 PUSH2 0x2332 JUMP JUMPDEST SWAP2 POP POP PUSH2 0xD86 JUMP JUMPDEST POP DUP1 PUSH2 0xECA DUP2 PUSH2 0x2332 JUMP JUMPDEST SWAP2 POP POP PUSH2 0xD77 JUMP JUMPDEST POP POP POP SWAP1 SWAP2 JUMP JUMPDEST PUSH1 0x1 PUSH1 0x1 PUSH1 0xA0 SHL SUB DUP2 AND PUSH1 0x0 SWAP1 DUP2 MSTORE PUSH1 0x8 PUSH1 0x20 MSTORE PUSH1 0x40 DUP2 KECCAK256 SLOAD PUSH1 0x60 SWAP2 PUSH2 0xF00 DUP3 PUSH1 0x2 PUSH2 0x2266 JUMP JUMPDEST PUSH8 0xFFFFFFFFFFFFFFFF DUP2 GT ISZERO PUSH2 0xF18 JUMPI PUSH2 0xF18 PUSH2 0x2054 JUMP JUMPDEST PUSH1 0x40 MLOAD SWAP1 DUP1 DUP3 MSTORE DUP1 PUSH1 0x20 MUL PUSH1 0x20 ADD DUP3 ADD PUSH1 0x40 MSTORE DUP1 ISZERO PUSH2 0xF41 JUMPI DUP2 PUSH1 0x20 ADD PUSH1 0x20 DUP3 MUL DUP1 CALLDATASIZE DUP4 CALLDATACOPY ADD SWAP1 POP JUMPDEST POP SWAP1 POP DUP2 PUSH1 0x0 SUB PUSH2 0xF53 JUMPI SWAP4 SWAP3 POP POP POP JUMP JUMPDEST PUSH1 0x0 DUP1 JUMPDEST PUSH1 0x20 PUSH1 0xFF DUP3 AND LT ISZERO PUSH2 0x1050 JUMPI PUSH1 0x0 JUMPDEST PUSH1 0x20 PUSH1 0xFF DUP3 AND LT ISZERO PUSH2 0x1035 JUMPI PUSH1 0xFF DUP1 DUP4 AND PUSH1 0x0 SWAP1 DUP2 MSTORE PUSH1 0x7 PUSH1 0x20 SWAP1 DUP2 MSTORE PUSH1 0x40 DUP1 DUP4 KECCAK256 SWAP4 DUP6 AND DUP4 MSTORE SWAP3 SWAP1 MSTORE KECCAK256 SLOAD PUSH1 0x1 PUSH1 0x1 PUSH1 0xA0 SHL SUB DUP1 DUP10 AND SWAP2 AND SUB PUSH2 0x1023 JUMPI DUP2 DUP5 PUSH2 0xFB1 DUP6 PUSH1 0x2 PUSH2 0x2266 JUMP JUMPDEST DUP2 MLOAD DUP2 LT PUSH2 0xFC1 JUMPI PUSH2 0xFC1 PUSH2 0x231C JUMP JUMPDEST PUSH1 0xFF SWAP1 SWAP3 AND PUSH1 0x20 SWAP3 DUP4 MUL SWAP2 SWAP1 SWAP2 ADD SWAP1 SWAP2 ADD MSTORE DUP1 DUP5 PUSH2 0xFE0 DUP6 PUSH1 0x2 PUSH2 0x2266 JUMP JUMPDEST PUSH2 0xFEB SWAP1 PUSH1 0x1 PUSH2 0x2351 JUMP JUMPDEST DUP2 MLOAD DUP2 LT PUSH2 0xFFB JUMPI PUSH2 0xFFB PUSH2 0x231C JUMP JUMPDEST PUSH1 0xFF SWAP1 SWAP3 AND PUSH1 0x20 SWAP3 DUP4 MUL SWAP2 SWAP1 SWAP2 ADD SWAP1 SWAP2 ADD MSTORE DUP3 PUSH2 0x1017 DUP2 PUSH2 0x218C JUMP JUMPDEST SWAP4 POP POP DUP5 DUP4 LT ISZERO PUSH2 0x1035 JUMPI JUMPDEST DUP1 PUSH2 0x102D DUP2 PUSH2 0x2332 JUMP JUMPDEST SWAP2 POP POP PUSH2 0xF66 JUMP JUMPDEST POP DUP4 DUP3 LT ISZERO PUSH2 0x1050 JUMPI DUP1 PUSH2 0x1048 DUP2 PUSH2 0x2332 JUMP JUMPDEST SWAP2 POP POP PUSH2 0xF57 JUMP JUMPDEST POP SWAP1 SWAP5 SWAP4 POP POP POP POP JUMP JUMPDEST PUSH1 0x6 SLOAD PUSH1 0x0 SWAP1 PUSH1 0xFF AND DUP1 ISZERO PUSH2 0x107D JUMPI POP PUSH1 0x4 SLOAD PUSH1 0x3 SLOAD PUSH2 0x107A SWAP1 TIMESTAMP PUSH2 0x2001 JUMP JUMPDEST LT ISZERO JUMPDEST SWAP1 POP SWAP1 JUMP JUMPDEST PUSH1 0x7 PUSH1 0x20 SWAP1 DUP2 MSTORE PUSH1 0x0 SWAP3 DUP4 MSTORE PUSH1 0x40 DUP1 DUP5 KECCAK256 SWAP1 SWAP2 MSTORE SWAP1 DUP3 MSTORE SWAP1 KECCAK256 DUP1 SLOAD PUSH1 0x1 DUP3 ADD SLOAD PUSH1 0x2 DUP4 ADD DUP1 SLOAD PUSH1 0x1 PUSH1 0x1 PUSH1 0xA0 SHL SUB SWAP1 SWAP4 AND SWAP4 SWAP2 SWAP3 PUSH2 0x10BF SWAP1 PUSH2 0x201A JUMP JUMPDEST DUP1 PUSH1 0x1F ADD PUSH1 0x20 DUP1 SWAP2 DIV MUL PUSH1 0x20 ADD PUSH1 0x40 MLOAD SWAP1 DUP2 ADD PUSH1 0x40 MSTORE DUP1 SWAP3 SWAP2 SWAP1 DUP2 DUP2 MSTORE PUSH1 0x20 ADD DUP3 DUP1 SLOAD PUSH2 0x10EB SWAP1 PUSH2 0x201A JUMP JUMPDEST DUP1 ISZERO PUSH2 0x1138 JUMPI DUP1 PUSH1 0x1F LT PUSH2 0x110D JUMPI PUSH2 0x100 DUP1 DUP4 SLOAD DIV MUL DUP4 MSTORE SWAP2 PUSH1 0x20 ADD SWAP2 PUSH2 0x1138 JUMP JUMPDEST DUP3 ADD SWAP2 SWAP1 PUSH1 0x0 MSTORE PUSH1 0x20 PUSH1 0x0 KECCAK256 SWAP1 JUMPDEST DUP2 SLOAD DUP2 MSTORE SWAP1 PUSH1 0x1 ADD SWAP1 PUSH1 0x20 ADD DUP1 DUP4 GT PUSH2 0x111B JUMPI DUP3 SWAP1 SUB PUSH1 0x1F AND DUP3 ADD SWAP2 JUMPDEST POP POP POP POP POP SWAP1 DUP1 PUSH1 0x3 ADD SLOAD SWAP1 POP DUP5 JUMP JUMPDEST PUSH2 0x1150 PUSH2 0x1CA6 JUMP JUMPDEST PUSH1 0x6 SLOAD PUSH1 0xFF AND ISZERO PUSH2 0x119C JUMPI PUSH1 0x40 MLOAD PUSH3 0x461BCD PUSH1 0xE5 SHL DUP2 MSTORE PUSH1 0x20 PUSH1 0x4 DUP3 ADD MSTORE PUSH1 0x16 PUSH1 0x24 DUP3 ADD MSTORE PUSH22 0x47616D6520697320616C726561647920616374697665 PUSH1 0x50 SHL PUSH1 0x44 DUP3 ADD MSTORE PUSH1 0x64 ADD PUSH2 0x62F JUMP JUMPDEST PUSH1 0x6 DUP1 SLOAD PUSH1 0xFF NOT AND PUSH1 0x1 OR SWAP1 SSTORE TIMESTAMP PUSH1 0x2 DUP2 SWAP1 SSTORE PUSH1 0x3 DUP2 SWAP1 SSTORE PUSH1 0x40 MLOAD PUSH32 0x50AD08F58A27F2851D7E3A1B3A6A46B290F2CE677E99642D30FF639721E77790 SWAP2 PUSH2 0x11E6 SWAP2 SWAP1 DUP2 MSTORE PUSH1 0x20 ADD SWAP1 JUMP JUMPDEST PUSH1 0x40 MLOAD DUP1 SWAP2 SUB SWAP1 LOG1 JUMP JUMPDEST PUSH2 0x11F8 PUSH2 0x1CA6 JUMP JUMPDEST PUSH1 0x1 PUSH1 0x1 PUSH1 0xA0 SHL SUB DUP2 AND PUSH2 0x125D JUMPI PUSH1 0x40 MLOAD PUSH3 0x461BCD PUSH1 0xE5 SHL DUP2 MSTORE PUSH1 0x20 PUSH1 0x4 DUP3 ADD MSTORE PUSH1 0x26 PUSH1 0x24 DUP3 ADD MSTORE PUSH32 0x4F776E61626C653A206E6577206F776E657220697320746865207A65726F2061 PUSH1 0x44 DUP3 ADD MSTORE PUSH6 0x646472657373 PUSH1 0xD0 SHL PUSH1 0x64 DUP3 ADD MSTORE PUSH1 0x84 ADD PUSH2 0x62F JUMP JUMPDEST PUSH2 0xB8D DUP2 PUSH2 0x1D00 JUMP JUMPDEST PUSH1 0x2 PUSH1 0x1 SLOAD SUB PUSH2 0x12B8 JUMPI PUSH1 0x40 MLOAD PUSH3 0x461BCD PUSH1 0xE5 SHL DUP2 MSTORE PUSH1 0x20 PUSH1 0x4 DUP3 ADD MSTORE PUSH1 0x1F PUSH1 0x24 DUP3 ADD MSTORE PUSH32 0x5265656E7472616E637947756172643A207265656E7472616E742063616C6C00 PUSH1 0x44 DUP3 ADD MSTORE PUSH1 0x64 ADD PUSH2 0x62F JUMP JUMPDEST PUSH1 0x2 PUSH1 0x1 SSTORE JUMP JUMPDEST PUSH1 0x0 DUP1 PUSH1 0x64 PUSH2 0x12CF PUSH1 0xF DUP6 PUSH2 0x2266 JUMP JUMPDEST PUSH2 0x12D9 SWAP2 SWAP1 PUSH2 0x227D JUMP JUMPDEST SWAP1 POP PUSH1 0x0 PUSH1 0x64 PUSH2 0x12EA PUSH1 0x1 DUP7 PUSH2 0x2266 JUMP JUMPDEST PUSH2 0x12F4 SWAP2 SWAP1 PUSH2 0x227D JUMP JUMPDEST SWAP1 POP PUSH1 0x1 PUSH1 0x1 PUSH1 0xA0 SHL SUB DUP6 AND ISZERO PUSH2 0x13CE JUMPI PUSH1 0x64 PUSH2 0x1312 PUSH1 0x54 DUP7 PUSH2 0x2266 JUMP JUMPDEST PUSH2 0x131C SWAP2 SWAP1 PUSH2 0x227D JUMP JUMPDEST SWAP3 POP DUP3 ISZERO PUSH2 0x13C9 JUMPI PUSH1 0x0 DUP6 PUSH1 0x1 PUSH1 0x1 PUSH1 0xA0 SHL SUB AND DUP5 PUSH1 0x40 MLOAD PUSH1 0x0 PUSH1 0x40 MLOAD DUP1 DUP4 SUB DUP2 DUP6 DUP8 GAS CALL SWAP3 POP POP POP RETURNDATASIZE DUP1 PUSH1 0x0 DUP2 EQ PUSH2 0x1371 JUMPI PUSH1 0x40 MLOAD SWAP2 POP PUSH1 0x1F NOT PUSH1 0x3F RETURNDATASIZE ADD AND DUP3 ADD PUSH1 0x40 MSTORE RETURNDATASIZE DUP3 MSTORE RETURNDATASIZE PUSH1 0x0 PUSH1 0x20 DUP5 ADD RETURNDATACOPY PUSH2 0x1376 JUMP JUMPDEST PUSH1 0x60 SWAP2 POP JUMPDEST POP POP SWAP1 POP DUP1 PUSH2 0x13C7 JUMPI PUSH1 0x40 MLOAD PUSH3 0x461BCD PUSH1 0xE5 SHL DUP2 MSTORE PUSH1 0x20 PUSH1 0x4 DUP3 ADD DUP2 SWAP1 MSTORE PUSH1 0x24 DUP3 ADD MSTORE PUSH32 0x5061796D656E7420746F2070726576696F7573206F776E6572206661696C6564 PUSH1 0x44 DUP3 ADD MSTORE PUSH1 0x64 ADD PUSH2 0x62F JUMP JUMPDEST POP JUMPDEST PUSH2 0x13F2 JUMP JUMPDEST PUSH1 0x64 PUSH2 0x13DB PUSH1 0x54 DUP7 PUSH2 0x2266 JUMP JUMPDEST PUSH2 0x13E5 SWAP2 SWAP1 PUSH2 0x227D JUMP JUMPDEST PUSH2 0x13EF SWAP1 DUP4 PUSH2 0x2351 JUMP JUMPDEST SWAP2 POP JUMPDEST DUP2 PUSH1 0x5 PUSH1 0x0 DUP3 DUP3 SLOAD PUSH2 0x1404 SWAP2 SWAP1 PUSH2 0x2351 JUMP JUMPDEST SWAP1 SWAP2 SSTORE POP POP DUP1 ISZERO PUSH2 0x14B9 JUMPI PUSH1 0x6 SLOAD PUSH1 0x40 MLOAD PUSH1 0x0 SWAP2 PUSH2 0x100 SWAP1 DIV PUSH1 0x1 PUSH1 0x1 PUSH1 0xA0 SHL SUB AND SWAP1 DUP4 SWAP1 DUP4 DUP2 DUP2 DUP2 DUP6 DUP8 GAS CALL SWAP3 POP POP POP RETURNDATASIZE DUP1 PUSH1 0x0 DUP2 EQ PUSH2 0x1461 JUMPI PUSH1 0x40 MLOAD SWAP2 POP PUSH1 0x1F NOT PUSH1 0x3F RETURNDATASIZE ADD AND DUP3 ADD PUSH1 0x40 MSTORE RETURNDATASIZE DUP3 MSTORE RETURNDATASIZE PUSH1 0x0 PUSH1 0x20 DUP5 ADD RETURNDATACOPY PUSH2 0x1466 JUMP JUMPDEST PUSH1 0x60 SWAP2 POP JUMPDEST POP POP SWAP1 POP DUP1 PUSH2 0x14B7 JUMPI PUSH1 0x40 MLOAD PUSH3 0x461BCD PUSH1 0xE5 SHL DUP2 MSTORE PUSH1 0x20 PUSH1 0x4 DUP3 ADD MSTORE PUSH1 0x1B PUSH1 0x24 DUP3 ADD MSTORE PUSH32 0x5061796D656E7420746F20646576656C6F706572206661696C65640000000000 PUSH1 0x44 DUP3 ADD MSTORE PUSH1 0x64 ADD PUSH2 0x62F JUMP JUMPDEST POP JUMPDEST PUSH1 0x0 DUP2 PUSH2 0x14C6 DUP5 DUP7 PUSH2 0x2351 JUMP JUMPDEST PUSH2 0x14D0 SWAP2 SWAP1 PUSH2 0x2351 JUMP JUMPDEST SWAP1 POP DUP1 DUP6 GT ISZERO PUSH2 0x14FB JUMPI PUSH2 0x14E4 DUP2 DUP7 PUSH2 0x2001 JUMP JUMPDEST PUSH1 0x5 PUSH1 0x0 DUP3 DUP3 SLOAD PUSH2 0x14F5 SWAP2 SWAP1 PUSH2 0x2351 JUMP JUMPDEST SWAP1 SWAP2 SSTORE POP POP JUMPDEST POP POP POP POP POP POP JUMP JUMPDEST PUSH1 0x60 PUSH1 0x0 DUP1 PUSH1 0x0 DUP1 JUMPDEST PUSH1 0x20 PUSH1 0xFF DUP3 AND LT ISZERO PUSH2 0x1588 JUMPI PUSH1 0x0 JUMPDEST PUSH1 0x20 PUSH1 0xFF DUP3 AND LT ISZERO PUSH2 0x1575 JUMPI PUSH1 0xFF DUP1 DUP4 AND PUSH1 0x0 SWAP1 DUP2 MSTORE PUSH1 0x7 PUSH1 0x20 SWAP1 DUP2 MSTORE PUSH1 0x40 DUP1 DUP4 KECCAK256 SWAP4 DUP6 AND DUP4 MSTORE SWAP3 SWAP1 MSTORE KECCAK256 SLOAD PUSH1 0x1 PUSH1 0x1 PUSH1 0xA0 SHL SUB AND ISZERO PUSH2 0x1563 JUMPI DUP3 PUSH2 0x155F DUP2 PUSH2 0x218C JUMP JUMPDEST SWAP4 POP POP JUMPDEST DUP1 PUSH2 0x156D DUP2 PUSH2 0x2332 JUMP JUMPDEST SWAP2 POP POP PUSH2 0x151B JUMP JUMPDEST POP DUP1 PUSH2 0x1580 DUP2 PUSH2 0x2332 JUMP JUMPDEST SWAP2 POP POP PUSH2 0x150C JUMP JUMPDEST POP PUSH1 0x0 DUP2 PUSH8 0xFFFFFFFFFFFFFFFF DUP2 GT ISZERO PUSH2 0x15A4 JUMPI PUSH2 0x15A4 PUSH2 0x2054 JUMP JUMPDEST PUSH1 0x40 MLOAD SWAP1 DUP1 DUP3 MSTORE DUP1 PUSH1 0x20 MUL PUSH1 0x20 ADD DUP3 ADD PUSH1 0x40 MSTORE DUP1 ISZERO PUSH2 0x15CD JUMPI DUP2 PUSH1 0x20 ADD PUSH1 0x20 DUP3 MUL DUP1 CALLDATASIZE DUP4 CALLDATACOPY ADD SWAP1 POP JUMPDEST POP SWAP1 POP PUSH1 0x0 DUP1 JUMPDEST PUSH1 0x20 PUSH1 0xFF DUP3 AND LT ISZERO PUSH2 0x1751 JUMPI PUSH1 0x0 JUMPDEST PUSH1 0x20 PUSH1 0xFF DUP3 AND LT ISZERO PUSH2 0x173E JUMPI PUSH1 0xFF DUP1 DUP4 AND PUSH1 0x0 SWAP1 DUP2 MSTORE PUSH1 0x7 PUSH1 0x20 SWAP1 DUP2 MSTORE PUSH1 0x40 DUP1 DUP4 KECCAK256 SWAP4 DUP6 AND DUP4 MSTORE SWAP3 SWAP1 MSTORE KECCAK256 SLOAD PUSH1 0x1 PUSH1 0x1 PUSH1 0xA0 SHL SUB AND DUP1 ISZERO PUSH2 0x172B JUMPI PUSH1 0x0 DUP1 JUMPDEST DUP6 DUP2 LT ISZERO PUSH2 0x1677 JUMPI DUP3 PUSH1 0x1 PUSH1 0x1 PUSH1 0xA0 SHL SUB AND DUP8 DUP3 DUP2 MLOAD DUP2 LT PUSH2 0x1646 JUMPI PUSH2 0x1646 PUSH2 0x231C JUMP JUMPDEST PUSH1 0x20 MUL PUSH1 0x20 ADD ADD MLOAD PUSH1 0x1 PUSH1 0x1 PUSH1 0xA0 SHL SUB AND SUB PUSH2 0x1665 JUMPI PUSH1 0x1 SWAP2 POP PUSH2 0x1677 JUMP JUMPDEST DUP1 PUSH2 0x166F DUP2 PUSH2 0x218C JUMP JUMPDEST SWAP2 POP POP PUSH2 0x1622 JUMP JUMPDEST POP DUP1 PUSH2 0x1729 JUMPI DUP2 DUP7 DUP7 DUP2 MLOAD DUP2 LT PUSH2 0x1690 JUMPI PUSH2 0x1690 PUSH2 0x231C JUMP JUMPDEST PUSH1 0x1 PUSH1 0x1 PUSH1 0xA0 SHL SUB SWAP1 SWAP3 AND PUSH1 0x20 SWAP3 DUP4 MUL SWAP2 SWAP1 SWAP2 ADD SWAP1 SWAP2 ADD MSTORE DUP5 PUSH2 0x16B2 DUP2 PUSH2 0x218C JUMP JUMPDEST PUSH1 0x1 PUSH1 0x1 PUSH1 0xA0 SHL SUB DUP5 AND PUSH1 0x0 SWAP1 DUP2 MSTORE PUSH1 0x8 PUSH1 0x20 MSTORE PUSH1 0x40 SWAP1 KECCAK256 SLOAD SWAP1 SWAP7 POP DUP11 LT ISZERO SWAP1 POP PUSH2 0x16FB JUMPI PUSH1 0x1 PUSH1 0x1 PUSH1 0xA0 SHL SUB DUP3 AND PUSH1 0x0 SWAP1 DUP2 MSTORE PUSH1 0x8 PUSH1 0x20 MSTORE PUSH1 0x40 SWAP1 KECCAK256 SLOAD SWAP9 POP PUSH1 0x1 SWAP8 POP PUSH2 0x1729 JUMP JUMPDEST PUSH1 0x1 PUSH1 0x1 PUSH1 0xA0 SHL SUB DUP3 AND PUSH1 0x0 SWAP1 DUP2 MSTORE PUSH1 0x8 PUSH1 0x20 MSTORE PUSH1 0x40 SWAP1 KECCAK256 SLOAD DUP10 SWAP1 SUB PUSH2 0x1729 JUMPI DUP8 PUSH2 0x1725 DUP2 PUSH2 0x218C JUMP JUMPDEST SWAP9 POP POP JUMPDEST POP JUMPDEST POP DUP1 PUSH2 0x1736 DUP2 PUSH2 0x2332 JUMP JUMPDEST SWAP2 POP POP PUSH2 0x15E3 JUMP JUMPDEST POP DUP1 PUSH2 0x1749 DUP2 PUSH2 0x2332 JUMP JUMPDEST SWAP2 POP POP PUSH2 0x15D4 JUMP JUMPDEST POP PUSH1 0x0 DUP5 PUSH8 0xFFFFFFFFFFFFFFFF DUP2 GT ISZERO PUSH2 0x176D JUMPI PUSH2 0x176D PUSH2 0x2054 JUMP JUMPDEST PUSH1 0x40 MLOAD SWAP1 DUP1 DUP3 MSTORE DUP1 PUSH1 0x20 MUL PUSH1 0x20 ADD DUP3 ADD PUSH1 0x40 MSTORE DUP1 ISZERO PUSH2 0x1796 JUMPI DUP2 PUSH1 0x20 ADD PUSH1 0x20 DUP3 MUL DUP1 CALLDATASIZE DUP4 CALLDATACOPY ADD SWAP1 POP JUMPDEST POP SWAP1 POP PUSH1 0x0 DUP1 JUMPDEST DUP4 DUP2 LT ISZERO PUSH2 0x184E JUMPI DUP8 PUSH1 0x8 PUSH1 0x0 DUP8 DUP5 DUP2 MLOAD DUP2 LT PUSH2 0x17BC JUMPI PUSH2 0x17BC PUSH2 0x231C JUMP JUMPDEST PUSH1 0x20 MUL PUSH1 0x20 ADD ADD MLOAD PUSH1 0x1 PUSH1 0x1 PUSH1 0xA0 SHL SUB AND PUSH1 0x1 PUSH1 0x1 PUSH1 0xA0 SHL SUB AND DUP2 MSTORE PUSH1 0x20 ADD SWAP1 DUP2 MSTORE PUSH1 0x20 ADD PUSH1 0x0 KECCAK256 SLOAD SUB PUSH2 0x183C JUMPI DUP5 DUP2 DUP2 MLOAD DUP2 LT PUSH2 0x17FC JUMPI PUSH2 0x17FC PUSH2 0x231C JUMP JUMPDEST PUSH1 0x20 MUL PUSH1 0x20 ADD ADD MLOAD DUP4 DUP4 DUP2 MLOAD DUP2 LT PUSH2 0x1816 JUMPI PUSH2 0x1816 PUSH2 0x231C JUMP JUMPDEST PUSH1 0x1 PUSH1 0x1 PUSH1 0xA0 SHL SUB SWAP1 SWAP3 AND PUSH1 0x20 SWAP3 DUP4 MUL SWAP2 SWAP1 SWAP2 ADD SWAP1 SWAP2 ADD MSTORE DUP2 PUSH2 0x1838 DUP2 PUSH2 0x218C JUMP JUMPDEST SWAP3 POP POP JUMPDEST DUP1 PUSH2 0x1846 DUP2 PUSH2 0x218C JUMP JUMPDEST SWAP2 POP POP PUSH2 0x179D JUMP JUMPDEST POP SWAP1 SWAP8 SWAP7 POP POP POP POP POP POP POP JUMP JUMPDEST DUP1 MLOAD ISZERO DUP1 PUSH2 0x1869 JUMPI POP PUSH1 0x5 SLOAD ISZERO JUMPDEST ISZERO PUSH2 0x1871 JUMPI POP JUMP JUMPDEST PUSH1 0x0 DUP1 JUMPDEST PUSH1 0x20 PUSH1 0xFF DUP3 AND LT ISZERO PUSH2 0x18F1 JUMPI PUSH1 0x0 JUMPDEST PUSH1 0x20 PUSH1 0xFF DUP3 AND LT ISZERO PUSH2 0x18DE JUMPI PUSH1 0xFF DUP1 DUP4 AND PUSH1 0x0 SWAP1 DUP2 MSTORE PUSH1 0x7 PUSH1 0x20 SWAP1 DUP2 MSTORE PUSH1 0x40 DUP1 DUP4 KECCAK256 SWAP4 DUP6 AND DUP4 MSTORE SWAP3 SWAP1 MSTORE KECCAK256 SLOAD PUSH1 0x1 PUSH1 0x1 PUSH1 0xA0 SHL SUB AND ISZERO PUSH2 0x18CC JUMPI DUP3 PUSH2 0x18C8 DUP2 PUSH2 0x218C JUMP JUMPDEST SWAP4 POP POP JUMPDEST DUP1 PUSH2 0x18D6 DUP2 PUSH2 0x2332 JUMP JUMPDEST SWAP2 POP POP PUSH2 0x1884 JUMP JUMPDEST POP DUP1 PUSH2 0x18E9 DUP2 PUSH2 0x2332 JUMP JUMPDEST SWAP2 POP POP PUSH2 0x1875 JUMP JUMPDEST POP DUP1 PUSH1 0x0 SUB PUSH2 0x18FE JUMPI POP POP JUMP JUMPDEST PUSH1 0x0 DUP2 PUSH8 0xFFFFFFFFFFFFFFFF DUP2 GT ISZERO PUSH2 0x1919 JUMPI PUSH2 0x1919 PUSH2 0x2054 JUMP JUMPDEST PUSH1 0x40 MLOAD SWAP1 DUP1 DUP3 MSTORE DUP1 PUSH1 0x20 MUL PUSH1 0x20 ADD DUP3 ADD PUSH1 0x40 MSTORE DUP1 ISZERO PUSH2 0x1942 JUMPI DUP2 PUSH1 0x20 ADD PUSH1 0x20 DUP3 MUL DUP1 CALLDATASIZE DUP4 CALLDATACOPY ADD SWAP1 POP JUMPDEST POP SWAP1 POP PUSH1 0x0 DUP3 PUSH8 0xFFFFFFFFFFFFFFFF DUP2 GT ISZERO PUSH2 0x1960 JUMPI PUSH2 0x1960 PUSH2 0x2054 JUMP JUMPDEST PUSH1 0x40 MLOAD SWAP1 DUP1 DUP3 MSTORE DUP1 PUSH1 0x20 MUL PUSH1 0x20 ADD DUP3 ADD PUSH1 0x40 MSTORE DUP1 ISZERO PUSH2 0x1989 JUMPI DUP2 PUSH1 0x20 ADD PUSH1 0x20 DUP3 MUL DUP1 CALLDATASIZE DUP4 CALLDATACOPY ADD SWAP1 POP JUMPDEST POP SWAP1 POP PUSH1 0x0 DUP1 PUSH1 0x0 JUMPDEST PUSH1 0x20 PUSH1 0xFF DUP3 AND LT ISZERO PUSH2 0x1B2A JUMPI PUSH1 0x0 JUMPDEST PUSH1 0x20 PUSH1 0xFF DUP3 AND LT ISZERO PUSH2 0x1B17 JUMPI PUSH1 0xFF DUP1 DUP4 AND PUSH1 0x0 SWAP1 DUP2 MSTORE PUSH1 0x7 PUSH1 0x20 SWAP1 DUP2 MSTORE PUSH1 0x40 DUP1 DUP4 KECCAK256 SWAP4 DUP6 AND DUP4 MSTORE SWAP3 SWAP1 MSTORE KECCAK256 SLOAD PUSH1 0x1 PUSH1 0x1 PUSH1 0xA0 SHL SUB AND DUP1 ISZERO PUSH2 0x1B04 JUMPI PUSH1 0x0 DUP9 PUSH1 0x5 SLOAD PUSH1 0x1 PUSH2 0x19EE SWAP2 SWAP1 PUSH2 0x2266 JUMP JUMPDEST PUSH2 0x19F8 SWAP2 SWAP1 PUSH2 0x227D JUMP JUMPDEST SWAP1 POP DUP1 ISZERO PUSH2 0x1B02 JUMPI PUSH1 0x0 DUP1 PUSH1 0x0 JUMPDEST DUP9 DUP2 LT ISZERO PUSH2 0x1A5E JUMPI DUP5 PUSH1 0x1 PUSH1 0x1 PUSH1 0xA0 SHL SUB AND DUP12 DUP3 DUP2 MLOAD DUP2 LT PUSH2 0x1A2A JUMPI PUSH2 0x1A2A PUSH2 0x231C JUMP JUMPDEST PUSH1 0x20 MUL PUSH1 0x20 ADD ADD MLOAD PUSH1 0x1 PUSH1 0x1 PUSH1 0xA0 SHL SUB AND SUB PUSH2 0x1A4C JUMPI PUSH1 0x1 SWAP3 POP DUP1 SWAP2 POP PUSH2 0x1A5E JUMP JUMPDEST DUP1 PUSH2 0x1A56 DUP2 PUSH2 0x218C JUMP JUMPDEST SWAP2 POP POP PUSH2 0x1A06 JUMP JUMPDEST POP DUP2 ISZERO PUSH2 0x1A94 JUMPI DUP3 DUP10 DUP3 DUP2 MLOAD DUP2 LT PUSH2 0x1A78 JUMPI PUSH2 0x1A78 PUSH2 0x231C JUMP JUMPDEST PUSH1 0x20 MUL PUSH1 0x20 ADD ADD DUP2 DUP2 MLOAD PUSH2 0x1A8C SWAP2 SWAP1 PUSH2 0x2351 JUMP JUMPDEST SWAP1 MSTORE POP PUSH2 0x1AF3 JUMP JUMPDEST DUP4 DUP11 DUP10 DUP2 MLOAD DUP2 LT PUSH2 0x1AA7 JUMPI PUSH2 0x1AA7 PUSH2 0x231C JUMP JUMPDEST PUSH1 0x20 MUL PUSH1 0x20 ADD ADD SWAP1 PUSH1 0x1 PUSH1 0x1 PUSH1 0xA0 SHL SUB AND SWAP1 DUP2 PUSH1 0x1 PUSH1 0x1 PUSH1 0xA0 SHL SUB AND DUP2 MSTORE POP POP DUP3 DUP10 DUP10 DUP2 MLOAD DUP2 LT PUSH2 0x1ADA JUMPI PUSH2 0x1ADA PUSH2 0x231C JUMP JUMPDEST PUSH1 0x20 SWAP1 DUP2 MUL SWAP2 SWAP1 SWAP2 ADD ADD MSTORE DUP8 PUSH2 0x1AEF DUP2 PUSH2 0x218C JUMP JUMPDEST SWAP9 POP POP JUMPDEST PUSH2 0x1AFD DUP4 DUP9 PUSH2 0x2351 JUMP JUMPDEST SWAP7 POP POP POP JUMPDEST POP JUMPDEST POP DUP1 PUSH2 0x1B0F DUP2 PUSH2 0x2332 JUMP JUMPDEST SWAP2 POP POP PUSH2 0x19A1 JUMP JUMPDEST POP DUP1 PUSH2 0x1B22 DUP2 PUSH2 0x2332 JUMP JUMPDEST SWAP2 POP POP PUSH2 0x1992 JUMP JUMPDEST POP PUSH1 0x0 JUMPDEST DUP3 DUP2 LT ISZERO PUSH2 0x1C78 JUMPI PUSH1 0x0 DUP6 DUP3 DUP2 MLOAD DUP2 LT PUSH2 0x1B4A JUMPI PUSH2 0x1B4A PUSH2 0x231C JUMP JUMPDEST PUSH1 0x20 MUL PUSH1 0x20 ADD ADD MLOAD SWAP1 POP PUSH1 0x0 DUP6 DUP4 DUP2 MLOAD DUP2 LT PUSH2 0x1B68 JUMPI PUSH2 0x1B68 PUSH2 0x231C JUMP JUMPDEST PUSH1 0x20 MUL PUSH1 0x20 ADD ADD MLOAD SWAP1 POP PUSH1 0x0 DUP2 GT ISZERO PUSH2 0x1C63 JUMPI PUSH1 0x0 DUP3 PUSH1 0x1 PUSH1 0x1 PUSH1 0xA0 SHL SUB AND DUP3 PUSH1 0x40 MLOAD PUSH1 0x0 PUSH1 0x40 MLOAD DUP1 DUP4 SUB DUP2 DUP6 DUP8 GAS CALL SWAP3 POP POP POP RETURNDATASIZE DUP1 PUSH1 0x0 DUP2 EQ PUSH2 0x1BC8 JUMPI PUSH1 0x40 MLOAD SWAP2 POP PUSH1 0x1F NOT PUSH1 0x3F RETURNDATASIZE ADD AND DUP3 ADD PUSH1 0x40 MSTORE RETURNDATASIZE DUP3 MSTORE RETURNDATASIZE PUSH1 0x0 PUSH1 0x20 DUP5 ADD RETURNDATACOPY PUSH2 0x1BCD JUMP JUMPDEST PUSH1 0x60 SWAP2 POP JUMPDEST POP POP SWAP1 POP DUP1 PUSH2 0x1C1E JUMPI PUSH1 0x40 MLOAD PUSH3 0x461BCD PUSH1 0xE5 SHL DUP2 MSTORE PUSH1 0x20 PUSH1 0x4 DUP3 ADD MSTORE PUSH1 0x19 PUSH1 0x24 DUP3 ADD MSTORE PUSH32 0x5072697A6520646973747269627574696F6E206661696C656400000000000000 PUSH1 0x44 DUP3 ADD MSTORE PUSH1 0x64 ADD PUSH2 0x62F JUMP JUMPDEST DUP3 PUSH1 0x1 PUSH1 0x1 PUSH1 0xA0 SHL SUB AND PUSH32 0xB8E091D87F82E56D22276C9A0088EA5D6068E355383DC08B2721B7B6CB10E845 DUP4 PUSH1 0x40 MLOAD PUSH2 0x1C59 SWAP2 DUP2 MSTORE PUSH1 0x20 ADD SWAP1 JUMP JUMPDEST PUSH1 0x40 MLOAD DUP1 SWAP2 SUB SWAP1 LOG2 POP JUMPDEST POP POP DUP1 DUP1 PUSH2 0x1C70 SWAP1 PUSH2 0x218C JUMP JUMPDEST SWAP2 POP POP PUSH2 0x1B2E JUMP JUMPDEST POP DUP1 PUSH1 0x5 SLOAD GT ISZERO PUSH2 0x1C99 JUMPI DUP1 PUSH1 0x5 SLOAD PUSH2 0x1C91 SWAP2 SWAP1 PUSH2 0x2001 JUMP JUMPDEST PUSH1 0x5 SSTORE PUSH2 0x14FB JUMP JUMPDEST PUSH1 0x0 PUSH1 0x5 SSTORE POP POP POP POP POP POP JUMP JUMPDEST PUSH1 0x0 SLOAD PUSH1 0x1 PUSH1 0x1 PUSH1 0xA0 SHL SUB AND CALLER EQ PUSH2 0xC38 JUMPI PUSH1 0x40 MLOAD PUSH3 0x461BCD PUSH1 0xE5 SHL DUP2 MSTORE PUSH1 0x20 PUSH1 0x4 DUP3 ADD DUP2 SWAP1 MSTORE PUSH1 0x24 DUP3 ADD MSTORE PUSH32 0x4F776E61626C653A2063616C6C6572206973206E6F7420746865206F776E6572 PUSH1 0x44 DUP3 ADD MSTORE PUSH1 0x64 ADD PUSH2 0x62F JUMP JUMPDEST PUSH1 0x0 DUP1 SLOAD PUSH1 0x1 PUSH1 0x1 PUSH1 0xA0 SHL SUB DUP4 DUP2 AND PUSH1 0x1 PUSH1 0x1 PUSH1 0xA0 SHL SUB NOT DUP4 AND DUP2 OR DUP5 SSTORE PUSH1 0x40 MLOAD SWAP2 SWAP1 SWAP3 AND SWAP3 DUP4 SWAP2 PUSH32 0x8BE0079C531659141344CD1FD0A4F28419497F9722A3DAAFE3B4186F6B6457E0 SWAP2 SWAP1 LOG3 POP POP JUMP JUMPDEST DUP1 CALLDATALOAD PUSH1 0xFF DUP2 AND DUP2 EQ PUSH2 0x1D61 JUMPI PUSH1 0x0 DUP1 REVERT JUMPDEST SWAP2 SWAP1 POP JUMP JUMPDEST PUSH1 0x0 DUP1 PUSH1 0x40 DUP4 DUP6 SUB SLT ISZERO PUSH2 0x1D79 JUMPI PUSH1 0x0 DUP1 REVERT JUMPDEST PUSH2 0x1D82 DUP4 PUSH2 0x1D50 JUMP JUMPDEST SWAP2 POP PUSH2 0x1D90 PUSH1 0x20 DUP5 ADD PUSH2 0x1D50 JUMP JUMPDEST SWAP1 POP SWAP3 POP SWAP3 SWAP1 POP JUMP JUMPDEST PUSH1 0x0 DUP2 MLOAD DUP1 DUP5 MSTORE PUSH1 0x0 JUMPDEST DUP2 DUP2 LT ISZERO PUSH2 0x1DBF JUMPI PUSH1 0x20 DUP2 DUP6 ADD DUP2 ADD MLOAD DUP7 DUP4 ADD DUP3 ADD MSTORE ADD PUSH2 0x1DA3 JUMP JUMPDEST POP PUSH1 0x0 PUSH1 0x20 DUP3 DUP7 ADD ADD MSTORE PUSH1 0x20 PUSH1 0x1F NOT PUSH1 0x1F DUP4 ADD AND DUP6 ADD ADD SWAP2 POP POP SWAP3 SWAP2 POP POP JUMP JUMPDEST PUSH1 0x1 DUP1 PUSH1 0xA0 SHL SUB DUP6 AND DUP2 MSTORE DUP4 PUSH1 0x20 DUP3 ADD MSTORE PUSH1 0x80 PUSH1 0x40 DUP3 ADD MSTORE PUSH1 0x0 PUSH2 0x1E06 PUSH1 0x80 DUP4 ADD DUP6 PUSH2 0x1D99 JUMP JUMPDEST SWAP1 POP DUP3 PUSH1 0x60 DUP4 ADD MSTORE SWAP6 SWAP5 POP POP POP POP POP JUMP JUMPDEST PUSH1 0x0 DUP1 PUSH1 0x0 DUP1 PUSH1 0x60 DUP6 DUP8 SUB SLT ISZERO PUSH2 0x1E2D JUMPI PUSH1 0x0 DUP1 REVERT JUMPDEST PUSH2 0x1E36 DUP6 PUSH2 0x1D50 JUMP JUMPDEST SWAP4 POP PUSH2 0x1E44 PUSH1 0x20 DUP7 ADD PUSH2 0x1D50 JUMP JUMPDEST SWAP3 POP PUSH1 0x40 DUP6 ADD CALLDATALOAD PUSH8 0xFFFFFFFFFFFFFFFF DUP1 DUP3 GT ISZERO PUSH2 0x1E61 JUMPI PUSH1 0x0 DUP1 REVERT JUMPDEST DUP2 DUP8 ADD SWAP2 POP DUP8 PUSH1 0x1F DUP4 ADD SLT PUSH2 0x1E75 JUMPI PUSH1 0x0 DUP1 REVERT JUMPDEST DUP2 CALLDATALOAD DUP2 DUP2 GT ISZERO PUSH2 0x1E84 JUMPI PUSH1 0x0 DUP1 REVERT JUMPDEST DUP9 PUSH1 0x20 DUP3 DUP6 ADD ADD GT ISZERO PUSH2 0x1E96 JUMPI PUSH1 0x0 DUP1 REVERT JUMPDEST SWAP6 SWAP9 SWAP5 SWAP8 POP POP PUSH1 0x20 ADD SWAP5 POP POP POP JUMP JUMPDEST PUSH1 0x0 PUSH1 0x20 DUP3 DUP5 SUB SLT ISZERO PUSH2 0x1EB7 JUMPI PUSH1 0x0 DUP1 REVERT JUMPDEST DUP2 CALLDATALOAD PUSH1 0x1 PUSH1 0x1 PUSH1 0xA0 SHL SUB DUP2 AND DUP2 EQ PUSH2 0x1ECE JUMPI PUSH1 0x0 DUP1 REVERT JUMPDEST SWAP4 SWAP3 POP POP POP JUMP JUMPDEST PUSH1 0x0 PUSH1 0x20 DUP3 DUP5 SUB SLT ISZERO PUSH2 0x1EE7 JUMPI PUSH1 0x0 DUP1 REVERT JUMPDEST POP CALLDATALOAD SWAP2 SWAP1 POP JUMP JUMPDEST PUSH1 0x0 DUP2 MLOAD DUP1 DUP5 MSTORE PUSH1 0x20 DUP1 DUP6 ADD SWAP5 POP DUP1 DUP5 ADD PUSH1 0x0 JUMPDEST DUP4 DUP2 LT ISZERO PUSH2 0x1F27 JUMPI DUP2 MLOAD PUSH1 0x1 PUSH1 0x1 PUSH1 0xA0 SHL SUB AND DUP8 MSTORE SWAP6 DUP3 ADD SWAP6 SWAP1 DUP3 ADD SWAP1 PUSH1 0x1 ADD PUSH2 0x1F02 JUMP JUMPDEST POP SWAP5 SWAP6 SWAP5 POP POP POP POP POP JUMP JUMPDEST PUSH1 0x40 DUP2 MSTORE PUSH1 0x0 PUSH2 0x1F45 PUSH1 0x40 DUP4 ADD DUP6 PUSH2 0x1EEE JUMP JUMPDEST PUSH1 0x20 DUP4 DUP3 SUB DUP2 DUP6 ADD MSTORE DUP2 DUP6 MLOAD DUP1 DUP5 MSTORE DUP3 DUP5 ADD SWAP2 POP DUP3 DUP2 PUSH1 0x5 SHL DUP6 ADD ADD DUP4 DUP9 ADD PUSH1 0x0 JUMPDEST DUP4 DUP2 LT ISZERO PUSH2 0x1F95 JUMPI PUSH1 0x1F NOT DUP8 DUP5 SUB ADD DUP6 MSTORE PUSH2 0x1F83 DUP4 DUP4 MLOAD PUSH2 0x1D99 JUMP JUMPDEST SWAP5 DUP7 ADD SWAP5 SWAP3 POP SWAP1 DUP6 ADD SWAP1 PUSH1 0x1 ADD PUSH2 0x1F67 JUMP JUMPDEST POP SWAP1 SWAP10 SWAP9 POP POP POP POP POP POP POP POP POP JUMP JUMPDEST PUSH1 0x20 DUP1 DUP3 MSTORE DUP3 MLOAD DUP3 DUP3 ADD DUP2 SWAP1 MSTORE PUSH1 0x0 SWAP2 SWAP1 DUP5 DUP3 ADD SWAP1 PUSH1 0x40 DUP6 ADD SWAP1 DUP5 JUMPDEST DUP2 DUP2 LT ISZERO PUSH2 0x1FDF JUMPI DUP4 MLOAD PUSH1 0xFF AND DUP4 MSTORE SWAP3 DUP5 ADD SWAP3 SWAP2 DUP5 ADD SWAP2 PUSH1 0x1 ADD PUSH2 0x1FC0 JUMP JUMPDEST POP SWAP1 SWAP7 SWAP6 POP POP POP POP POP POP JUMP JUMPDEST PUSH4 0x4E487B71 PUSH1 0xE0 SHL PUSH1 0x0 MSTORE PUSH1 0x11 PUSH1 0x4 MSTORE PUSH1 0x24 PUSH1 0x0 REVERT JUMPDEST DUP2 DUP2 SUB DUP2 DUP2 GT ISZERO PUSH2 0x2014 JUMPI PUSH2 0x2014 PUSH2 0x1FEB JUMP JUMPDEST SWAP3 SWAP2 POP POP JUMP JUMPDEST PUSH1 0x1 DUP2 DUP2 SHR SWAP1 DUP3 AND DUP1 PUSH2 0x202E JUMPI PUSH1 0x7F DUP3 AND SWAP2 POP JUMPDEST PUSH1 0x20 DUP3 LT DUP2 SUB PUSH2 0x204E JUMPI PUSH4 0x4E487B71 PUSH1 0xE0 SHL PUSH1 0x0 MSTORE PUSH1 0x22 PUSH1 0x4 MSTORE PUSH1 0x24 PUSH1 0x0 REVERT JUMPDEST POP SWAP2 SWAP1 POP JUMP JUMPDEST PUSH4 0x4E487B71 PUSH1 0xE0 SHL PUSH1 0x0 MSTORE PUSH1 0x41 PUSH1 0x4 MSTORE PUSH1 0x24 PUSH1 0x0 REVERT JUMPDEST PUSH1 0x1F DUP3 GT ISZERO PUSH2 0x20B0 JUMPI PUSH1 0x0 DUP2 DUP2 MSTORE PUSH1 0x20 DUP2 KECCAK256 PUSH1 0x1F DUP6 ADD PUSH1 0x5 SHR DUP2 ADD PUSH1 0x20 DUP7 LT ISZERO PUSH2 0x2091 JUMPI POP DUP1 JUMPDEST PUSH1 0x1F DUP6 ADD PUSH1 0x5 SHR DUP3 ADD SWAP2 POP JUMPDEST DUP2 DUP2 LT ISZERO PUSH2 0x14FB JUMPI DUP3 DUP2 SSTORE PUSH1 0x1 ADD PUSH2 0x209D JUMP JUMPDEST POP POP POP JUMP JUMPDEST DUP2 MLOAD PUSH8 0xFFFFFFFFFFFFFFFF DUP2 GT ISZERO PUSH2 0x20CF JUMPI PUSH2 0x20CF PUSH2 0x2054 JUMP JUMPDEST PUSH2 0x20E3 DUP2 PUSH2 0x20DD DUP5 SLOAD PUSH2 0x201A JUMP JUMPDEST DUP5 PUSH2 0x206A JUMP JUMPDEST PUSH1 0x20 DUP1 PUSH1 0x1F DUP4 GT PUSH1 0x1 DUP2 EQ PUSH2 0x2118 JUMPI PUSH1 0x0 DUP5 ISZERO PUSH2 0x2100 JUMPI POP DUP6 DUP4 ADD MLOAD JUMPDEST PUSH1 0x0 NOT PUSH1 0x3 DUP7 SWAP1 SHL SHR NOT AND PUSH1 0x1 DUP6 SWAP1 SHL OR DUP6 SSTORE PUSH2 0x14FB JUMP JUMPDEST PUSH1 0x0 DUP6 DUP2 MSTORE PUSH1 0x20 DUP2 KECCAK256 PUSH1 0x1F NOT DUP7 AND SWAP2 JUMPDEST DUP3 DUP2 LT ISZERO PUSH2 0x2147 JUMPI DUP9 DUP7 ADD MLOAD DUP3 SSTORE SWAP5 DUP5 ADD SWAP5 PUSH1 0x1 SWAP1 SWAP2 ADD SWAP1 DUP5 ADD PUSH2 0x2128 JUMP JUMPDEST POP DUP6 DUP3 LT ISZERO PUSH2 0x2165 JUMPI DUP8 DUP6 ADD MLOAD PUSH1 0x0 NOT PUSH1 0x3 DUP9 SWAP1 SHL PUSH1 0xF8 AND SHR NOT AND DUP2 SSTORE JUMPDEST POP POP POP POP POP PUSH1 0x1 SWAP1 DUP2 SHL ADD SWAP1 SSTORE POP JUMP JUMPDEST PUSH1 0x0 DUP2 PUSH2 0x2184 JUMPI PUSH2 0x2184 PUSH2 0x1FEB JUMP JUMPDEST POP PUSH1 0x0 NOT ADD SWAP1 JUMP JUMPDEST PUSH1 0x0 PUSH1 0x1 DUP3 ADD PUSH2 0x219E JUMPI PUSH2 0x219E PUSH2 0x1FEB JUMP JUMPDEST POP PUSH1 0x1 ADD SWAP1 JUMP JUMPDEST PUSH8 0xFFFFFFFFFFFFFFFF DUP4 GT ISZERO PUSH2 0x21BD JUMPI PUSH2 0x21BD PUSH2 0x2054 JUMP JUMPDEST PUSH2 0x21D1 DUP4 PUSH2 0x21CB DUP4 SLOAD PUSH2 0x201A JUMP JUMPDEST DUP4 PUSH2 0x206A JUMP JUMPDEST PUSH1 0x0 PUSH1 0x1F DUP5 GT PUSH1 0x1 DUP2 EQ PUSH2 0x2205 JUMPI PUSH1 0x0 DUP6 ISZERO PUSH2 0x21ED JUMPI POP DUP4 DUP3 ADD CALLDATALOAD JUMPDEST PUSH1 0x0 NOT PUSH1 0x3 DUP8 SWAP1 SHL SHR NOT AND PUSH1 0x1 DUP7 SWAP1 SHL OR DUP4 SSTORE PUSH2 0x225F JUMP JUMPDEST PUSH1 0x0 DUP4 DUP2 MSTORE PUSH1 0x20 SWAP1 KECCAK256 PUSH1 0x1F NOT DUP7 AND SWAP1 DUP4 JUMPDEST DUP3 DUP2 LT ISZERO PUSH2 0x2236 JUMPI DUP7 DUP6 ADD CALLDATALOAD DUP3 SSTORE PUSH1 0x20 SWAP5 DUP6 ADD SWAP5 PUSH1 0x1 SWAP1 SWAP3 ADD SWAP2 ADD PUSH2 0x2216 JUMP JUMPDEST POP DUP7 DUP3 LT ISZERO PUSH2 0x2253 JUMPI PUSH1 0x0 NOT PUSH1 0xF8 DUP9 PUSH1 0x3 SHL AND SHR NOT DUP5 DUP8 ADD CALLDATALOAD AND DUP2 SSTORE JUMPDEST POP POP PUSH1 0x1 DUP6 PUSH1 0x1 SHL ADD DUP4 SSTORE JUMPDEST POP POP POP POP POP JUMP JUMPDEST DUP1 DUP3 MUL DUP2 ISZERO DUP3 DUP3 DIV DUP5 EQ OR PUSH2 0x2014 JUMPI PUSH2 0x2014 PUSH2 0x1FEB JUMP JUMPDEST PUSH1 0x0 DUP3 PUSH2 0x229A JUMPI PUSH4 0x4E487B71 PUSH1 0xE0 SHL PUSH1 0x0 MSTORE PUSH1 0x12 PUSH1 0x4 MSTORE PUSH1 0x24 PUSH1 0x0 REVERT JUMPDEST POP DIV SWAP1 JUMP JUMPDEST PUSH1 0xFF DUP8 AND DUP2 MSTORE PUSH1 0xFF DUP7 AND PUSH1 0x20 DUP3 ADD MSTORE PUSH1 0xA0 PUSH1 0x40 DUP3 ADD MSTORE DUP4 PUSH1 0xA0 DUP3 ADD MSTORE DUP4 DUP6 PUSH1 0xC0 DUP4 ADD CALLDATACOPY PUSH1 0x0 PUSH1 0xC0 DUP6 DUP4 ADD ADD MSTORE PUSH1 0x0 PUSH1 0xC0 PUSH1 0x1F NOT PUSH1 0x1F DUP8 ADD AND DUP4 ADD ADD SWAP1 POP DUP4 PUSH1 0x60 DUP4 ADD MSTORE DUP3 PUSH1 0x80 DUP4 ADD MSTORE SWAP8 SWAP7 POP POP POP POP POP POP POP JUMP JUMPDEST DUP4 DUP2 MSTORE PUSH1 0x60 PUSH1 0x20 DUP3 ADD MSTORE PUSH1 0x0 PUSH2 0x230C PUSH1 0x60 DUP4 ADD DUP6 PUSH2 0x1EEE JUMP JUMPDEST SWAP1 POP DUP3 PUSH1 0x40 DUP4 ADD MSTORE SWAP5 SWAP4 POP POP POP POP JUMP JUMPDEST PUSH4 0x4E487B71 PUSH1 0xE0 SHL PUSH1 0x0 MSTORE PUSH1 0x32 PUSH1 0x4 MSTORE PUSH1 0x24 PUSH1 0x0 REVERT JUMPDEST PUSH1 0x0 PUSH1 0xFF DUP3 AND PUSH1 0xFF DUP2 SUB PUSH2 0x2348 JUMPI PUSH2 0x2348 PUSH2 0x1FEB JUMP JUMPDEST PUSH1 0x1 ADD SWAP3 SWAP2 POP POP JUMP JUMPDEST DUP1 DUP3 ADD DUP1 DUP3 GT ISZERO PUSH2 0x2014 JUMPI PUSH2 0x2014 PUSH2 0x1FEB JUMP INVALID LOG2 PUSH5 0x6970667358 0x22 SLT KECCAK256 0xC2 0xEA 0xCA 0xAD 0xB5 0xAA 0xB3 PUSH10 0x709B3CFFC224DAC18988 CODESIZE PUSH29 0xC3E4A4D3E13F14D0E45A3EBB64736F6C63430008140033000000000000 "},"methodIdentifiers":{"CANVAS_HEIGHT()":"ed4127df","CANVAS_WIDTH()":"71bf439e","DEVELOPER_PERCENTAGE()":"05887b52","INITIAL_PRICE()":"7c5e2795","PREVIOUS_OWNER_PERCENTAGE()":"939da325","PRICE_INCREASE_DIVISOR()":"d422d2d0","PRICE_INCREASE_FACTOR()":"4d4ef3c2","PRIZE_BANK_PERCENTAGE()":"b4cea64a","checkAndEndGame()":"8b235f19","developerWallet()":"185870f9","endGame()":"6cbc2ded","gameActive()":"f020044f","gameStartTime()":"0252b995","getCanvasData()":"b1d5603b","getGameState()":"b7d0628b","getPixel(uint8,uint8)":"3c98c38e","getPixelsByOwner(address)":"c034fe33","getTimeRemainingBeforeEnd()":"21e960dc","inactivityPeriod()":"d362bd2b","lastActivityTime()":"d9747fa3","owner()":"8da5cb5b","pixelCounts(address)":"906de78b","pixels(uint8,uint8)":"ce98f53d","prizeBankBalance()":"71289ae2","purchasePixel(uint8,uint8,string)":"5b0f1139","renounceOwnership()":"715018a6","setDeveloperWallet(address)":"6cd56878","setInactivityPeriod(uint256)":"af434a6d","shouldEndGame()":"c1339217","startGame()":"d65ab5f2","transferOwnership(address)":"f2fde38b"}}}}}