{"contracts/PixelBattle.sol":{"PixelBattle":{"abi":[{"inputs":[{"internalType":"address","name":"_developerWallet","type":"address"}],"stateMutability":"nonpayable","type":"constructor"},{"anonymous":false,"inputs":[{"indexed":false,"internalType":"uint256","name":"timestamp","type":"uint256"},{"indexed":false,"internalType":"address[]","name":"winners","type":"address[]"},{"indexed":false,"internalType":"uint256","name":"prizeAmount","type":"uint256"}],"name":"GameEnded","type":"event"},{"anonymous":false,"inputs":[{"indexed":false,"internalType":"uint256","name":"timestamp","type":"uint256"}],"name":"GameStarted","type":"event"},{"anonymous":false,"inputs":[{"indexed":true,"internalType":"address","name":"previousOwner","type":"address"},{"indexed":true,"internalType":"address","name":"newOwner","type":"address"}],"name":"OwnershipTransferred","type":"event"},{"anonymous":false,"inputs":[{"indexed":true,"internalType":"address","name":"buyer","type":"address"},{"indexed":false,"internalType":"uint8","name":"x","type":"uint8"},{"indexed":false,"internalType":"uint8","name":"y","type":"uint8"},{"indexed":false,"internalType":"string","name":"color","type":"string"},{"indexed":false,"internalType":"uint256","name":"price","type":"uint256"},{"indexed":false,"internalType":"address","name":"previousOwner","type":"address"}],"name":"PixelPurchased","type":"event"},{"anonymous":false,"inputs":[{"indexed":true,"internalType":"address","name":"recipient","type":"address"},{"indexed":false,"internalType":"uint256","name":"amount","type":"uint256"}],"name":"PrizeDistributed","type":"event"},{"inputs":[],"name":"CANVAS_HEIGHT","outputs":[{"internalType":"uint8","name":"","type":"uint8"}],"stateMutability":"view","type":"function"},{"inputs":[],"name":"CANVAS_WIDTH","outputs":[{"internalType":"uint8","name":"","type":"uint8"}],"stateMutability":"view","type":"function"},{"inputs":[],"name":"DEVELOPER_PERCENTAGE","outputs":[{"internalType":"uint8","name":"","type":"uint8"}],"stateMutability":"view","type":"function"},{"inputs":[],"name":"INITIAL_PRICE","outputs":[{"internalType":"uint256","name":"","type":"uint256"}],"stateMutability":"view","type":"function"},{"inputs":[],"name":"PREVIOUS_OWNER_PERCENTAGE","outputs":[{"internalType":"uint8","name":"","type":"uint8"}],"stateMutability":"view","type":"function"},{"inputs":[],"name":"PRICE_INCREASE_DIVISOR","outputs":[{"internalType":"uint256","name":"","type":"uint256"}],"stateMutability":"view","type":"function"},{"inputs":[],"name":"PRICE_INCREASE_FACTOR","outputs":[{"internalType":"uint256","name":"","type":"uint256"}],"stateMutability":"view","type":"function"},{"inputs":[],"name":"PRIZE_BANK_PERCENTAGE","outputs":[{"internalType":"uint8","name":"","type":"uint8"}],"stateMutability":"view","type":"function"},{"inputs":[],"name":"developerWallet","outputs":[{"internalType":"address","name":"","type":"address"}],"stateMutability":"view","type":"function"},{"inputs":[],"name":"endGame","outputs":[],"stateMutability":"nonpayable","type":"function"},{"inputs":[],"name":"gameActive","outputs":[{"internalType":"bool","name":"","type":"bool"}],"stateMutability":"view","type":"function"},{"inputs":[],"name":"gameStartTime","outputs":[{"internalType":"uint256","name":"","type":"uint256"}],"stateMutability":"view","type":"function"},{"inputs":[],"name":"getCanvasData","outputs":[{"internalType":"address[]","name":"owners","type":"address[]"},{"internalType":"string[]","name":"colors","type":"string[]"}],"stateMutability":"view","type":"function"},{"inputs":[],"name":"getGameState","outputs":[{"internalType":"bool","name":"active","type":"bool"},{"internalType":"uint256","name":"startTime","type":"uint256"},{"internalType":"uint256","name":"activity","type":"uint256"},{"internalType":"uint256","name":"inactivity","type":"uint256"},{"internalType":"uint256","name":"prizeBank","type":"uint256"}],"stateMutability":"view","type":"function"},{"inputs":[{"internalType":"uint8","name":"x","type":"uint8"},{"internalType":"uint8","name":"y","type":"uint8"}],"name":"getPixel","outputs":[{"internalType":"address","name":"owner","type":"address"},{"internalType":"uint256","name":"price","type":"uint256"},{"internalType":"string","name":"color","type":"string"},{"internalType":"uint256","name":"lastUpdateTime","type":"uint256"}],"stateMutability":"view","type":"function"},{"inputs":[{"internalType":"address","name":"owner","type":"address"}],"name":"getPixelsByOwner","outputs":[{"internalType":"uint8[]","name":"","type":"uint8[]"}],"stateMutability":"view","type":"function"},{"inputs":[],"name":"inactivityPeriod","outputs":[{"internalType":"uint256","name":"","type":"uint256"}],"stateMutability":"view","type":"function"},{"inputs":[],"name":"lastActivityTime","outputs":[{"internalType":"uint256","name":"","type":"uint256"}],"stateMutability":"view","type":"function"},{"inputs":[],"name":"owner","outputs":[{"internalType":"address","name":"","type":"address"}],"stateMutability":"view","type":"function"},{"inputs":[{"internalType":"address","name":"","type":"address"}],"name":"pixelCounts","outputs":[{"internalType":"uint256","name":"","type":"uint256"}],"stateMutability":"view","type":"function"},{"inputs":[{"internalType":"uint8","name":"","type":"uint8"},{"internalType":"uint8","name":"","type":"uint8"}],"name":"pixels","outputs":[{"internalType":"address","name":"owner","type":"address"},{"internalType":"uint256","name":"price","type":"uint256"},{"internalType":"string","name":"color","type":"string"},{"internalType":"uint256","name":"lastUpdateTime","type":"uint256"}],"stateMutability":"view","type":"function"},{"inputs":[],"name":"prizeBankBalance","outputs":[{"internalType":"uint256","name":"","type":"uint256"}],"stateMutability":"view","type":"function"},{"inputs":[{"internalType":"uint8","name":"x","type":"uint8"},{"internalType":"uint8","name":"y","type":"uint8"},{"internalType":"string","name":"color","type":"string"}],"name":"purchasePixel","outputs":[],"stateMutability":"payable","type":"function"},{"inputs":[],"name":"renounceOwnership","outputs":[],"stateMutability":"nonpayable","type":"function"},{"inputs":[{"internalType":"address","name":"_developerWallet","type":"address"}],"name":"setDeveloperWallet","outputs":[],"stateMutability":"nonpayable","type":"function"},{"inputs":[{"internalType":"uint256","name":"_inactivityPeriod","type":"uint256"}],"name":"setInactivityPeriod","outputs":[],"stateMutability":"nonpayable","type":"function"},{"inputs":[],"name":"shouldEndGame","outputs":[{"internalType":"bool","name":"","type":"bool"}],"stateMutability":"view","type":"function"},{"inputs":[],"name":"startGame","outputs":[],"stateMutability":"nonpayable","type":"function"},{"inputs":[{"internalType":"address","name":"newOwner","type":"address"}],"name":"transferOwnership","outputs":[],"stateMutability":"nonpayable","type":"function"}],"evm":{"bytecode":{"linkReferences":{},"object":"6080604052620151806004556006805460ff191690553480156200002257600080fd5b50604051620020a5380380620020a583398101604081905262000045916200013b565b6200005033620000eb565b600180556001600160a01b038116620000bf5760405162461bcd60e51b815260206004820152602760248201527f446576656c6f7065722077616c6c65742063616e6e6f74206265207a65726f206044820152666164647265737360c81b606482015260840160405180910390fd5b600680546001600160a01b0390921661010002610100600160a81b03199092169190911790556200016d565b600080546001600160a01b038381166001600160a01b0319831681178455604051919092169283917f8be0079c531659141344cd1fd0a4f28419497f9722a3daafe3b4186f6b6457e09190a35050565b6000602082840312156200014e57600080fd5b81516001600160a01b03811681146200016657600080fd5b9392505050565b611f28806200017d6000396000f3fe6080604052600436106101c25760003560e01c8063939da325116100f7578063ce98f53d11610095578063d9747fa311610064578063d9747fa3146104f1578063ed4127df1461030e578063f020044f14610507578063f2fde38b1461052157600080fd5b8063ce98f53d14610491578063d362bd2b146104b1578063d422d2d0146104c7578063d65ab5f2146104dc57600080fd5b8063b4cea64a116100d1578063b4cea64a146103e0578063b7d0628b146103f5578063c034fe331461043f578063c13392171461046c57600080fd5b8063939da32514610388578063af434a6d1461039d578063b1d5603b146103bd57600080fd5b80636cd568781161016457806371bf439e1161013e57806371bf439e1461030e5780637c5e2795146103235780638da5cb5b1461033d578063906de78b1461035b57600080fd5b80636cd56878146102c357806371289ae2146102e3578063715018a6146102f957600080fd5b80633c98c38e116101a05780633c98c38e146102545780634d4ef3c2146102845780635b0f1139146102995780636cbc2ded146102ae57600080fd5b80630252b995146101c757806305887b52146101f0578063185870f914610217575b600080fd5b3480156101d357600080fd5b506101dd60025481565b6040519081526020015b60405180910390f35b3480156101fc57600080fd5b50610205600181565b60405160ff90911681526020016101e7565b34801561022357600080fd5b5060065461023c9061010090046001600160a01b031681565b6040516001600160a01b0390911681526020016101e7565b34801561026057600080fd5b5061027461026f36600461198e565b610541565b6040516101e79493929190611a07565b34801561029057600080fd5b506101dd606e81565b6102ac6102a7366004611a3f565b610699565b005b3480156102ba57600080fd5b506102ac61099e565b3480156102cf57600080fd5b506102ac6102de366004611acd565b610a9d565b3480156102ef57600080fd5b506101dd60055481565b34801561030557600080fd5b506102ac610b33565b34801561031a57600080fd5b50610205602081565b34801561032f57600080fd5b506101dd655af3107a400081565b34801561034957600080fd5b506000546001600160a01b031661023c565b34801561036757600080fd5b506101dd610376366004611acd565b60086020526000908152604090205481565b34801561039457600080fd5b50610205605481565b3480156103a957600080fd5b506102ac6103b8366004611afd565b610b47565b3480156103c957600080fd5b506103d2610b54565b6040516101e7929190611b5a565b3480156103ec57600080fd5b50610205600f81565b34801561040157600080fd5b506006546002546003546004546005546040805160ff909616151586526020860194909452928401919091526060830152608082015260a0016101e7565b34801561044b57600080fd5b5061045f61045a366004611acd565b610d63565b6040516101e79190611bcc565b34801561047857600080fd5b50610481610ee4565b60405190151581526020016101e7565b34801561049d57600080fd5b506102746104ac36600461198e565b610f0c565b3480156104bd57600080fd5b506101dd60045481565b3480156104d357600080fd5b506101dd606481565b3480156104e857600080fd5b506102ac610fd2565b3480156104fd57600080fd5b506101dd60035481565b34801561051357600080fd5b506006546104819060ff1681565b34801561052d57600080fd5b506102ac61053c366004611acd565b61107a565b600080606081602060ff871610801561055d5750602060ff8616105b6105aa5760405162461bcd60e51b8152602060048201526019602482015278436f6f7264696e61746573206f7574206f6620626f756e647360381b60448201526064015b60405180910390fd5b60ff8087166000908152600760209081526040808320938916835292905220805460018201546001600160a01b03909116906105ec57655af3107a40006105f2565b81600101545b82600201836003015481805461060790611c13565b80601f016020809104026020016040519081016040528092919081815260200182805461063390611c13565b80156106805780601f1061065557610100808354040283529160200191610680565b820191906000526020600020905b81548152906001019060200180831161066357829003601f168201915b5050505050915094509450945094505092959194509250565b6106a16110f3565b60065460ff166106e85760405162461bcd60e51b815260206004820152601260248201527147616d65206973206e6f742061637469766560701b60448201526064016105a1565b602060ff85161080156106fe5750602060ff8416105b6107465760405162461bcd60e51b8152602060048201526019602482015278436f6f7264696e61746573206f7574206f6620626f756e647360381b60448201526064016105a1565b60ff80851660009081526007602090815260408083209387168352929052908120600181015490919061077f57655af3107a4000610785565b81600101545b9050803410156107ce5760405162461bcd60e51b8152602060048201526014602482015273125b9cdd59999a58da595b9d081c185e5b595b9d60621b60448201526064016105a1565b81546001600160a01b03198116331783556001600160a01b0316600283016107f7858783611ca9565b50426003840155606461080b606e84611d7f565b6108159190611d9c565b60018401556001600160a01b0381161580159061083b57506001600160a01b0381163314155b1561086a576001600160a01b038116600090815260086020526040812080549161086483611dbe565b91905055505b6001600160a01b038116331461089b5733600090815260086020526040812080549161089583611dd5565b91905055505b6108a5818361114c565b60006108b18334611dee565b9050801561094357604051600090339083908381818185875af1925050503d80600081146108fb576040519150601f19603f3d011682016040523d82523d6000602084013e610900565b606091505b50509050806109415760405162461bcd60e51b815260206004820152600d60248201526c1499599d5b990819985a5b1959609a1b60448201526064016105a1565b505b4260035560405133907f7e80ad85a150f4309a7c9cbbda12cd712a0b7361a2f5f69d4e6422524f7e6a2390610983908b908b908b908b908a908a90611e01565b60405180910390a25050505061099860018055565b50505050565b60065460ff166109e55760405162461bcd60e51b815260206004820152601260248201527147616d65206973206e6f742061637469766560701b60448201526064016105a1565b6109ed610ee4565b610a395760405162461bcd60e51b815260206004820152601860248201527f47616d652063616e6e6f7420626520656e64656420796574000000000000000060448201526064016105a1565b6006805460ff191690556000610a4d61134d565b9050610a58816116a5565b7fe785b815d6374b945ba141337a5ca73fabb4f42f6c2012a028c404f3ad1410464282600554604051610a8d93929190611e5e565b60405180910390a1506000600555565b610aa56118ce565b6001600160a01b038116610b0b5760405162461bcd60e51b815260206004820152602760248201527f446576656c6f7065722077616c6c65742063616e6e6f74206265207a65726f206044820152666164647265737360c81b60648201526084016105a1565b600680546001600160a01b0390921661010002610100600160a81b0319909216919091179055565b610b3b6118ce565b610b456000611928565b565b610b4f6118ce565b600455565b6060806000610b64602080611e87565b60ff1690508067ffffffffffffffff811115610b8257610b82611c4d565b604051908082528060200260200182016040528015610bab578160200160208202803683370190505b5092508067ffffffffffffffff811115610bc757610bc7611c4d565b604051908082528060200260200182016040528015610bfa57816020015b6060815260200190600190039081610be55790505b5091506000805b602060ff82161015610d5c5760005b602060ff82161015610d495760ff8082166000908152600760209081526040808320938616835292905220805487516001600160a01b0390911690889086908110610c5d57610c5d611eaa565b60200260200101906001600160a01b031690816001600160a01b031681525050806002018054610c8c90611c13565b80601f0160208091040260200160405190810160405280929190818152602001828054610cb890611c13565b8015610d055780601f10610cda57610100808354040283529160200191610d05565b820191906000526020600020905b815481529060010190602001808311610ce857829003601f168201915b5050505050868581518110610d1c57610d1c611eaa565b60200260200101819052508380610d3290611dd5565b945050508080610d4190611ec0565b915050610c10565b5080610d5481611ec0565b915050610c01565b5050509091565b6001600160a01b038116600090815260086020526040812054606091610d8a826002611d7f565b67ffffffffffffffff811115610da257610da2611c4d565b604051908082528060200260200182016040528015610dcb578160200160208202803683370190505b50905081600003610ddd579392505050565b6000805b602060ff82161015610eda5760005b602060ff82161015610ebf5760ff8083166000908152600760209081526040808320938516835292905220546001600160a01b03808916911603610ead578184610e3b856002611d7f565b81518110610e4b57610e4b611eaa565b60ff909216602092830291909101909101528084610e6a856002611d7f565b610e75906001611edf565b81518110610e8557610e85611eaa565b60ff9092166020928302919091019091015282610ea181611dd5565b93505084831015610ebf575b80610eb781611ec0565b915050610df0565b5083821015610eda5780610ed281611ec0565b915050610de1565b5090949350505050565b60065460009060ff168015610f075750600454600354610f049042611dee565b10155b905090565b60076020908152600092835260408084209091529082529020805460018201546002830180546001600160a01b03909316939192610f4990611c13565b80601f0160208091040260200160405190810160405280929190818152602001828054610f7590611c13565b8015610fc25780601f10610f9757610100808354040283529160200191610fc2565b820191906000526020600020905b815481529060010190602001808311610fa557829003601f168201915b5050505050908060030154905084565b610fda6118ce565b60065460ff16156110265760405162461bcd60e51b815260206004820152601660248201527547616d6520697320616c72656164792061637469766560501b60448201526064016105a1565b6006805460ff1916600117905542600281905560038190556040517f50ad08f58a27f2851d7e3a1b3a6a46b290f2ce677e99642d30ff639721e77790916110709190815260200190565b60405180910390a1565b6110826118ce565b6001600160a01b0381166110e75760405162461bcd60e51b815260206004820152602660248201527f4f776e61626c653a206e6577206f776e657220697320746865207a65726f206160448201526564647265737360d01b60648201526084016105a1565b6110f081611928565b50565b6002600154036111455760405162461bcd60e51b815260206004820152601f60248201527f5265656e7472616e637947756172643a207265656e7472616e742063616c6c0060448201526064016105a1565b6002600155565b600080606461115c600f85611d7f565b6111669190611d9c565b905060006064611177600186611d7f565b6111819190611d9c565b90506001600160a01b0385161561125b57606461119f605486611d7f565b6111a99190611d9c565b92508215611256576000856001600160a01b03168460405160006040518083038185875af1925050503d80600081146111fe576040519150601f19603f3d011682016040523d82523d6000602084013e611203565b606091505b50509050806112545760405162461bcd60e51b815260206004820181905260248201527f5061796d656e7420746f2070726576696f7573206f776e6572206661696c656460448201526064016105a1565b505b61127f565b6064611268605486611d7f565b6112729190611d9c565b61127c9083611edf565b91505b81600560008282546112919190611edf565b909155505080156113465760065460405160009161010090046001600160a01b03169083908381818185875af1925050503d80600081146112ee576040519150601f19603f3d011682016040523d82523d6000602084013e6112f3565b606091505b50509050806113445760405162461bcd60e51b815260206004820152601b60248201527f5061796d656e7420746f20646576656c6f706572206661696c6564000000000060448201526064016105a1565b505b5050505050565b60606000806000805b602060ff821610156113d25760005b602060ff821610156113bf5760ff8083166000908152600760209081526040808320938516835292905220546001600160a01b0316156113ad57826113a981611dd5565b9350505b806113b781611ec0565b915050611365565b50806113ca81611ec0565b915050611356565b5060008167ffffffffffffffff8111156113ee576113ee611c4d565b604051908082528060200260200182016040528015611417578160200160208202803683370190505b5090506000805b602060ff8216101561159b5760005b602060ff821610156115885760ff8083166000908152600760209081526040808320938516835292905220546001600160a01b03168015611575576000805b858110156114c157826001600160a01b031687828151811061149057611490611eaa565b60200260200101516001600160a01b0316036114af57600191506114c1565b806114b981611dd5565b91505061146c565b508061157357818686815181106114da576114da611eaa565b6001600160a01b0390921660209283029190910190910152846114fc81611dd5565b6001600160a01b0384166000908152600860205260409020549096508a10159050611545576001600160a01b038216600090815260086020526040902054985060019750611573565b6001600160a01b038216600090815260086020526040902054899003611573578761156f81611dd5565b9850505b505b508061158081611ec0565b91505061142d565b508061159381611ec0565b91505061141e565b5060008467ffffffffffffffff8111156115b7576115b7611c4d565b6040519080825280602002602001820160405280156115e0578160200160208202803683370190505b5090506000805b8381101561169857876008600087848151811061160657611606611eaa565b60200260200101516001600160a01b03166001600160a01b0316815260200190815260200160002054036116865784818151811061164657611646611eaa565b602002602001015183838151811061166057611660611eaa565b6001600160a01b03909216602092830291909101909101528161168281611dd5565b9250505b8061169081611dd5565b9150506115e7565b5090979650505050505050565b805115806116b35750600554155b156116bb5750565b6000805b602060ff8216101561173b5760005b602060ff821610156117285760ff8083166000908152600760209081526040808320938516835292905220546001600160a01b031615611716578261171281611dd5565b9350505b8061172081611ec0565b9150506116ce565b508061173381611ec0565b9150506116bf565b5080600003611748575050565b60005b602060ff821610156118c95760005b602060ff821610156118b65760ff8083166000908152600760209081526040808320938516835292905220546001600160a01b031680156118a35760008460055460016117a79190611d7f565b6117b19190611d9c565b905080156118a1576000826001600160a01b03168260405160006040518083038185875af1925050503d8060008114611806576040519150601f19603f3d011682016040523d82523d6000602084013e61180b565b606091505b505090508061185c5760405162461bcd60e51b815260206004820152601960248201527f5072697a6520646973747269627574696f6e206661696c65640000000000000060448201526064016105a1565b826001600160a01b03167fb8e091d87f82e56d22276c9a0088ea5d6068e355383dc08b2721b7b6cb10e8458360405161189791815260200190565b60405180910390a2505b505b50806118ae81611ec0565b91505061175a565b50806118c181611ec0565b91505061174b565b505050565b6000546001600160a01b03163314610b455760405162461bcd60e51b815260206004820181905260248201527f4f776e61626c653a2063616c6c6572206973206e6f7420746865206f776e657260448201526064016105a1565b600080546001600160a01b038381166001600160a01b0319831681178455604051919092169283917f8be0079c531659141344cd1fd0a4f28419497f9722a3daafe3b4186f6b6457e09190a35050565b803560ff8116811461198957600080fd5b919050565b600080604083850312156119a157600080fd5b6119aa83611978565b91506119b860208401611978565b90509250929050565b6000815180845260005b818110156119e7576020818501810151868301820152016119cb565b506000602082860101526020601f19601f83011685010191505092915050565b60018060a01b0385168152836020820152608060408201526000611a2e60808301856119c1565b905082606083015295945050505050565b60008060008060608587031215611a5557600080fd5b611a5e85611978565b9350611a6c60208601611978565b9250604085013567ffffffffffffffff80821115611a8957600080fd5b818701915087601f830112611a9d57600080fd5b813581811115611aac57600080fd5b886020828501011115611abe57600080fd5b95989497505060200194505050565b600060208284031215611adf57600080fd5b81356001600160a01b0381168114611af657600080fd5b9392505050565b600060208284031215611b0f57600080fd5b5035919050565b600081518084526020808501945080840160005b83811015611b4f5781516001600160a01b031687529582019590820190600101611b2a565b509495945050505050565b604081526000611b6d6040830185611b16565b6020838203818501528185518084528284019150828160051b85010183880160005b83811015611bbd57601f19878403018552611bab8383516119c1565b94860194925090850190600101611b8f565b50909998505050505050505050565b6020808252825182820181905260009190848201906040850190845b81811015611c0757835160ff1683529284019291840191600101611be8565b50909695505050505050565b600181811c90821680611c2757607f821691505b602082108103611c4757634e487b7160e01b600052602260045260246000fd5b50919050565b634e487b7160e01b600052604160045260246000fd5b601f8211156118c957600081815260208120601f850160051c81016020861015611c8a5750805b601f850160051c820191505b8181101561134457828155600101611c96565b67ffffffffffffffff831115611cc157611cc1611c4d565b611cd583611ccf8354611c13565b83611c63565b6000601f841160018114611d095760008515611cf15750838201355b600019600387901b1c1916600186901b178355611346565b600083815260209020601f19861690835b82811015611d3a5786850135825560209485019460019092019101611d1a565b5086821015611d575760001960f88860031b161c19848701351681555b505060018560011b0183555050505050565b634e487b7160e01b600052601160045260246000fd5b8082028115828204841417611d9657611d96611d69565b92915050565b600082611db957634e487b7160e01b600052601260045260246000fd5b500490565b600081611dcd57611dcd611d69565b506000190190565b600060018201611de757611de7611d69565b5060010190565b81810381811115611d9657611d96611d69565b60ff8716815260ff8616602082015260a060408201528360a0820152838560c0830137600060c085830181019190915260608201939093526001600160a01b03919091166080820152601f909201601f1916909101019392505050565b838152606060208201526000611e776060830185611b16565b9050826040830152949350505050565b60ff8181168382160290811690818114611ea357611ea3611d69565b5092915050565b634e487b7160e01b600052603260045260246000fd5b600060ff821660ff8103611ed657611ed6611d69565b60010192915050565b80820180821115611d9657611d96611d6956fea26469706673582212201c1fe4b36ef7985d5351e291f878bd0059005d0509409fe7a84230626889204664736f6c63430008140033","opcodes":"PUSH1 0x80 PUSH1 0x40 MSTORE PUSH3 0x15180 PUSH1 0x4 SSTORE PUSH1 0x6 DUP1 SLOAD PUSH1 0xFF NOT AND SWAP1 SSTORE CALLVALUE DUP1 ISZERO PUSH3 0x22 JUMPI PUSH1 0x0 DUP1 REVERT JUMPDEST POP PUSH1 0x40 MLOAD PUSH3 0x20A5 CODESIZE SUB DUP1 PUSH3 0x20A5 DUP4 CODECOPY DUP2 ADD PUSH1 0x40 DUP2 SWAP1 MSTORE PUSH3 0x45 SWAP2 PUSH3 0x13B JUMP JUMPDEST PUSH3 0x50 CALLER PUSH3 0xEB JUMP JUMPDEST PUSH1 0x1 DUP1 SSTORE PUSH1 0x1 PUSH1 0x1 PUSH1 0xA0 SHL SUB DUP2 AND PUSH3 0xBF JUMPI PUSH1 0x40 MLOAD PUSH3 0x461BCD PUSH1 0xE5 SHL DUP2 MSTORE PUSH1 0x20 PUSH1 0x4 DUP3 ADD MSTORE PUSH1 0x27 PUSH1 0x24 DUP3 ADD MSTORE PUSH32 0x446576656C6F7065722077616C6C65742063616E6E6F74206265207A65726F20 PUSH1 0x44 DUP3 ADD MSTORE PUSH7 0x61646472657373 PUSH1 0xC8 SHL PUSH1 0x64 DUP3 ADD MSTORE PUSH1 0x84 ADD PUSH1 0x40 MLOAD DUP1 SWAP2 SUB SWAP1 REVERT JUMPDEST PUSH1 0x6 DUP1 SLOAD PUSH1 0x1 PUSH1 0x1 PUSH1 0xA0 SHL SUB SWAP1 SWAP3 AND PUSH2 0x100 MUL PUSH2 0x100 PUSH1 0x1 PUSH1 0xA8 SHL SUB NOT SWAP1 SWAP3 AND SWAP2 SWAP1 SWAP2 OR SWAP1 SSTORE PUSH3 0x16D JUMP JUMPDEST PUSH1 0x0 DUP1 SLOAD PUSH1 0x1 PUSH1 0x1 PUSH1 0xA0 SHL SUB DUP4 DUP2 AND PUSH1 0x1 PUSH1 0x1 PUSH1 0xA0 SHL SUB NOT DUP4 AND DUP2 OR DUP5 SSTORE PUSH1 0x40 MLOAD SWAP2 SWAP1 SWAP3 AND SWAP3 DUP4 SWAP2 PUSH32 0x8BE0079C531659141344CD1FD0A4F28419497F9722A3DAAFE3B4186F6B6457E0 SWAP2 SWAP1 LOG3 POP POP JUMP JUMPDEST PUSH1 0x0 PUSH1 0x20 DUP3 DUP5 SUB SLT ISZERO PUSH3 0x14E JUMPI PUSH1 0x0 DUP1 REVERT JUMPDEST DUP2 MLOAD PUSH1 0x1 PUSH1 0x1 PUSH1 0xA0 SHL SUB DUP2 AND DUP2 EQ PUSH3 0x166 JUMPI PUSH1 0x0 DUP1 REVERT JUMPDEST SWAP4 SWAP3 POP POP POP JUMP JUMPDEST PUSH2 0x1F28 DUP1 PUSH3 0x17D PUSH1 0x0 CODECOPY PUSH1 0x0 RETURN INVALID PUSH1 0x80 PUSH1 0x40 MSTORE PUSH1 0x4 CALLDATASIZE LT PUSH2 0x1C2 JUMPI PUSH1 0x0 CALLDATALOAD PUSH1 0xE0 SHR DUP1 PUSH4 0x939DA325 GT PUSH2 0xF7 JUMPI DUP1 PUSH4 0xCE98F53D GT PUSH2 0x95 JUMPI DUP1 PUSH4 0xD9747FA3 GT PUSH2 0x64 JUMPI DUP1 PUSH4 0xD9747FA3 EQ PUSH2 0x4F1 JUMPI DUP1 PUSH4 0xED4127DF EQ PUSH2 0x30E JUMPI DUP1 PUSH4 0xF020044F EQ PUSH2 0x507 JUMPI DUP1 PUSH4 0xF2FDE38B EQ PUSH2 0x521 JUMPI PUSH1 0x0 DUP1 REVERT JUMPDEST DUP1 PUSH4 0xCE98F53D EQ PUSH2 0x491 JUMPI DUP1 PUSH4 0xD362BD2B EQ PUSH2 0x4B1 JUMPI DUP1 PUSH4 0xD422D2D0 EQ PUSH2 0x4C7 JUMPI DUP1 PUSH4 0xD65AB5F2 EQ PUSH2 0x4DC JUMPI PUSH1 0x0 DUP1 REVERT JUMPDEST DUP1 PUSH4 0xB4CEA64A GT PUSH2 0xD1 JUMPI DUP1 PUSH4 0xB4CEA64A EQ PUSH2 0x3E0 JUMPI DUP1 PUSH4 0xB7D0628B EQ PUSH2 0x3F5 JUMPI DUP1 PUSH4 0xC034FE33 EQ PUSH2 0x43F JUMPI DUP1 PUSH4 0xC1339217 EQ PUSH2 0x46C JUMPI PUSH1 0x0 DUP1 REVERT JUMPDEST DUP1 PUSH4 0x939DA325 EQ PUSH2 0x388 JUMPI DUP1 PUSH4 0xAF434A6D EQ PUSH2 0x39D JUMPI DUP1 PUSH4 0xB1D5603B EQ PUSH2 0x3BD JUMPI PUSH1 0x0 DUP1 REVERT JUMPDEST DUP1 PUSH4 0x6CD56878 GT PUSH2 0x164 JUMPI DUP1 PUSH4 0x71BF439E GT PUSH2 0x13E JUMPI DUP1 PUSH4 0x71BF439E EQ PUSH2 0x30E JUMPI DUP1 PUSH4 0x7C5E2795 EQ PUSH2 0x323 JUMPI DUP1 PUSH4 0x8DA5CB5B EQ PUSH2 0x33D JUMPI DUP1 PUSH4 0x906DE78B EQ PUSH2 0x35B JUMPI PUSH1 0x0 DUP1 REVERT JUMPDEST DUP1 PUSH4 0x6CD56878 EQ PUSH2 0x2C3 JUMPI DUP1 PUSH4 0x71289AE2 EQ PUSH2 0x2E3 JUMPI DUP1 PUSH4 0x715018A6 EQ PUSH2 0x2F9 JUMPI PUSH1 0x0 DUP1 REVERT JUMPDEST DUP1 PUSH4 0x3C98C38E GT PUSH2 0x1A0 JUMPI DUP1 PUSH4 0x3C98C38E EQ PUSH2 0x254 JUMPI DUP1 PUSH4 0x4D4EF3C2 EQ PUSH2 0x284 JUMPI DUP1 PUSH4 0x5B0F1139 EQ PUSH2 0x299 JUMPI DUP1 PUSH4 0x6CBC2DED EQ PUSH2 0x2AE JUMPI PUSH1 0x0 DUP1 REVERT JUMPDEST DUP1 PUSH4 0x252B995 EQ PUSH2 0x1C7 JUMPI DUP1 PUSH4 0x5887B52 EQ PUSH2 0x1F0 JUMPI DUP1 PUSH4 0x185870F9 EQ PUSH2 0x217 JUMPI JUMPDEST PUSH1 0x0 DUP1 REVERT JUMPDEST CALLVALUE DUP1 ISZERO PUSH2 0x1D3 JUMPI PUSH1 0x0 DUP1 REVERT JUMPDEST POP PUSH2 0x1DD PUSH1 0x2 SLOAD DUP2 JUMP JUMPDEST PUSH1 0x40 MLOAD SWAP1 DUP2 MSTORE PUSH1 0x20 ADD JUMPDEST PUSH1 0x40 MLOAD DUP1 SWAP2 SUB SWAP1 RETURN JUMPDEST CALLVALUE DUP1 ISZERO PUSH2 0x1FC JUMPI PUSH1 0x0 DUP1 REVERT JUMPDEST POP PUSH2 0x205 PUSH1 0x1 DUP2 JUMP JUMPDEST PUSH1 0x40 MLOAD PUSH1 0xFF SWAP1 SWAP2 AND DUP2 MSTORE PUSH1 0x20 ADD PUSH2 0x1E7 JUMP JUMPDEST CALLVALUE DUP1 ISZERO PUSH2 0x223 JUMPI PUSH1 0x0 DUP1 REVERT JUMPDEST POP PUSH1 0x6 SLOAD PUSH2 0x23C SWAP1 PUSH2 0x100 SWAP1 DIV PUSH1 0x1 PUSH1 0x1 PUSH1 0xA0 SHL SUB AND DUP2 JUMP JUMPDEST PUSH1 0x40 MLOAD PUSH1 0x1 PUSH1 0x1 PUSH1 0xA0 SHL SUB SWAP1 SWAP2 AND DUP2 MSTORE PUSH1 0x20 ADD PUSH2 0x1E7 JUMP JUMPDEST CALLVALUE DUP1 ISZERO PUSH2 0x260 JUMPI PUSH1 0x0 DUP1 REVERT JUMPDEST POP PUSH2 0x274 PUSH2 0x26F CALLDATASIZE PUSH1 0x4 PUSH2 0x198E JUMP JUMPDEST PUSH2 0x541 JUMP JUMPDEST PUSH1 0x40 MLOAD PUSH2 0x1E7 SWAP5 SWAP4 SWAP3 SWAP2 SWAP1 PUSH2 0x1A07 JUMP JUMPDEST CALLVALUE DUP1 ISZERO PUSH2 0x290 JUMPI PUSH1 0x0 DUP1 REVERT JUMPDEST POP PUSH2 0x1DD PUSH1 0x6E DUP2 JUMP JUMPDEST PUSH2 0x2AC PUSH2 0x2A7 CALLDATASIZE PUSH1 0x4 PUSH2 0x1A3F JUMP JUMPDEST PUSH2 0x699 JUMP JUMPDEST STOP JUMPDEST CALLVALUE DUP1 ISZERO PUSH2 0x2BA JUMPI PUSH1 0x0 DUP1 REVERT JUMPDEST POP PUSH2 0x2AC PUSH2 0x99E JUMP JUMPDEST CALLVALUE DUP1 ISZERO PUSH2 0x2CF JUMPI PUSH1 0x0 DUP1 REVERT JUMPDEST POP PUSH2 0x2AC PUSH2 0x2DE CALLDATASIZE PUSH1 0x4 PUSH2 0x1ACD JUMP JUMPDEST PUSH2 0xA9D JUMP JUMPDEST CALLVALUE DUP1 ISZERO PUSH2 0x2EF JUMPI PUSH1 0x0 DUP1 REVERT JUMPDEST POP PUSH2 0x1DD PUSH1 0x5 SLOAD DUP2 JUMP JUMPDEST CALLVALUE DUP1 ISZERO PUSH2 0x305 JUMPI PUSH1 0x0 DUP1 REVERT JUMPDEST POP PUSH2 0x2AC PUSH2 0xB33 JUMP JUMPDEST CALLVALUE DUP1 ISZERO PUSH2 0x31A JUMPI PUSH1 0x0 DUP1 REVERT JUMPDEST POP PUSH2 0x205 PUSH1 0x20 DUP2 JUMP JUMPDEST CALLVALUE DUP1 ISZERO PUSH2 0x32F JUMPI PUSH1 0x0 DUP1 REVERT JUMPDEST POP PUSH2 0x1DD PUSH6 0x5AF3107A4000 DUP2 JUMP JUMPDEST CALLVALUE DUP1 ISZERO PUSH2 0x349 JUMPI PUSH1 0x0 DUP1 REVERT JUMPDEST POP PUSH1 0x0 SLOAD PUSH1 0x1 PUSH1 0x1 PUSH1 0xA0 SHL SUB AND PUSH2 0x23C JUMP JUMPDEST CALLVALUE DUP1 ISZERO PUSH2 0x367 JUMPI PUSH1 0x0 DUP1 REVERT JUMPDEST POP PUSH2 0x1DD PUSH2 0x376 CALLDATASIZE PUSH1 0x4 PUSH2 0x1ACD JUMP JUMPDEST PUSH1 0x8 PUSH1 0x20 MSTORE PUSH1 0x0 SWAP1 DUP2 MSTORE PUSH1 0x40 SWAP1 KECCAK256 SLOAD DUP2 JUMP JUMPDEST CALLVALUE DUP1 ISZERO PUSH2 0x394 JUMPI PUSH1 0x0 DUP1 REVERT JUMPDEST POP PUSH2 0x205 PUSH1 0x54 DUP2 JUMP JUMPDEST CALLVALUE DUP1 ISZERO PUSH2 0x3A9 JUMPI PUSH1 0x0 DUP1 REVERT JUMPDEST POP PUSH2 0x2AC PUSH2 0x3B8 CALLDATASIZE PUSH1 0x4 PUSH2 0x1AFD JUMP JUMPDEST PUSH2 0xB47 JUMP JUMPDEST CALLVALUE DUP1 ISZERO PUSH2 0x3C9 JUMPI PUSH1 0x0 DUP1 REVERT JUMPDEST POP PUSH2 0x3D2 PUSH2 0xB54 JUMP JUMPDEST PUSH1 0x40 MLOAD PUSH2 0x1E7 SWAP3 SWAP2 SWAP1 PUSH2 0x1B5A JUMP JUMPDEST CALLVALUE DUP1 ISZERO PUSH2 0x3EC JUMPI PUSH1 0x0 DUP1 REVERT JUMPDEST POP PUSH2 0x205 PUSH1 0xF DUP2 JUMP JUMPDEST CALLVALUE DUP1 ISZERO PUSH2 0x401 JUMPI PUSH1 0x0 DUP1 REVERT JUMPDEST POP PUSH1 0x6 SLOAD PUSH1 0x2 SLOAD PUSH1 0x3 SLOAD PUSH1 0x4 SLOAD PUSH1 0x5 SLOAD PUSH1 0x40 DUP1 MLOAD PUSH1 0xFF SWAP1 SWAP7 AND ISZERO ISZERO DUP7 MSTORE PUSH1 0x20 DUP7 ADD SWAP5 SWAP1 SWAP5 MSTORE SWAP3 DUP5 ADD SWAP2 SWAP1 SWAP2 MSTORE PUSH1 0x60 DUP4 ADD MSTORE PUSH1 0x80 DUP3 ADD MSTORE PUSH1 0xA0 ADD PUSH2 0x1E7 JUMP JUMPDEST CALLVALUE DUP1 ISZERO PUSH2 0x44B JUMPI PUSH1 0x0 DUP1 REVERT JUMPDEST POP PUSH2 0x45F PUSH2 0x45A CALLDATASIZE PUSH1 0x4 PUSH2 0x1ACD JUMP JUMPDEST PUSH2 0xD63 JUMP JUMPDEST PUSH1 0x40 MLOAD PUSH2 0x1E7 SWAP2 SWAP1 PUSH2 0x1BCC JUMP JUMPDEST CALLVALUE DUP1 ISZERO PUSH2 0x478 JUMPI PUSH1 0x0 DUP1 REVERT JUMPDEST POP PUSH2 0x481 PUSH2 0xEE4 JUMP JUMPDEST PUSH1 0x40 MLOAD SWAP1 ISZERO ISZERO DUP2 MSTORE PUSH1 0x20 ADD PUSH2 0x1E7 JUMP JUMPDEST CALLVALUE DUP1 ISZERO PUSH2 0x49D JUMPI PUSH1 0x0 DUP1 REVERT JUMPDEST POP PUSH2 0x274 PUSH2 0x4AC CALLDATASIZE PUSH1 0x4 PUSH2 0x198E JUMP JUMPDEST PUSH2 0xF0C JUMP JUMPDEST CALLVALUE DUP1 ISZERO PUSH2 0x4BD JUMPI PUSH1 0x0 DUP1 REVERT JUMPDEST POP PUSH2 0x1DD PUSH1 0x4 SLOAD DUP2 JUMP JUMPDEST CALLVALUE DUP1 ISZERO PUSH2 0x4D3 JUMPI PUSH1 0x0 DUP1 REVERT JUMPDEST POP PUSH2 0x1DD PUSH1 0x64 DUP2 JUMP JUMPDEST CALLVALUE DUP1 ISZERO PUSH2 0x4E8 JUMPI PUSH1 0x0 DUP1 REVERT JUMPDEST POP PUSH2 0x2AC PUSH2 0xFD2 JUMP JUMPDEST CALLVALUE DUP1 ISZERO PUSH2 0x4FD JUMPI PUSH1 0x0 DUP1 REVERT JUMPDEST POP PUSH2 0x1DD PUSH1 0x3 SLOAD DUP2 JUMP JUMPDEST CALLVALUE DUP1 ISZERO PUSH2 0x513 JUMPI PUSH1 0x0 DUP1 REVERT JUMPDEST POP PUSH1 0x6 SLOAD PUSH2 0x481 SWAP1 PUSH1 0xFF AND DUP2 JUMP JUMPDEST CALLVALUE DUP1 ISZERO PUSH2 0x52D JUMPI PUSH1 0x0 DUP1 REVERT JUMPDEST POP PUSH2 0x2AC PUSH2 0x53C CALLDATASIZE PUSH1 0x4 PUSH2 0x1ACD JUMP JUMPDEST PUSH2 0x107A JUMP JUMPDEST PUSH1 0x0 DUP1 PUSH1 0x60 DUP2 PUSH1 0x20 PUSH1 0xFF DUP8 AND LT DUP1 ISZERO PUSH2 0x55D JUMPI POP PUSH1 0x20 PUSH1 0xFF DUP7 AND LT JUMPDEST PUSH2 0x5AA JUMPI PUSH1 0x40 MLOAD PUSH3 0x461BCD PUSH1 0xE5 SHL DUP2 MSTORE PUSH1 0x20 PUSH1 0x4 DUP3 ADD MSTORE PUSH1 0x19 PUSH1 0x24 DUP3 ADD MSTORE PUSH25 0x436F6F7264696E61746573206F7574206F6620626F756E6473 PUSH1 0x38 SHL PUSH1 0x44 DUP3 ADD MSTORE PUSH1 0x64 ADD JUMPDEST PUSH1 0x40 MLOAD DUP1 SWAP2 SUB SWAP1 REVERT JUMPDEST PUSH1 0xFF DUP1 DUP8 AND PUSH1 0x0 SWAP1 DUP2 MSTORE PUSH1 0x7 PUSH1 0x20 SWAP1 DUP2 MSTORE PUSH1 0x40 DUP1 DUP4 KECCAK256 SWAP4 DUP10 AND DUP4 MSTORE SWAP3 SWAP1 MSTORE KECCAK256 DUP1 SLOAD PUSH1 0x1 DUP3 ADD SLOAD PUSH1 0x1 PUSH1 0x1 PUSH1 0xA0 SHL SUB SWAP1 SWAP2 AND SWAP1 PUSH2 0x5EC JUMPI PUSH6 0x5AF3107A4000 PUSH2 0x5F2 JUMP JUMPDEST DUP2 PUSH1 0x1 ADD SLOAD JUMPDEST DUP3 PUSH1 0x2 ADD DUP4 PUSH1 0x3 ADD SLOAD DUP2 DUP1 SLOAD PUSH2 0x607 SWAP1 PUSH2 0x1C13 JUMP JUMPDEST DUP1 PUSH1 0x1F ADD PUSH1 0x20 DUP1 SWAP2 DIV MUL PUSH1 0x20 ADD PUSH1 0x40 MLOAD SWAP1 DUP2 ADD PUSH1 0x40 MSTORE DUP1 SWAP3 SWAP2 SWAP1 DUP2 DUP2 MSTORE PUSH1 0x20 ADD DUP3 DUP1 SLOAD PUSH2 0x633 SWAP1 PUSH2 0x1C13 JUMP JUMPDEST DUP1 ISZERO PUSH2 0x680 JUMPI DUP1 PUSH1 0x1F LT PUSH2 0x655 JUMPI PUSH2 0x100 DUP1 DUP4 SLOAD DIV MUL DUP4 MSTORE SWAP2 PUSH1 0x20 ADD SWAP2 PUSH2 0x680 JUMP JUMPDEST DUP3 ADD SWAP2 SWAP1 PUSH1 0x0 MSTORE PUSH1 0x20 PUSH1 0x0 KECCAK256 SWAP1 JUMPDEST DUP2 SLOAD DUP2 MSTORE SWAP1 PUSH1 0x1 ADD SWAP1 PUSH1 0x20 ADD DUP1 DUP4 GT PUSH2 0x663 JUMPI DUP3 SWAP1 SUB PUSH1 0x1F AND DUP3 ADD SWAP2 JUMPDEST POP POP POP POP POP SWAP2 POP SWAP5 POP SWAP5 POP SWAP5 POP SWAP5 POP POP SWAP3 SWAP6 SWAP2 SWAP5 POP SWAP3 POP JUMP JUMPDEST PUSH2 0x6A1 PUSH2 0x10F3 JUMP JUMPDEST PUSH1 0x6 SLOAD PUSH1 0xFF AND PUSH2 0x6E8 JUMPI PUSH1 0x40 MLOAD PUSH3 0x461BCD PUSH1 0xE5 SHL DUP2 MSTORE PUSH1 0x20 PUSH1 0x4 DUP3 ADD MSTORE PUSH1 0x12 PUSH1 0x24 DUP3 ADD MSTORE PUSH18 0x47616D65206973206E6F7420616374697665 PUSH1 0x70 SHL PUSH1 0x44 DUP3 ADD MSTORE PUSH1 0x64 ADD PUSH2 0x5A1 JUMP JUMPDEST PUSH1 0x20 PUSH1 0xFF DUP6 AND LT DUP1 ISZERO PUSH2 0x6FE JUMPI POP PUSH1 0x20 PUSH1 0xFF DUP5 AND LT JUMPDEST PUSH2 0x746 JUMPI PUSH1 0x40 MLOAD PUSH3 0x461BCD PUSH1 0xE5 SHL DUP2 MSTORE PUSH1 0x20 PUSH1 0x4 DUP3 ADD MSTORE PUSH1 0x19 PUSH1 0x24 DUP3 ADD MSTORE PUSH25 0x436F6F7264696E61746573206F7574206F6620626F756E6473 PUSH1 0x38 SHL PUSH1 0x44 DUP3 ADD MSTORE PUSH1 0x64 ADD PUSH2 0x5A1 JUMP JUMPDEST PUSH1 0xFF DUP1 DUP6 AND PUSH1 0x0 SWAP1 DUP2 MSTORE PUSH1 0x7 PUSH1 0x20 SWAP1 DUP2 MSTORE PUSH1 0x40 DUP1 DUP4 KECCAK256 SWAP4 DUP8 AND DUP4 MSTORE SWAP3 SWAP1 MSTORE SWAP1 DUP2 KECCAK256 PUSH1 0x1 DUP2 ADD SLOAD SWAP1 SWAP2 SWAP1 PUSH2 0x77F JUMPI PUSH6 0x5AF3107A4000 PUSH2 0x785 JUMP JUMPDEST DUP2 PUSH1 0x1 ADD SLOAD JUMPDEST SWAP1 POP DUP1 CALLVALUE LT ISZERO PUSH2 0x7CE JUMPI PUSH1 0x40 MLOAD PUSH3 0x461BCD PUSH1 0xE5 SHL DUP2 MSTORE PUSH1 0x20 PUSH1 0x4 DUP3 ADD MSTORE PUSH1 0x14 PUSH1 0x24 DUP3 ADD MSTORE PUSH20 0x125B9CDD59999A58DA595B9D081C185E5B595B9D PUSH1 0x62 SHL PUSH1 0x44 DUP3 ADD MSTORE PUSH1 0x64 ADD PUSH2 0x5A1 JUMP JUMPDEST DUP2 SLOAD PUSH1 0x1 PUSH1 0x1 PUSH1 0xA0 SHL SUB NOT DUP2 AND CALLER OR DUP4 SSTORE PUSH1 0x1 PUSH1 0x1 PUSH1 0xA0 SHL SUB AND PUSH1 0x2 DUP4 ADD PUSH2 0x7F7 DUP6 DUP8 DUP4 PUSH2 0x1CA9 JUMP JUMPDEST POP TIMESTAMP PUSH1 0x3 DUP5 ADD SSTORE PUSH1 0x64 PUSH2 0x80B PUSH1 0x6E DUP5 PUSH2 0x1D7F JUMP JUMPDEST PUSH2 0x815 SWAP2 SWAP1 PUSH2 0x1D9C JUMP JUMPDEST PUSH1 0x1 DUP5 ADD SSTORE PUSH1 0x1 PUSH1 0x1 PUSH1 0xA0 SHL SUB DUP2 AND ISZERO DUP1 ISZERO SWAP1 PUSH2 0x83B JUMPI POP PUSH1 0x1 PUSH1 0x1 PUSH1 0xA0 SHL SUB DUP2 AND CALLER EQ ISZERO JUMPDEST ISZERO PUSH2 0x86A JUMPI PUSH1 0x1 PUSH1 0x1 PUSH1 0xA0 SHL SUB DUP2 AND PUSH1 0x0 SWAP1 DUP2 MSTORE PUSH1 0x8 PUSH1 0x20 MSTORE PUSH1 0x40 DUP2 KECCAK256 DUP1 SLOAD SWAP2 PUSH2 0x864 DUP4 PUSH2 0x1DBE JUMP JUMPDEST SWAP2 SWAP1 POP SSTORE POP JUMPDEST PUSH1 0x1 PUSH1 0x1 PUSH1 0xA0 SHL SUB DUP2 AND CALLER EQ PUSH2 0x89B JUMPI CALLER PUSH1 0x0 SWAP1 DUP2 MSTORE PUSH1 0x8 PUSH1 0x20 MSTORE PUSH1 0x40 DUP2 KECCAK256 DUP1 SLOAD SWAP2 PUSH2 0x895 DUP4 PUSH2 0x1DD5 JUMP JUMPDEST SWAP2 SWAP1 POP SSTORE POP JUMPDEST PUSH2 0x8A5 DUP2 DUP4 PUSH2 0x114C JUMP JUMPDEST PUSH1 0x0 PUSH2 0x8B1 DUP4 CALLVALUE PUSH2 0x1DEE JUMP JUMPDEST SWAP1 POP DUP1 ISZERO PUSH2 0x943 JUMPI PUSH1 0x40 MLOAD PUSH1 0x0 SWAP1 CALLER SWAP1 DUP4 SWAP1 DUP4 DUP2 DUP2 DUP2 DUP6 DUP8 GAS CALL SWAP3 POP POP POP RETURNDATASIZE DUP1 PUSH1 0x0 DUP2 EQ PUSH2 0x8FB JUMPI PUSH1 0x40 MLOAD SWAP2 POP PUSH1 0x1F NOT PUSH1 0x3F RETURNDATASIZE ADD AND DUP3 ADD PUSH1 0x40 MSTORE RETURNDATASIZE DUP3 MSTORE RETURNDATASIZE PUSH1 0x0 PUSH1 0x20 DUP5 ADD RETURNDATACOPY PUSH2 0x900 JUMP JUMPDEST PUSH1 0x60 SWAP2 POP JUMPDEST POP POP SWAP1 POP DUP1 PUSH2 0x941 JUMPI PUSH1 0x40 MLOAD PUSH3 0x461BCD PUSH1 0xE5 SHL DUP2 MSTORE PUSH1 0x20 PUSH1 0x4 DUP3 ADD MSTORE PUSH1 0xD PUSH1 0x24 DUP3 ADD MSTORE PUSH13 0x1499599D5B990819985A5B1959 PUSH1 0x9A SHL PUSH1 0x44 DUP3 ADD MSTORE PUSH1 0x64 ADD PUSH2 0x5A1 JUMP JUMPDEST POP JUMPDEST TIMESTAMP PUSH1 0x3 SSTORE PUSH1 0x40 MLOAD CALLER SWAP1 PUSH32 0x7E80AD85A150F4309A7C9CBBDA12CD712A0B7361A2F5F69D4E6422524F7E6A23 SWAP1 PUSH2 0x983 SWAP1 DUP12 SWAP1 DUP12 SWAP1 DUP12 SWAP1 DUP12 SWAP1 DUP11 SWAP1 DUP11 SWAP1 PUSH2 0x1E01 JUMP JUMPDEST PUSH1 0x40 MLOAD DUP1 SWAP2 SUB SWAP1 LOG2 POP POP POP POP PUSH2 0x998 PUSH1 0x1 DUP1 SSTORE JUMP JUMPDEST POP POP POP POP JUMP JUMPDEST PUSH1 0x6 SLOAD PUSH1 0xFF AND PUSH2 0x9E5 JUMPI PUSH1 0x40 MLOAD PUSH3 0x461BCD PUSH1 0xE5 SHL DUP2 MSTORE PUSH1 0x20 PUSH1 0x4 DUP3 ADD MSTORE PUSH1 0x12 PUSH1 0x24 DUP3 ADD MSTORE PUSH18 0x47616D65206973206E6F7420616374697665 PUSH1 0x70 SHL PUSH1 0x44 DUP3 ADD MSTORE PUSH1 0x64 ADD PUSH2 0x5A1 JUMP JUMPDEST PUSH2 0x9ED PUSH2 0xEE4 JUMP JUMPDEST PUSH2 0xA39 JUMPI PUSH1 0x40 MLOAD PUSH3 0x461BCD PUSH1 0xE5 SHL DUP2 MSTORE PUSH1 0x20 PUSH1 0x4 DUP3 ADD MSTORE PUSH1 0x18 PUSH1 0x24 DUP3 ADD MSTORE PUSH32 0x47616D652063616E6E6F7420626520656E646564207965740000000000000000 PUSH1 0x44 DUP3 ADD MSTORE PUSH1 0x64 ADD PUSH2 0x5A1 JUMP JUMPDEST PUSH1 0x6 DUP1 SLOAD PUSH1 0xFF NOT AND SWAP1 SSTORE PUSH1 0x0 PUSH2 0xA4D PUSH2 0x134D JUMP JUMPDEST SWAP1 POP PUSH2 0xA58 DUP2 PUSH2 0x16A5 JUMP JUMPDEST PUSH32 0xE785B815D6374B945BA141337A5CA73FABB4F42F6C2012A028C404F3AD141046 TIMESTAMP DUP3 PUSH1 0x5 SLOAD PUSH1 0x40 MLOAD PUSH2 0xA8D SWAP4 SWAP3 SWAP2 SWAP1 PUSH2 0x1E5E JUMP JUMPDEST PUSH1 0x40 MLOAD DUP1 SWAP2 SUB SWAP1 LOG1 POP PUSH1 0x0 PUSH1 0x5 SSTORE JUMP JUMPDEST PUSH2 0xAA5 PUSH2 0x18CE JUMP JUMPDEST PUSH1 0x1 PUSH1 0x1 PUSH1 0xA0 SHL SUB DUP2 AND PUSH2 0xB0B JUMPI PUSH1 0x40 MLOAD PUSH3 0x461BCD PUSH1 0xE5 SHL DUP2 MSTORE PUSH1 0x20 PUSH1 0x4 DUP3 ADD MSTORE PUSH1 0x27 PUSH1 0x24 DUP3 ADD MSTORE PUSH32 0x446576656C6F7065722077616C6C65742063616E6E6F74206265207A65726F20 PUSH1 0x44 DUP3 ADD MSTORE PUSH7 0x61646472657373 PUSH1 0xC8 SHL PUSH1 0x64 DUP3 ADD MSTORE PUSH1 0x84 ADD PUSH2 0x5A1 JUMP JUMPDEST PUSH1 0x6 DUP1 SLOAD PUSH1 0x1 PUSH1 0x1 PUSH1 0xA0 SHL SUB SWAP1 SWAP3 AND PUSH2 0x100 MUL PUSH2 0x100 PUSH1 0x1 PUSH1 0xA8 SHL SUB NOT SWAP1 SWAP3 AND SWAP2 SWAP1 SWAP2 OR SWAP1 SSTORE JUMP JUMPDEST PUSH2 0xB3B PUSH2 0x18CE JUMP JUMPDEST PUSH2 0xB45 PUSH1 0x0 PUSH2 0x1928 JUMP JUMPDEST JUMP JUMPDEST PUSH2 0xB4F PUSH2 0x18CE JUMP JUMPDEST PUSH1 0x4 SSTORE JUMP JUMPDEST PUSH1 0x60 DUP1 PUSH1 0x0 PUSH2 0xB64 PUSH1 0x20 DUP1 PUSH2 0x1E87 JUMP JUMPDEST PUSH1 0xFF AND SWAP1 POP DUP1 PUSH8 0xFFFFFFFFFFFFFFFF DUP2 GT ISZERO PUSH2 0xB82 JUMPI PUSH2 0xB82 PUSH2 0x1C4D JUMP JUMPDEST PUSH1 0x40 MLOAD SWAP1 DUP1 DUP3 MSTORE DUP1 PUSH1 0x20 MUL PUSH1 0x20 ADD DUP3 ADD PUSH1 0x40 MSTORE DUP1 ISZERO PUSH2 0xBAB JUMPI DUP2 PUSH1 0x20 ADD PUSH1 0x20 DUP3 MUL DUP1 CALLDATASIZE DUP4 CALLDATACOPY ADD SWAP1 POP JUMPDEST POP SWAP3 POP DUP1 PUSH8 0xFFFFFFFFFFFFFFFF DUP2 GT ISZERO PUSH2 0xBC7 JUMPI PUSH2 0xBC7 PUSH2 0x1C4D JUMP JUMPDEST PUSH1 0x40 MLOAD SWAP1 DUP1 DUP3 MSTORE DUP1 PUSH1 0x20 MUL PUSH1 0x20 ADD DUP3 ADD PUSH1 0x40 MSTORE DUP1 ISZERO PUSH2 0xBFA JUMPI DUP2 PUSH1 0x20 ADD JUMPDEST PUSH1 0x60 DUP2 MSTORE PUSH1 0x20 ADD SWAP1 PUSH1 0x1 SWAP1 SUB SWAP1 DUP2 PUSH2 0xBE5 JUMPI SWAP1 POP JUMPDEST POP SWAP2 POP PUSH1 0x0 DUP1 JUMPDEST PUSH1 0x20 PUSH1 0xFF DUP3 AND LT ISZERO PUSH2 0xD5C JUMPI PUSH1 0x0 JUMPDEST PUSH1 0x20 PUSH1 0xFF DUP3 AND LT ISZERO PUSH2 0xD49 JUMPI PUSH1 0xFF DUP1 DUP3 AND PUSH1 0x0 SWAP1 DUP2 MSTORE PUSH1 0x7 PUSH1 0x20 SWAP1 DUP2 MSTORE PUSH1 0x40 DUP1 DUP4 KECCAK256 SWAP4 DUP7 AND DUP4 MSTORE SWAP3 SWAP1 MSTORE KECCAK256 DUP1 SLOAD DUP8 MLOAD PUSH1 0x1 PUSH1 0x1 PUSH1 0xA0 SHL SUB SWAP1 SWAP2 AND SWAP1 DUP9 SWAP1 DUP7 SWAP1 DUP2 LT PUSH2 0xC5D JUMPI PUSH2 0xC5D PUSH2 0x1EAA JUMP JUMPDEST PUSH1 0x20 MUL PUSH1 0x20 ADD ADD SWAP1 PUSH1 0x1 PUSH1 0x1 PUSH1 0xA0 SHL SUB AND SWAP1 DUP2 PUSH1 0x1 PUSH1 0x1 PUSH1 0xA0 SHL SUB AND DUP2 MSTORE POP POP DUP1 PUSH1 0x2 ADD DUP1 SLOAD PUSH2 0xC8C SWAP1 PUSH2 0x1C13 JUMP JUMPDEST DUP1 PUSH1 0x1F ADD PUSH1 0x20 DUP1 SWAP2 DIV MUL PUSH1 0x20 ADD PUSH1 0x40 MLOAD SWAP1 DUP2 ADD PUSH1 0x40 MSTORE DUP1 SWAP3 SWAP2 SWAP1 DUP2 DUP2 MSTORE PUSH1 0x20 ADD DUP3 DUP1 SLOAD PUSH2 0xCB8 SWAP1 PUSH2 0x1C13 JUMP JUMPDEST DUP1 ISZERO PUSH2 0xD05 JUMPI DUP1 PUSH1 0x1F LT PUSH2 0xCDA JUMPI PUSH2 0x100 DUP1 DUP4 SLOAD DIV MUL DUP4 MSTORE SWAP2 PUSH1 0x20 ADD SWAP2 PUSH2 0xD05 JUMP JUMPDEST DUP3 ADD SWAP2 SWAP1 PUSH1 0x0 MSTORE PUSH1 0x20 PUSH1 0x0 KECCAK256 SWAP1 JUMPDEST DUP2 SLOAD DUP2 MSTORE SWAP1 PUSH1 0x1 ADD SWAP1 PUSH1 0x20 ADD DUP1 DUP4 GT PUSH2 0xCE8 JUMPI DUP3 SWAP1 SUB PUSH1 0x1F AND DUP3 ADD SWAP2 JUMPDEST POP POP POP POP POP DUP7 DUP6 DUP2 MLOAD DUP2 LT PUSH2 0xD1C JUMPI PUSH2 0xD1C PUSH2 0x1EAA JUMP JUMPDEST PUSH1 0x20 MUL PUSH1 0x20 ADD ADD DUP2 SWAP1 MSTORE POP DUP4 DUP1 PUSH2 0xD32 SWAP1 PUSH2 0x1DD5 JUMP JUMPDEST SWAP5 POP POP POP DUP1 DUP1 PUSH2 0xD41 SWAP1 PUSH2 0x1EC0 JUMP JUMPDEST SWAP2 POP POP PUSH2 0xC10 JUMP JUMPDEST POP DUP1 PUSH2 0xD54 DUP2 PUSH2 0x1EC0 JUMP JUMPDEST SWAP2 POP POP PUSH2 0xC01 JUMP JUMPDEST POP POP POP SWAP1 SWAP2 JUMP JUMPDEST PUSH1 0x1 PUSH1 0x1 PUSH1 0xA0 SHL SUB DUP2 AND PUSH1 0x0 SWAP1 DUP2 MSTORE PUSH1 0x8 PUSH1 0x20 MSTORE PUSH1 0x40 DUP2 KECCAK256 SLOAD PUSH1 0x60 SWAP2 PUSH2 0xD8A DUP3 PUSH1 0x2 PUSH2 0x1D7F JUMP JUMPDEST PUSH8 0xFFFFFFFFFFFFFFFF DUP2 GT ISZERO PUSH2 0xDA2 JUMPI PUSH2 0xDA2 PUSH2 0x1C4D JUMP JUMPDEST PUSH1 0x40 MLOAD SWAP1 DUP1 DUP3 MSTORE DUP1 PUSH1 0x20 MUL PUSH1 0x20 ADD DUP3 ADD PUSH1 0x40 MSTORE DUP1 ISZERO PUSH2 0xDCB JUMPI DUP2 PUSH1 0x20 ADD PUSH1 0x20 DUP3 MUL DUP1 CALLDATASIZE DUP4 CALLDATACOPY ADD SWAP1 POP JUMPDEST POP SWAP1 POP DUP2 PUSH1 0x0 SUB PUSH2 0xDDD JUMPI SWAP4 SWAP3 POP POP POP JUMP JUMPDEST PUSH1 0x0 DUP1 JUMPDEST PUSH1 0x20 PUSH1 0xFF DUP3 AND LT ISZERO PUSH2 0xEDA JUMPI PUSH1 0x0 JUMPDEST PUSH1 0x20 PUSH1 0xFF DUP3 AND LT ISZERO PUSH2 0xEBF JUMPI PUSH1 0xFF DUP1 DUP4 AND PUSH1 0x0 SWAP1 DUP2 MSTORE PUSH1 0x7 PUSH1 0x20 SWAP1 DUP2 MSTORE PUSH1 0x40 DUP1 DUP4 KECCAK256 SWAP4 DUP6 AND DUP4 MSTORE SWAP3 SWAP1 MSTORE KECCAK256 SLOAD PUSH1 0x1 PUSH1 0x1 PUSH1 0xA0 SHL SUB DUP1 DUP10 AND SWAP2 AND SUB PUSH2 0xEAD JUMPI DUP2 DUP5 PUSH2 0xE3B DUP6 PUSH1 0x2 PUSH2 0x1D7F JUMP JUMPDEST DUP2 MLOAD DUP2 LT PUSH2 0xE4B JUMPI PUSH2 0xE4B PUSH2 0x1EAA JUMP JUMPDEST PUSH1 0xFF SWAP1 SWAP3 AND PUSH1 0x20 SWAP3 DUP4 MUL SWAP2 SWAP1 SWAP2 ADD SWAP1 SWAP2 ADD MSTORE DUP1 DUP5 PUSH2 0xE6A DUP6 PUSH1 0x2 PUSH2 0x1D7F JUMP JUMPDEST PUSH2 0xE75 SWAP1 PUSH1 0x1 PUSH2 0x1EDF JUMP JUMPDEST DUP2 MLOAD DUP2 LT PUSH2 0xE85 JUMPI PUSH2 0xE85 PUSH2 0x1EAA JUMP JUMPDEST PUSH1 0xFF SWAP1 SWAP3 AND PUSH1 0x20 SWAP3 DUP4 MUL SWAP2 SWAP1 SWAP2 ADD SWAP1 SWAP2 ADD MSTORE DUP3 PUSH2 0xEA1 DUP2 PUSH2 0x1DD5 JUMP JUMPDEST SWAP4 POP POP DUP5 DUP4 LT ISZERO PUSH2 0xEBF JUMPI JUMPDEST DUP1 PUSH2 0xEB7 DUP2 PUSH2 0x1EC0 JUMP JUMPDEST SWAP2 POP POP PUSH2 0xDF0 JUMP JUMPDEST POP DUP4 DUP3 LT ISZERO PUSH2 0xEDA JUMPI DUP1 PUSH2 0xED2 DUP2 PUSH2 0x1EC0 JUMP JUMPDEST SWAP2 POP POP PUSH2 0xDE1 JUMP JUMPDEST POP SWAP1 SWAP5 SWAP4 POP POP POP POP JUMP JUMPDEST PUSH1 0x6 SLOAD PUSH1 0x0 SWAP1 PUSH1 0xFF AND DUP1 ISZERO PUSH2 0xF07 JUMPI POP PUSH1 0x4 SLOAD PUSH1 0x3 SLOAD PUSH2 0xF04 SWAP1 TIMESTAMP PUSH2 0x1DEE JUMP JUMPDEST LT ISZERO JUMPDEST SWAP1 POP SWAP1 JUMP JUMPDEST PUSH1 0x7 PUSH1 0x20 SWAP1 DUP2 MSTORE PUSH1 0x0 SWAP3 DUP4 MSTORE PUSH1 0x40 DUP1 DUP5 KECCAK256 SWAP1 SWAP2 MSTORE SWAP1 DUP3 MSTORE SWAP1 KECCAK256 DUP1 SLOAD PUSH1 0x1 DUP3 ADD SLOAD PUSH1 0x2 DUP4 ADD DUP1 SLOAD PUSH1 0x1 PUSH1 0x1 PUSH1 0xA0 SHL SUB SWAP1 SWAP4 AND SWAP4 SWAP2 SWAP3 PUSH2 0xF49 SWAP1 PUSH2 0x1C13 JUMP JUMPDEST DUP1 PUSH1 0x1F ADD PUSH1 0x20 DUP1 SWAP2 DIV MUL PUSH1 0x20 ADD PUSH1 0x40 MLOAD SWAP1 DUP2 ADD PUSH1 0x40 MSTORE DUP1 SWAP3 SWAP2 SWAP1 DUP2 DUP2 MSTORE PUSH1 0x20 ADD DUP3 DUP1 SLOAD PUSH2 0xF75 SWAP1 PUSH2 0x1C13 JUMP JUMPDEST DUP1 ISZERO PUSH2 0xFC2 JUMPI DUP1 PUSH1 0x1F LT PUSH2 0xF97 JUMPI PUSH2 0x100 DUP1 DUP4 SLOAD DIV MUL DUP4 MSTORE SWAP2 PUSH1 0x20 ADD SWAP2 PUSH2 0xFC2 JUMP JUMPDEST DUP3 ADD SWAP2 SWAP1 PUSH1 0x0 MSTORE PUSH1 0x20 PUSH1 0x0 KECCAK256 SWAP1 JUMPDEST DUP2 SLOAD DUP2 MSTORE SWAP1 PUSH1 0x1 ADD SWAP1 PUSH1 0x20 ADD DUP1 DUP4 GT PUSH2 0xFA5 JUMPI DUP3 SWAP1 SUB PUSH1 0x1F AND DUP3 ADD SWAP2 JUMPDEST POP POP POP POP POP SWAP1 DUP1 PUSH1 0x3 ADD SLOAD SWAP1 POP DUP5 JUMP JUMPDEST PUSH2 0xFDA PUSH2 0x18CE JUMP JUMPDEST PUSH1 0x6 SLOAD PUSH1 0xFF AND ISZERO PUSH2 0x1026 JUMPI PUSH1 0x40 MLOAD PUSH3 0x461BCD PUSH1 0xE5 SHL DUP2 MSTORE PUSH1 0x20 PUSH1 0x4 DUP3 ADD MSTORE PUSH1 0x16 PUSH1 0x24 DUP3 ADD MSTORE PUSH22 0x47616D6520697320616C726561647920616374697665 PUSH1 0x50 SHL PUSH1 0x44 DUP3 ADD MSTORE PUSH1 0x64 ADD PUSH2 0x5A1 JUMP JUMPDEST PUSH1 0x6 DUP1 SLOAD PUSH1 0xFF NOT AND PUSH1 0x1 OR SWAP1 SSTORE TIMESTAMP PUSH1 0x2 DUP2 SWAP1 SSTORE PUSH1 0x3 DUP2 SWAP1 SSTORE PUSH1 0x40 MLOAD PUSH32 0x50AD08F58A27F2851D7E3A1B3A6A46B290F2CE677E99642D30FF639721E77790 SWAP2 PUSH2 0x1070 SWAP2 SWAP1 DUP2 MSTORE PUSH1 0x20 ADD SWAP1 JUMP JUMPDEST PUSH1 0x40 MLOAD DUP1 SWAP2 SUB SWAP1 LOG1 JUMP JUMPDEST PUSH2 0x1082 PUSH2 0x18CE JUMP JUMPDEST PUSH1 0x1 PUSH1 0x1 PUSH1 0xA0 SHL SUB DUP2 AND PUSH2 0x10E7 JUMPI PUSH1 0x40 MLOAD PUSH3 0x461BCD PUSH1 0xE5 SHL DUP2 MSTORE PUSH1 0x20 PUSH1 0x4 DUP3 ADD MSTORE PUSH1 0x26 PUSH1 0x24 DUP3 ADD MSTORE PUSH32 0x4F776E61626C653A206E6577206F776E657220697320746865207A65726F2061 PUSH1 0x44 DUP3 ADD MSTORE PUSH6 0x646472657373 PUSH1 0xD0 SHL PUSH1 0x64 DUP3 ADD MSTORE PUSH1 0x84 ADD PUSH2 0x5A1 JUMP JUMPDEST PUSH2 0x10F0 DUP2 PUSH2 0x1928 JUMP JUMPDEST POP JUMP JUMPDEST PUSH1 0x2 PUSH1 0x1 SLOAD SUB PUSH2 0x1145 JUMPI PUSH1 0x40 MLOAD PUSH3 0x461BCD PUSH1 0xE5 SHL DUP2 MSTORE PUSH1 0x20 PUSH1 0x4 DUP3 ADD MSTORE PUSH1 0x1F PUSH1 0x24 DUP3 ADD MSTORE PUSH32 0x5265656E7472616E637947756172643A207265656E7472616E742063616C6C00 PUSH1 0x44 DUP3 ADD MSTORE PUSH1 0x64 ADD PUSH2 0x5A1 JUMP JUMPDEST PUSH1 0x2 PUSH1 0x1 SSTORE JUMP JUMPDEST PUSH1 0x0 DUP1 PUSH1 0x64 PUSH2 0x115C PUSH1 0xF DUP6 PUSH2 0x1D7F JUMP JUMPDEST PUSH2 0x1166 SWAP2 SWAP1 PUSH2 0x1D9C JUMP JUMPDEST SWAP1 POP PUSH1 0x0 PUSH1 0x64 PUSH2 0x1177 PUSH1 0x1 DUP7 PUSH2 0x1D7F JUMP JUMPDEST PUSH2 0x1181 SWAP2 SWAP1 PUSH2 0x1D9C JUMP JUMPDEST SWAP1 POP PUSH1 0x1 PUSH1 0x1 PUSH1 0xA0 SHL SUB DUP6 AND ISZERO PUSH2 0x125B JUMPI PUSH1 0x64 PUSH2 0x119F PUSH1 0x54 DUP7 PUSH2 0x1D7F JUMP JUMPDEST PUSH2 0x11A9 SWAP2 SWAP1 PUSH2 0x1D9C JUMP JUMPDEST SWAP3 POP DUP3 ISZERO PUSH2 0x1256 JUMPI PUSH1 0x0 DUP6 PUSH1 0x1 PUSH1 0x1 PUSH1 0xA0 SHL SUB AND DUP5 PUSH1 0x40 MLOAD PUSH1 0x0 PUSH1 0x40 MLOAD DUP1 DUP4 SUB DUP2 DUP6 DUP8 GAS CALL SWAP3 POP POP POP RETURNDATASIZE DUP1 PUSH1 0x0 DUP2 EQ PUSH2 0x11FE JUMPI PUSH1 0x40 MLOAD SWAP2 POP PUSH1 0x1F NOT PUSH1 0x3F RETURNDATASIZE ADD AND DUP3 ADD PUSH1 0x40 MSTORE RETURNDATASIZE DUP3 MSTORE RETURNDATASIZE PUSH1 0x0 PUSH1 0x20 DUP5 ADD RETURNDATACOPY PUSH2 0x1203 JUMP JUMPDEST PUSH1 0x60 SWAP2 POP JUMPDEST POP POP SWAP1 POP DUP1 PUSH2 0x1254 JUMPI PUSH1 0x40 MLOAD PUSH3 0x461BCD PUSH1 0xE5 SHL DUP2 MSTORE PUSH1 0x20 PUSH1 0x4 DUP3 ADD DUP2 SWAP1 MSTORE PUSH1 0x24 DUP3 ADD MSTORE PUSH32 0x5061796D656E7420746F2070726576696F7573206F776E6572206661696C6564 PUSH1 0x44 DUP3 ADD MSTORE PUSH1 0x64 ADD PUSH2 0x5A1 JUMP JUMPDEST POP JUMPDEST PUSH2 0x127F JUMP JUMPDEST PUSH1 0x64 PUSH2 0x1268 PUSH1 0x54 DUP7 PUSH2 0x1D7F JUMP JUMPDEST PUSH2 0x1272 SWAP2 SWAP1 PUSH2 0x1D9C JUMP JUMPDEST PUSH2 0x127C SWAP1 DUP4 PUSH2 0x1EDF JUMP JUMPDEST SWAP2 POP JUMPDEST DUP2 PUSH1 0x5 PUSH1 0x0 DUP3 DUP3 SLOAD PUSH2 0x1291 SWAP2 SWAP1 PUSH2 0x1EDF JUMP JUMPDEST SWAP1 SWAP2 SSTORE POP POP DUP1 ISZERO PUSH2 0x1346 JUMPI PUSH1 0x6 SLOAD PUSH1 0x40 MLOAD PUSH1 0x0 SWAP2 PUSH2 0x100 SWAP1 DIV PUSH1 0x1 PUSH1 0x1 PUSH1 0xA0 SHL SUB AND SWAP1 DUP4 SWAP1 DUP4 DUP2 DUP2 DUP2 DUP6 DUP8 GAS CALL SWAP3 POP POP POP RETURNDATASIZE DUP1 PUSH1 0x0 DUP2 EQ PUSH2 0x12EE JUMPI PUSH1 0x40 MLOAD SWAP2 POP PUSH1 0x1F NOT PUSH1 0x3F RETURNDATASIZE ADD AND DUP3 ADD PUSH1 0x40 MSTORE RETURNDATASIZE DUP3 MSTORE RETURNDATASIZE PUSH1 0x0 PUSH1 0x20 DUP5 ADD RETURNDATACOPY PUSH2 0x12F3 JUMP JUMPDEST PUSH1 0x60 SWAP2 POP JUMPDEST POP POP SWAP1 POP DUP1 PUSH2 0x1344 JUMPI PUSH1 0x40 MLOAD PUSH3 0x461BCD PUSH1 0xE5 SHL DUP2 MSTORE PUSH1 0x20 PUSH1 0x4 DUP3 ADD MSTORE PUSH1 0x1B PUSH1 0x24 DUP3 ADD MSTORE PUSH32 0x5061796D656E7420746F20646576656C6F706572206661696C65640000000000 PUSH1 0x44 DUP3 ADD MSTORE PUSH1 0x64 ADD PUSH2 0x5A1 JUMP JUMPDEST POP JUMPDEST POP POP POP POP POP JUMP JUMPDEST PUSH1 0x60 PUSH1 0x0 DUP1 PUSH1 0x0 DUP1 JUMPDEST PUSH1 0x20 PUSH1 0xFF DUP3 AND LT ISZERO PUSH2 0x13D2 JUMPI PUSH1 0x0 JUMPDEST PUSH1 0x20 PUSH1 0xFF DUP3 AND LT ISZERO PUSH2 0x13BF JUMPI PUSH1 0xFF DUP1 DUP4 AND PUSH1 0x0 SWAP1 DUP2 MSTORE PUSH1 0x7 PUSH1 0x20 SWAP1 DUP2 MSTORE PUSH1 0x40 DUP1 DUP4 KECCAK256 SWAP4 DUP6 AND DUP4 MSTORE SWAP3 SWAP1 MSTORE KECCAK256 SLOAD PUSH1 0x1 PUSH1 0x1 PUSH1 0xA0 SHL SUB AND ISZERO PUSH2 0x13AD JUMPI DUP3 PUSH2 0x13A9 DUP2 PUSH2 0x1DD5 JUMP JUMPDEST SWAP4 POP POP JUMPDEST DUP1 PUSH2 0x13B7 DUP2 PUSH2 0x1EC0 JUMP JUMPDEST SWAP2 POP POP PUSH2 0x1365 JUMP JUMPDEST POP DUP1 PUSH2 0x13CA DUP2 PUSH2 0x1EC0 JUMP JUMPDEST SWAP2 POP POP PUSH2 0x1356 JUMP JUMPDEST POP PUSH1 0x0 DUP2 PUSH8 0xFFFFFFFFFFFFFFFF DUP2 GT ISZERO PUSH2 0x13EE JUMPI PUSH2 0x13EE PUSH2 0x1C4D JUMP JUMPDEST PUSH1 0x40 MLOAD SWAP1 DUP1 DUP3 MSTORE DUP1 PUSH1 0x20 MUL PUSH1 0x20 ADD DUP3 ADD PUSH1 0x40 MSTORE DUP1 ISZERO PUSH2 0x1417 JUMPI DUP2 PUSH1 0x20 ADD PUSH1 0x20 DUP3 MUL DUP1 CALLDATASIZE DUP4 CALLDATACOPY ADD SWAP1 POP JUMPDEST POP SWAP1 POP PUSH1 0x0 DUP1 JUMPDEST PUSH1 0x20 PUSH1 0xFF DUP3 AND LT ISZERO PUSH2 0x159B JUMPI PUSH1 0x0 JUMPDEST PUSH1 0x20 PUSH1 0xFF DUP3 AND LT ISZERO PUSH2 0x1588 JUMPI PUSH1 0xFF DUP1 DUP4 AND PUSH1 0x0 SWAP1 DUP2 MSTORE PUSH1 0x7 PUSH1 0x20 SWAP1 DUP2 MSTORE PUSH1 0x40 DUP1 DUP4 KECCAK256 SWAP4 DUP6 AND DUP4 MSTORE SWAP3 SWAP1 MSTORE KECCAK256 SLOAD PUSH1 0x1 PUSH1 0x1 PUSH1 0xA0 SHL SUB AND DUP1 ISZERO PUSH2 0x1575 JUMPI PUSH1 0x0 DUP1 JUMPDEST DUP6 DUP2 LT ISZERO PUSH2 0x14C1 JUMPI DUP3 PUSH1 0x1 PUSH1 0x1 PUSH1 0xA0 SHL SUB AND DUP8 DUP3 DUP2 MLOAD DUP2 LT PUSH2 0x1490 JUMPI PUSH2 0x1490 PUSH2 0x1EAA JUMP JUMPDEST PUSH1 0x20 MUL PUSH1 0x20 ADD ADD MLOAD PUSH1 0x1 PUSH1 0x1 PUSH1 0xA0 SHL SUB AND SUB PUSH2 0x14AF JUMPI PUSH1 0x1 SWAP2 POP PUSH2 0x14C1 JUMP JUMPDEST DUP1 PUSH2 0x14B9 DUP2 PUSH2 0x1DD5 JUMP JUMPDEST SWAP2 POP POP PUSH2 0x146C JUMP JUMPDEST POP DUP1 PUSH2 0x1573 JUMPI DUP2 DUP7 DUP7 DUP2 MLOAD DUP2 LT PUSH2 0x14DA JUMPI PUSH2 0x14DA PUSH2 0x1EAA JUMP JUMPDEST PUSH1 0x1 PUSH1 0x1 PUSH1 0xA0 SHL SUB SWAP1 SWAP3 AND PUSH1 0x20 SWAP3 DUP4 MUL SWAP2 SWAP1 SWAP2 ADD SWAP1 SWAP2 ADD MSTORE DUP5 PUSH2 0x14FC DUP2 PUSH2 0x1DD5 JUMP JUMPDEST PUSH1 0x1 PUSH1 0x1 PUSH1 0xA0 SHL SUB DUP5 AND PUSH1 0x0 SWAP1 DUP2 MSTORE PUSH1 0x8 PUSH1 0x20 MSTORE PUSH1 0x40 SWAP1 KECCAK256 SLOAD SWAP1 SWAP7 POP DUP11 LT ISZERO SWAP1 POP PUSH2 0x1545 JUMPI PUSH1 0x1 PUSH1 0x1 PUSH1 0xA0 SHL SUB DUP3 AND PUSH1 0x0 SWAP1 DUP2 MSTORE PUSH1 0x8 PUSH1 0x20 MSTORE PUSH1 0x40 SWAP1 KECCAK256 SLOAD SWAP9 POP PUSH1 0x1 SWAP8 POP PUSH2 0x1573 JUMP JUMPDEST PUSH1 0x1 PUSH1 0x1 PUSH1 0xA0 SHL SUB DUP3 AND PUSH1 0x0 SWAP1 DUP2 MSTORE PUSH1 0x8 PUSH1 0x20 MSTORE PUSH1 0x40 SWAP1 KECCAK256 SLOAD DUP10 SWAP1 SUB PUSH2 0x1573 JUMPI DUP8 PUSH2 0x156F DUP2 PUSH2 0x1DD5 JUMP JUMPDEST SWAP9 POP POP JUMPDEST POP JUMPDEST POP DUP1 PUSH2 0x1580 DUP2 PUSH2 0x1EC0 JUMP JUMPDEST SWAP2 POP POP PUSH2 0x142D JUMP JUMPDEST POP DUP1 PUSH2 0x1593 DUP2 PUSH2 0x1EC0 JUMP JUMPDEST SWAP2 POP POP PUSH2 0x141E JUMP JUMPDEST POP PUSH1 0x0 DUP5 PUSH8 0xFFFFFFFFFFFFFFFF DUP2 GT ISZERO PUSH2 0x15B7 JUMPI PUSH2 0x15B7 PUSH2 0x1C4D JUMP JUMPDEST PUSH1 0x40 MLOAD SWAP1 DUP1 DUP3 MSTORE DUP1 PUSH1 0x20 MUL PUSH1 0x20 ADD DUP3 ADD PUSH1 0x40 MSTORE DUP1 ISZERO PUSH2 0x15E0 JUMPI DUP2 PUSH1 0x20 ADD PUSH1 0x20 DUP3 MUL DUP1 CALLDATASIZE DUP4 CALLDATACOPY ADD SWAP1 POP JUMPDEST POP SWAP1 POP PUSH1 0x0 DUP1 JUMPDEST DUP4 DUP2 LT ISZERO PUSH2 0x1698 JUMPI DUP8 PUSH1 0x8 PUSH1 0x0 DUP8 DUP5 DUP2 MLOAD DUP2 LT PUSH2 0x1606 JUMPI PUSH2 0x1606 PUSH2 0x1EAA JUMP JUMPDEST PUSH1 0x20 MUL PUSH1 0x20 ADD ADD MLOAD PUSH1 0x1 PUSH1 0x1 PUSH1 0xA0 SHL SUB AND PUSH1 0x1 PUSH1 0x1 PUSH1 0xA0 SHL SUB AND DUP2 MSTORE PUSH1 0x20 ADD SWAP1 DUP2 MSTORE PUSH1 0x20 ADD PUSH1 0x0 KECCAK256 SLOAD SUB PUSH2 0x1686 JUMPI DUP5 DUP2 DUP2 MLOAD DUP2 LT PUSH2 0x1646 JUMPI PUSH2 0x1646 PUSH2 0x1EAA JUMP JUMPDEST PUSH1 0x20 MUL PUSH1 0x20 ADD ADD MLOAD DUP4 DUP4 DUP2 MLOAD DUP2 LT PUSH2 0x1660 JUMPI PUSH2 0x1660 PUSH2 0x1EAA JUMP JUMPDEST PUSH1 0x1 PUSH1 0x1 PUSH1 0xA0 SHL SUB SWAP1 SWAP3 AND PUSH1 0x20 SWAP3 DUP4 MUL SWAP2 SWAP1 SWAP2 ADD SWAP1 SWAP2 ADD MSTORE DUP2 PUSH2 0x1682 DUP2 PUSH2 0x1DD5 JUMP JUMPDEST SWAP3 POP POP JUMPDEST DUP1 PUSH2 0x1690 DUP2 PUSH2 0x1DD5 JUMP JUMPDEST SWAP2 POP POP PUSH2 0x15E7 JUMP JUMPDEST POP SWAP1 SWAP8 SWAP7 POP POP POP POP POP POP POP JUMP JUMPDEST DUP1 MLOAD ISZERO DUP1 PUSH2 0x16B3 JUMPI POP PUSH1 0x5 SLOAD ISZERO JUMPDEST ISZERO PUSH2 0x16BB JUMPI POP JUMP JUMPDEST PUSH1 0x0 DUP1 JUMPDEST PUSH1 0x20 PUSH1 0xFF DUP3 AND LT ISZERO PUSH2 0x173B JUMPI PUSH1 0x0 JUMPDEST PUSH1 0x20 PUSH1 0xFF DUP3 AND LT ISZERO PUSH2 0x1728 JUMPI PUSH1 0xFF DUP1 DUP4 AND PUSH1 0x0 SWAP1 DUP2 MSTORE PUSH1 0x7 PUSH1 0x20 SWAP1 DUP2 MSTORE PUSH1 0x40 DUP1 DUP4 KECCAK256 SWAP4 DUP6 AND DUP4 MSTORE SWAP3 SWAP1 MSTORE KECCAK256 SLOAD PUSH1 0x1 PUSH1 0x1 PUSH1 0xA0 SHL SUB AND ISZERO PUSH2 0x1716 JUMPI DUP3 PUSH2 0x1712 DUP2 PUSH2 0x1DD5 JUMP JUMPDEST SWAP4 POP POP JUMPDEST DUP1 PUSH2 0x1720 DUP2 PUSH2 0x1EC0 JUMP JUMPDEST SWAP2 POP POP PUSH2 0x16CE JUMP JUMPDEST POP DUP1 PUSH2 0x1733 DUP2 PUSH2 0x1EC0 JUMP JUMPDEST SWAP2 POP POP PUSH2 0x16BF JUMP JUMPDEST POP DUP1 PUSH1 0x0 SUB PUSH2 0x1748 JUMPI POP POP JUMP JUMPDEST PUSH1 0x0 JUMPDEST PUSH1 0x20 PUSH1 0xFF DUP3 AND LT ISZERO PUSH2 0x18C9 JUMPI PUSH1 0x0 JUMPDEST PUSH1 0x20 PUSH1 0xFF DUP3 AND LT ISZERO PUSH2 0x18B6 JUMPI PUSH1 0xFF DUP1 DUP4 AND PUSH1 0x0 SWAP1 DUP2 MSTORE PUSH1 0x7 PUSH1 0x20 SWAP1 DUP2 MSTORE PUSH1 0x40 DUP1 DUP4 KECCAK256 SWAP4 DUP6 AND DUP4 MSTORE SWAP3 SWAP1 MSTORE KECCAK256 SLOAD PUSH1 0x1 PUSH1 0x1 PUSH1 0xA0 SHL SUB AND DUP1 ISZERO PUSH2 0x18A3 JUMPI PUSH1 0x0 DUP5 PUSH1 0x5 SLOAD PUSH1 0x1 PUSH2 0x17A7 SWAP2 SWAP1 PUSH2 0x1D7F JUMP JUMPDEST PUSH2 0x17B1 SWAP2 SWAP1 PUSH2 0x1D9C JUMP JUMPDEST SWAP1 POP DUP1 ISZERO PUSH2 0x18A1 JUMPI PUSH1 0x0 DUP3 PUSH1 0x1 PUSH1 0x1 PUSH1 0xA0 SHL SUB AND DUP3 PUSH1 0x40 MLOAD PUSH1 0x0 PUSH1 0x40 MLOAD DUP1 DUP4 SUB DUP2 DUP6 DUP8 GAS CALL SWAP3 POP POP POP RETURNDATASIZE DUP1 PUSH1 0x0 DUP2 EQ PUSH2 0x1806 JUMPI PUSH1 0x40 MLOAD SWAP2 POP PUSH1 0x1F NOT PUSH1 0x3F RETURNDATASIZE ADD AND DUP3 ADD PUSH1 0x40 MSTORE RETURNDATASIZE DUP3 MSTORE RETURNDATASIZE PUSH1 0x0 PUSH1 0x20 DUP5 ADD RETURNDATACOPY PUSH2 0x180B JUMP JUMPDEST PUSH1 0x60 SWAP2 POP JUMPDEST POP POP SWAP1 POP DUP1 PUSH2 0x185C JUMPI PUSH1 0x40 MLOAD PUSH3 0x461BCD PUSH1 0xE5 SHL DUP2 MSTORE PUSH1 0x20 PUSH1 0x4 DUP3 ADD MSTORE PUSH1 0x19 PUSH1 0x24 DUP3 ADD MSTORE PUSH32 0x5072697A6520646973747269627574696F6E206661696C656400000000000000 PUSH1 0x44 DUP3 ADD MSTORE PUSH1 0x64 ADD PUSH2 0x5A1 JUMP JUMPDEST DUP3 PUSH1 0x1 PUSH1 0x1 PUSH1 0xA0 SHL SUB AND PUSH32 0xB8E091D87F82E56D22276C9A0088EA5D6068E355383DC08B2721B7B6CB10E845 DUP4 PUSH1 0x40 MLOAD PUSH2 0x1897 SWAP2 DUP2 MSTORE PUSH1 0x20 ADD SWAP1 JUMP JUMPDEST PUSH1 0x40 MLOAD DUP1 SWAP2 SUB SWAP1 LOG2 POP JUMPDEST POP JUMPDEST POP DUP1 PUSH2 0x18AE DUP2 PUSH2 0x1EC0 JUMP JUMPDEST SWAP2 POP POP PUSH2 0x175A JUMP JUMPDEST POP DUP1 PUSH2 0x18C1 DUP2 PUSH2 0x1EC0 JUMP JUMPDEST SWAP2 POP POP PUSH2 0x174B JUMP JUMPDEST POP POP POP JUMP JUMPDEST PUSH1 0x0 SLOAD PUSH1 0x1 PUSH1 0x1 PUSH1 0xA0 SHL SUB AND CALLER EQ PUSH2 0xB45 JUMPI PUSH1 0x40 MLOAD PUSH3 0x461BCD PUSH1 0xE5 SHL DUP2 MSTORE PUSH1 0x20 PUSH1 0x4 DUP3 ADD DUP2 SWAP1 MSTORE PUSH1 0x24 DUP3 ADD MSTORE PUSH32 0x4F776E61626C653A2063616C6C6572206973206E6F7420746865206F776E6572 PUSH1 0x44 DUP3 ADD MSTORE PUSH1 0x64 ADD PUSH2 0x5A1 JUMP JUMPDEST PUSH1 0x0 DUP1 SLOAD PUSH1 0x1 PUSH1 0x1 PUSH1 0xA0 SHL SUB DUP4 DUP2 AND PUSH1 0x1 PUSH1 0x1 PUSH1 0xA0 SHL SUB NOT DUP4 AND DUP2 OR DUP5 SSTORE PUSH1 0x40 MLOAD SWAP2 SWAP1 SWAP3 AND SWAP3 DUP4 SWAP2 PUSH32 0x8BE0079C531659141344CD1FD0A4F28419497F9722A3DAAFE3B4186F6B6457E0 SWAP2 SWAP1 LOG3 POP POP JUMP JUMPDEST DUP1 CALLDATALOAD PUSH1 0xFF DUP2 AND DUP2 EQ PUSH2 0x1989 JUMPI PUSH1 0x0 DUP1 REVERT JUMPDEST SWAP2 SWAP1 POP JUMP JUMPDEST PUSH1 0x0 DUP1 PUSH1 0x40 DUP4 DUP6 SUB SLT ISZERO PUSH2 0x19A1 JUMPI PUSH1 0x0 DUP1 REVERT JUMPDEST PUSH2 0x19AA DUP4 PUSH2 0x1978 JUMP JUMPDEST SWAP2 POP PUSH2 0x19B8 PUSH1 0x20 DUP5 ADD PUSH2 0x1978 JUMP JUMPDEST SWAP1 POP SWAP3 POP SWAP3 SWAP1 POP JUMP JUMPDEST PUSH1 0x0 DUP2 MLOAD DUP1 DUP5 MSTORE PUSH1 0x0 JUMPDEST DUP2 DUP2 LT ISZERO PUSH2 0x19E7 JUMPI PUSH1 0x20 DUP2 DUP6 ADD DUP2 ADD MLOAD DUP7 DUP4 ADD DUP3 ADD MSTORE ADD PUSH2 0x19CB JUMP JUMPDEST POP PUSH1 0x0 PUSH1 0x20 DUP3 DUP7 ADD ADD MSTORE PUSH1 0x20 PUSH1 0x1F NOT PUSH1 0x1F DUP4 ADD AND DUP6 ADD ADD SWAP2 POP POP SWAP3 SWAP2 POP POP JUMP JUMPDEST PUSH1 0x1 DUP1 PUSH1 0xA0 SHL SUB DUP6 AND DUP2 MSTORE DUP4 PUSH1 0x20 DUP3 ADD MSTORE PUSH1 0x80 PUSH1 0x40 DUP3 ADD MSTORE PUSH1 0x0 PUSH2 0x1A2E PUSH1 0x80 DUP4 ADD DUP6 PUSH2 0x19C1 JUMP JUMPDEST SWAP1 POP DUP3 PUSH1 0x60 DUP4 ADD MSTORE SWAP6 SWAP5 POP POP POP POP POP JUMP JUMPDEST PUSH1 0x0 DUP1 PUSH1 0x0 DUP1 PUSH1 0x60 DUP6 DUP8 SUB SLT ISZERO PUSH2 0x1A55 JUMPI PUSH1 0x0 DUP1 REVERT JUMPDEST PUSH2 0x1A5E DUP6 PUSH2 0x1978 JUMP JUMPDEST SWAP4 POP PUSH2 0x1A6C PUSH1 0x20 DUP7 ADD PUSH2 0x1978 JUMP JUMPDEST SWAP3 POP PUSH1 0x40 DUP6 ADD CALLDATALOAD PUSH8 0xFFFFFFFFFFFFFFFF DUP1 DUP3 GT ISZERO PUSH2 0x1A89 JUMPI PUSH1 0x0 DUP1 REVERT JUMPDEST DUP2 DUP8 ADD SWAP2 POP DUP8 PUSH1 0x1F DUP4 ADD SLT PUSH2 0x1A9D JUMPI PUSH1 0x0 DUP1 REVERT JUMPDEST DUP2 CALLDATALOAD DUP2 DUP2 GT ISZERO PUSH2 0x1AAC JUMPI PUSH1 0x0 DUP1 REVERT JUMPDEST DUP9 PUSH1 0x20 DUP3 DUP6 ADD ADD GT ISZERO PUSH2 0x1ABE JUMPI PUSH1 0x0 DUP1 REVERT JUMPDEST SWAP6 SWAP9 SWAP5 SWAP8 POP POP PUSH1 0x20 ADD SWAP5 POP POP POP JUMP JUMPDEST PUSH1 0x0 PUSH1 0x20 DUP3 DUP5 SUB SLT ISZERO PUSH2 0x1ADF JUMPI PUSH1 0x0 DUP1 REVERT JUMPDEST DUP2 CALLDATALOAD PUSH1 0x1 PUSH1 0x1 PUSH1 0xA0 SHL SUB DUP2 AND DUP2 EQ PUSH2 0x1AF6 JUMPI PUSH1 0x0 DUP1 REVERT JUMPDEST SWAP4 SWAP3 POP POP POP JUMP JUMPDEST PUSH1 0x0 PUSH1 0x20 DUP3 DUP5 SUB SLT ISZERO PUSH2 0x1B0F JUMPI PUSH1 0x0 DUP1 REVERT JUMPDEST POP CALLDATALOAD SWAP2 SWAP1 POP JUMP JUMPDEST PUSH1 0x0 DUP2 MLOAD DUP1 DUP5 MSTORE PUSH1 0x20 DUP1 DUP6 ADD SWAP5 POP DUP1 DUP5 ADD PUSH1 0x0 JUMPDEST DUP4 DUP2 LT ISZERO PUSH2 0x1B4F JUMPI DUP2 MLOAD PUSH1 0x1 PUSH1 0x1 PUSH1 0xA0 SHL SUB AND DUP8 MSTORE SWAP6 DUP3 ADD SWAP6 SWAP1 DUP3 ADD SWAP1 PUSH1 0x1 ADD PUSH2 0x1B2A JUMP JUMPDEST POP SWAP5 SWAP6 SWAP5 POP POP POP POP POP JUMP JUMPDEST PUSH1 0x40 DUP2 MSTORE PUSH1 0x0 PUSH2 0x1B6D PUSH1 0x40 DUP4 ADD DUP6 PUSH2 0x1B16 JUMP JUMPDEST PUSH1 0x20 DUP4 DUP3 SUB DUP2 DUP6 ADD MSTORE DUP2 DUP6 MLOAD DUP1 DUP5 MSTORE DUP3 DUP5 ADD SWAP2 POP DUP3 DUP2 PUSH1 0x5 SHL DUP6 ADD ADD DUP4 DUP9 ADD PUSH1 0x0 JUMPDEST DUP4 DUP2 LT ISZERO PUSH2 0x1BBD JUMPI PUSH1 0x1F NOT DUP8 DUP5 SUB ADD DUP6 MSTORE PUSH2 0x1BAB DUP4 DUP4 MLOAD PUSH2 0x19C1 JUMP JUMPDEST SWAP5 DUP7 ADD SWAP5 SWAP3 POP SWAP1 DUP6 ADD SWAP1 PUSH1 0x1 ADD PUSH2 0x1B8F JUMP JUMPDEST POP SWAP1 SWAP10 SWAP9 POP POP POP POP POP POP POP POP POP JUMP JUMPDEST PUSH1 0x20 DUP1 DUP3 MSTORE DUP3 MLOAD DUP3 DUP3 ADD DUP2 SWAP1 MSTORE PUSH1 0x0 SWAP2 SWAP1 DUP5 DUP3 ADD SWAP1 PUSH1 0x40 DUP6 ADD SWAP1 DUP5 JUMPDEST DUP2 DUP2 LT ISZERO PUSH2 0x1C07 JUMPI DUP4 MLOAD PUSH1 0xFF AND DUP4 MSTORE SWAP3 DUP5 ADD SWAP3 SWAP2 DUP5 ADD SWAP2 PUSH1 0x1 ADD PUSH2 0x1BE8 JUMP JUMPDEST POP SWAP1 SWAP7 SWAP6 POP POP POP POP POP POP JUMP JUMPDEST PUSH1 0x1 DUP2 DUP2 SHR SWAP1 DUP3 AND DUP1 PUSH2 0x1C27 JUMPI PUSH1 0x7F DUP3 AND SWAP2 POP JUMPDEST PUSH1 0x20 DUP3 LT DUP2 SUB PUSH2 0x1C47 JUMPI PUSH4 0x4E487B71 PUSH1 0xE0 SHL PUSH1 0x0 MSTORE PUSH1 0x22 PUSH1 0x4 MSTORE PUSH1 0x24 PUSH1 0x0 REVERT JUMPDEST POP SWAP2 SWAP1 POP JUMP JUMPDEST PUSH4 0x4E487B71 PUSH1 0xE0 SHL PUSH1 0x0 MSTORE PUSH1 0x41 PUSH1 0x4 MSTORE PUSH1 0x24 PUSH1 0x0 REVERT JUMPDEST PUSH1 0x1F DUP3 GT ISZERO PUSH2 0x18C9 JUMPI PUSH1 0x0 DUP2 DUP2 MSTORE PUSH1 0x20 DUP2 KECCAK256 PUSH1 0x1F DUP6 ADD PUSH1 0x5 SHR DUP2 ADD PUSH1 0x20 DUP7 LT ISZERO PUSH2 0x1C8A JUMPI POP DUP1 JUMPDEST PUSH1 0x1F DUP6 ADD PUSH1 0x5 SHR DUP3 ADD SWAP2 POP JUMPDEST DUP2 DUP2 LT ISZERO PUSH2 0x1344 JUMPI DUP3 DUP2 SSTORE PUSH1 0x1 ADD PUSH2 0x1C96 JUMP JUMPDEST PUSH8 0xFFFFFFFFFFFFFFFF DUP4 GT ISZERO PUSH2 0x1CC1 JUMPI PUSH2 0x1CC1 PUSH2 0x1C4D JUMP JUMPDEST PUSH2 0x1CD5 DUP4 PUSH2 0x1CCF DUP4 SLOAD PUSH2 0x1C13 JUMP JUMPDEST DUP4 PUSH2 0x1C63 JUMP JUMPDEST PUSH1 0x0 PUSH1 0x1F DUP5 GT PUSH1 0x1 DUP2 EQ PUSH2 0x1D09 JUMPI PUSH1 0x0 DUP6 ISZERO PUSH2 0x1CF1 JUMPI POP DUP4 DUP3 ADD CALLDATALOAD JUMPDEST PUSH1 0x0 NOT PUSH1 0x3 DUP8 SWAP1 SHL SHR NOT AND PUSH1 0x1 DUP7 SWAP1 SHL OR DUP4 SSTORE PUSH2 0x1346 JUMP JUMPDEST PUSH1 0x0 DUP4 DUP2 MSTORE PUSH1 0x20 SWAP1 KECCAK256 PUSH1 0x1F NOT DUP7 AND SWAP1 DUP4 JUMPDEST DUP3 DUP2 LT ISZERO PUSH2 0x1D3A JUMPI DUP7 DUP6 ADD CALLDATALOAD DUP3 SSTORE PUSH1 0x20 SWAP5 DUP6 ADD SWAP5 PUSH1 0x1 SWAP1 SWAP3 ADD SWAP2 ADD PUSH2 0x1D1A JUMP JUMPDEST POP DUP7 DUP3 LT ISZERO PUSH2 0x1D57 JUMPI PUSH1 0x0 NOT PUSH1 0xF8 DUP9 PUSH1 0x3 SHL AND SHR NOT DUP5 DUP8 ADD CALLDATALOAD AND DUP2 SSTORE JUMPDEST POP POP PUSH1 0x1 DUP6 PUSH1 0x1 SHL ADD DUP4 SSTORE POP POP POP POP POP JUMP JUMPDEST PUSH4 0x4E487B71 PUSH1 0xE0 SHL PUSH1 0x0 MSTORE PUSH1 0x11 PUSH1 0x4 MSTORE PUSH1 0x24 PUSH1 0x0 REVERT JUMPDEST DUP1 DUP3 MUL DUP2 ISZERO DUP3 DUP3 DIV DUP5 EQ OR PUSH2 0x1D96 JUMPI PUSH2 0x1D96 PUSH2 0x1D69 JUMP JUMPDEST SWAP3 SWAP2 POP POP JUMP JUMPDEST PUSH1 0x0 DUP3 PUSH2 0x1DB9 JUMPI PUSH4 0x4E487B71 PUSH1 0xE0 SHL PUSH1 0x0 MSTORE PUSH1 0x12 PUSH1 0x4 MSTORE PUSH1 0x24 PUSH1 0x0 REVERT JUMPDEST POP DIV SWAP1 JUMP JUMPDEST PUSH1 0x0 DUP2 PUSH2 0x1DCD JUMPI PUSH2 0x1DCD PUSH2 0x1D69 JUMP JUMPDEST POP PUSH1 0x0 NOT ADD SWAP1 JUMP JUMPDEST PUSH1 0x0 PUSH1 0x1 DUP3 ADD PUSH2 0x1DE7 JUMPI PUSH2 0x1DE7 PUSH2 0x1D69 JUMP JUMPDEST POP PUSH1 0x1 ADD SWAP1 JUMP JUMPDEST DUP2 DUP2 SUB DUP2 DUP2 GT ISZERO PUSH2 0x1D96 JUMPI PUSH2 0x1D96 PUSH2 0x1D69 JUMP JUMPDEST PUSH1 0xFF DUP8 AND DUP2 MSTORE PUSH1 0xFF DUP7 AND PUSH1 0x20 DUP3 ADD MSTORE PUSH1 0xA0 PUSH1 0x40 DUP3 ADD MSTORE DUP4 PUSH1 0xA0 DUP3 ADD MSTORE DUP4 DUP6 PUSH1 0xC0 DUP4 ADD CALLDATACOPY PUSH1 0x0 PUSH1 0xC0 DUP6 DUP4 ADD DUP2 ADD SWAP2 SWAP1 SWAP2 MSTORE PUSH1 0x60 DUP3 ADD SWAP4 SWAP1 SWAP4 MSTORE PUSH1 0x1 PUSH1 0x1 PUSH1 0xA0 SHL SUB SWAP2 SWAP1 SWAP2 AND PUSH1 0x80 DUP3 ADD MSTORE PUSH1 0x1F SWAP1 SWAP3 ADD PUSH1 0x1F NOT AND SWAP1 SWAP2 ADD ADD SWAP4 SWAP3 POP POP POP JUMP JUMPDEST DUP4 DUP2 MSTORE PUSH1 0x60 PUSH1 0x20 DUP3 ADD MSTORE PUSH1 0x0 PUSH2 0x1E77 PUSH1 0x60 DUP4 ADD DUP6 PUSH2 0x1B16 JUMP JUMPDEST SWAP1 POP DUP3 PUSH1 0x40 DUP4 ADD MSTORE SWAP5 SWAP4 POP POP POP POP JUMP JUMPDEST PUSH1 0xFF DUP2 DUP2 AND DUP4 DUP3 AND MUL SWAP1 DUP2 AND SWAP1 DUP2 DUP2 EQ PUSH2 0x1EA3 JUMPI PUSH2 0x1EA3 PUSH2 0x1D69 JUMP JUMPDEST POP SWAP3 SWAP2 POP POP JUMP JUMPDEST PUSH4 0x4E487B71 PUSH1 0xE0 SHL PUSH1 0x0 MSTORE PUSH1 0x32 PUSH1 0x4 MSTORE PUSH1 0x24 PUSH1 0x0 REVERT JUMPDEST PUSH1 0x0 PUSH1 0xFF DUP3 AND PUSH1 0xFF DUP2 SUB PUSH2 0x1ED6 JUMPI PUSH2 0x1ED6 PUSH2 0x1D69 JUMP JUMPDEST PUSH1 0x1 ADD SWAP3 SWAP2 POP POP JUMP JUMPDEST DUP1 DUP3 ADD DUP1 DUP3 GT ISZERO PUSH2 0x1D96 JUMPI PUSH2 0x1D96 PUSH2 0x1D69 JUMP INVALID LOG2 PUSH5 0x6970667358 0x22 SLT KECCAK256 SHR 0x1F 0xE4 0xB3 PUSH15 0xF7985D5351E291F878BD0059005D05 MULMOD BLOCKHASH SWAP16 0xE7 0xA8 TIMESTAMP ADDRESS PUSH3 0x688920 CHAINID PUSH5 0x736F6C6343 STOP ADDMOD EQ STOP CALLER "},"methodIdentifiers":{"CANVAS_HEIGHT()":"ed4127df","CANVAS_WIDTH()":"71bf439e","DEVELOPER_PERCENTAGE()":"05887b52","INITIAL_PRICE()":"7c5e2795","PREVIOUS_OWNER_PERCENTAGE()":"939da325","PRICE_INCREASE_DIVISOR()":"d422d2d0","PRICE_INCREASE_FACTOR()":"4d4ef3c2","PRIZE_BANK_PERCENTAGE()":"b4cea64a","developerWallet()":"185870f9","endGame()":"6cbc2ded","gameActive()":"f020044f","gameStartTime()":"0252b995","getCanvasData()":"b1d5603b","getGameState()":"b7d0628b","getPixel(uint8,uint8)":"3c98c38e","getPixelsByOwner(address)":"c034fe33","inactivityPeriod()":"d362bd2b","lastActivityTime()":"d9747fa3","owner()":"8da5cb5b","pixelCounts(address)":"906de78b","pixels(uint8,uint8)":"ce98f53d","prizeBankBalance()":"71289ae2","purchasePixel(uint8,uint8,string)":"5b0f1139","renounceOwnership()":"715018a6","setDeveloperWallet(address)":"6cd56878","setInactivityPeriod(uint256)":"af434a6d","shouldEndGame()":"c1339217","startGame()":"d65ab5f2","transferOwnership(address)":"f2fde38b"}}}}}